{
	"CarRental.sol": {
		"CarRental": {
			"abi": [
				{
					"inputs": [
						{
							"internalType": "contract ERC20",
							"name": "_token",
							"type": "address"
						}
					],
					"stateMutability": "nonpayable",
					"type": "constructor"
				},
				{
					"anonymous": false,
					"inputs": [
						{
							"indexed": false,
							"internalType": "string",
							"name": "carPlate",
							"type": "string"
						},
						{
							"indexed": false,
							"internalType": "uint256",
							"name": "deposit",
							"type": "uint256"
						},
						{
							"indexed": false,
							"internalType": "uint256",
							"name": "price",
							"type": "uint256"
						}
					],
					"name": "CarAdded",
					"type": "event"
				},
				{
					"anonymous": false,
					"inputs": [
						{
							"indexed": false,
							"internalType": "string",
							"name": "carPlate",
							"type": "string"
						},
						{
							"indexed": false,
							"internalType": "bool",
							"name": "isDamaged",
							"type": "bool"
						},
						{
							"indexed": false,
							"internalType": "bool",
							"name": "isRented",
							"type": "bool"
						},
						{
							"indexed": false,
							"internalType": "uint256",
							"name": "deposit",
							"type": "uint256"
						},
						{
							"indexed": false,
							"internalType": "uint256",
							"name": "price",
							"type": "uint256"
						},
						{
							"indexed": false,
							"internalType": "address",
							"name": "renterAddress",
							"type": "address"
						}
					],
					"name": "CarDetails",
					"type": "event"
				},
				{
					"anonymous": false,
					"inputs": [
						{
							"indexed": false,
							"internalType": "string",
							"name": "carPlate",
							"type": "string"
						},
						{
							"indexed": true,
							"internalType": "address",
							"name": "renter",
							"type": "address"
						}
					],
					"name": "CarRented",
					"type": "event"
				},
				{
					"inputs": [
						{
							"internalType": "string",
							"name": "carPlate",
							"type": "string"
						},
						{
							"internalType": "uint256",
							"name": "deposit",
							"type": "uint256"
						},
						{
							"internalType": "uint256",
							"name": "price",
							"type": "uint256"
						}
					],
					"name": "addCar",
					"outputs": [],
					"stateMutability": "nonpayable",
					"type": "function"
				},
				{
					"inputs": [],
					"name": "amountRaised",
					"outputs": [
						{
							"internalType": "uint256",
							"name": "",
							"type": "uint256"
						}
					],
					"stateMutability": "view",
					"type": "function"
				},
				{
					"inputs": [],
					"name": "buyTokens",
					"outputs": [],
					"stateMutability": "payable",
					"type": "function"
				},
				{
					"inputs": [],
					"name": "getAllCars",
					"outputs": [],
					"stateMutability": "nonpayable",
					"type": "function"
				},
				{
					"inputs": [
						{
							"internalType": "string",
							"name": "carPlate",
							"type": "string"
						}
					],
					"name": "rentCar",
					"outputs": [],
					"stateMutability": "nonpayable",
					"type": "function"
				},
				{
					"inputs": [],
					"name": "token",
					"outputs": [
						{
							"internalType": "contract ERC20",
							"name": "",
							"type": "address"
						}
					],
					"stateMutability": "view",
					"type": "function"
				},
				{
					"inputs": [],
					"name": "wallet",
					"outputs": [
						{
							"internalType": "address payable",
							"name": "",
							"type": "address"
						}
					],
					"stateMutability": "view",
					"type": "function"
				}
			],
			"devdoc": {
				"kind": "dev",
				"methods": {},
				"version": 1
			},
			"evm": {
				"assembly": "    /* \"CarRental.sol\":114:3306  contract CarRental {... */\n  mstore(0x40, 0xa0)\n    /* \"CarRental.sol\":801:922  constructor(ERC20 _token) {... */\n  callvalue\n  dup1\n  iszero\n  tag_1\n  jumpi\n  0x00\n  dup1\n  revert\ntag_1:\n  pop\n  mload(0x40)\n  sub(codesize, bytecodeSize)\n  dup1\n  bytecodeSize\n  dup4\n  codecopy\n  dup2\n  dup2\n  add\n  0x40\n  mstore\n  dup2\n  add\n  swap1\n  tag_2\n  swap2\n  swap1\n  tag_3\n  jump\t// in\ntag_2:\n    /* \"CarRental.sol\":845:855  msg.sender */\n  caller\n    /* \"CarRental.sol\":837:855  owner = msg.sender */\n  0xffffffffffffffffffffffffffffffffffffffff\n  and\n  0x80\n  dup2\n  0xffffffffffffffffffffffffffffffffffffffff\n  and\n  dup2\n  mstore\n  pop\n  pop\n    /* \"CarRental.sol\":883:888  owner */\n  mload(0x80)\n    /* \"CarRental.sol\":865:871  wallet */\n  0x03\n  0x00\n    /* \"CarRental.sol\":865:889  wallet = payable (owner) */\n  0x0100\n  exp\n  dup2\n  sload\n  dup2\n  0xffffffffffffffffffffffffffffffffffffffff\n  mul\n  not\n  and\n  swap1\n  dup4\n  0xffffffffffffffffffffffffffffffffffffffff\n  and\n  mul\n  or\n  swap1\n  sstore\n  pop\n    /* \"CarRental.sol\":908:914  _token */\n  dup1\n    /* \"CarRental.sol\":900:905  token */\n  0x02\n  0x00\n    /* \"CarRental.sol\":900:914  token = _token */\n  0x0100\n  exp\n  dup2\n  sload\n  dup2\n  0xffffffffffffffffffffffffffffffffffffffff\n  mul\n  not\n  and\n  swap1\n  dup4\n  0xffffffffffffffffffffffffffffffffffffffff\n  and\n  mul\n  or\n  swap1\n  sstore\n  pop\n    /* \"CarRental.sol\":801:922  constructor(ERC20 _token) {... */\n  pop\n    /* \"CarRental.sol\":114:3306  contract CarRental {... */\n  jump(tag_6)\n    /* \"#utility.yul\":88:205   */\ntag_8:\n    /* \"#utility.yul\":197:198   */\n  0x00\n    /* \"#utility.yul\":194:195   */\n  dup1\n    /* \"#utility.yul\":187:199   */\n  revert\n    /* \"#utility.yul\":334:460   */\ntag_10:\n    /* \"#utility.yul\":371:378   */\n  0x00\n    /* \"#utility.yul\":411:453   */\n  0xffffffffffffffffffffffffffffffffffffffff\n    /* \"#utility.yul\":404:409   */\n  dup3\n    /* \"#utility.yul\":400:454   */\n  and\n    /* \"#utility.yul\":389:454   */\n  swap1\n  pop\n    /* \"#utility.yul\":334:460   */\n  swap2\n  swap1\n  pop\n  jump\t// out\n    /* \"#utility.yul\":466:562   */\ntag_11:\n    /* \"#utility.yul\":503:510   */\n  0x00\n    /* \"#utility.yul\":532:556   */\n  tag_21\n    /* \"#utility.yul\":550:555   */\n  dup3\n    /* \"#utility.yul\":532:556   */\n  tag_10\n  jump\t// in\ntag_21:\n    /* \"#utility.yul\":521:556   */\n  swap1\n  pop\n    /* \"#utility.yul\":466:562   */\n  swap2\n  swap1\n  pop\n  jump\t// out\n    /* \"#utility.yul\":568:677   */\ntag_12:\n    /* \"#utility.yul\":618:625   */\n  0x00\n    /* \"#utility.yul\":647:671   */\n  tag_23\n    /* \"#utility.yul\":665:670   */\n  dup3\n    /* \"#utility.yul\":647:671   */\n  tag_11\n  jump\t// in\ntag_23:\n    /* \"#utility.yul\":636:671   */\n  swap1\n  pop\n    /* \"#utility.yul\":568:677   */\n  swap2\n  swap1\n  pop\n  jump\t// out\n    /* \"#utility.yul\":683:831   */\ntag_13:\n    /* \"#utility.yul\":769:806   */\n  tag_25\n    /* \"#utility.yul\":800:805   */\n  dup2\n    /* \"#utility.yul\":769:806   */\n  tag_12\n  jump\t// in\ntag_25:\n    /* \"#utility.yul\":762:767   */\n  dup2\n    /* \"#utility.yul\":759:807   */\n  eq\n    /* \"#utility.yul\":749:825   */\n  tag_26\n  jumpi\n    /* \"#utility.yul\":821:822   */\n  0x00\n    /* \"#utility.yul\":818:819   */\n  dup1\n    /* \"#utility.yul\":811:823   */\n  revert\n    /* \"#utility.yul\":749:825   */\ntag_26:\n    /* \"#utility.yul\":683:831   */\n  pop\n  jump\t// out\n    /* \"#utility.yul\":837:1006   */\ntag_14:\n    /* \"#utility.yul\":907:912   */\n  0x00\n    /* \"#utility.yul\":938:944   */\n  dup2\n    /* \"#utility.yul\":932:945   */\n  mload\n    /* \"#utility.yul\":923:945   */\n  swap1\n  pop\n    /* \"#utility.yul\":954:1000   */\n  tag_28\n    /* \"#utility.yul\":994:999   */\n  dup2\n    /* \"#utility.yul\":954:1000   */\n  tag_13\n  jump\t// in\ntag_28:\n    /* \"#utility.yul\":837:1006   */\n  swap3\n  swap2\n  pop\n  pop\n  jump\t// out\n    /* \"#utility.yul\":1012:1389   */\ntag_3:\n    /* \"#utility.yul\":1095:1101   */\n  0x00\n    /* \"#utility.yul\":1144:1146   */\n  0x20\n    /* \"#utility.yul\":1132:1141   */\n  dup3\n    /* \"#utility.yul\":1123:1130   */\n  dup5\n    /* \"#utility.yul\":1119:1142   */\n  sub\n    /* \"#utility.yul\":1115:1147   */\n  slt\n    /* \"#utility.yul\":1112:1231   */\n  iszero\n  tag_30\n  jumpi\n    /* \"#utility.yul\":1150:1229   */\n  tag_31\n  tag_8\n  jump\t// in\ntag_31:\n    /* \"#utility.yul\":1112:1231   */\ntag_30:\n    /* \"#utility.yul\":1270:1271   */\n  0x00\n    /* \"#utility.yul\":1295:1372   */\n  tag_32\n    /* \"#utility.yul\":1364:1371   */\n  dup5\n    /* \"#utility.yul\":1355:1361   */\n  dup3\n    /* \"#utility.yul\":1344:1353   */\n  dup6\n    /* \"#utility.yul\":1340:1362   */\n  add\n    /* \"#utility.yul\":1295:1372   */\n  tag_14\n  jump\t// in\ntag_32:\n    /* \"#utility.yul\":1285:1372   */\n  swap2\n  pop\n    /* \"#utility.yul\":1241:1382   */\n  pop\n    /* \"#utility.yul\":1012:1389   */\n  swap3\n  swap2\n  pop\n  pop\n  jump\t// out\n    /* \"CarRental.sol\":114:3306  contract CarRental {... */\ntag_6:\n  mload(0x80)\n  codecopy(0x00, dataOffset(sub_0), dataSize(sub_0))\n  0x00\n  assignImmutable(\"0x2d16435b3faa4516e45c961fcfb8946768323ac70484540b7ee099d570719013\")\n  return(0x00, dataSize(sub_0))\nstop\n\nsub_0: assembly {\n        /* \"CarRental.sol\":114:3306  contract CarRental {... */\n      mstore(0x40, 0x80)\n      jumpi(tag_1, lt(calldatasize, 0x04))\n      shr(0xe0, calldataload(0x00))\n      dup1\n      0xabfe5d57\n      gt\n      tag_9\n      jumpi\n      dup1\n      0xabfe5d57\n      eq\n      tag_5\n      jumpi\n      dup1\n      0xc8351be0\n      eq\n      tag_6\n      jumpi\n      dup1\n      0xd0febe4c\n      eq\n      tag_7\n      jumpi\n      dup1\n      0xfc0c546a\n      eq\n      tag_8\n      jumpi\n      jump(tag_1)\n    tag_9:\n      dup1\n      0x521eb273\n      eq\n      tag_2\n      jumpi\n      dup1\n      0x72fd3d3e\n      eq\n      tag_3\n      jumpi\n      dup1\n      0x7b3e5e7b\n      eq\n      tag_4\n      jumpi\n    tag_1:\n      0x00\n      dup1\n      revert\n        /* \"CarRental.sol\":449:478  address payable public wallet */\n    tag_2:\n      callvalue\n      dup1\n      iszero\n      tag_10\n      jumpi\n      0x00\n      dup1\n      revert\n    tag_10:\n      pop\n      tag_11\n      tag_12\n      jump\t// in\n    tag_11:\n      mload(0x40)\n      tag_13\n      swap2\n      swap1\n      tag_14\n      jump\t// in\n    tag_13:\n      mload(0x40)\n      dup1\n      swap2\n      sub\n      swap1\n      return\n        /* \"CarRental.sol\":2376:3303  function rentCar(string memory carPlate) external {... */\n    tag_3:\n      callvalue\n      dup1\n      iszero\n      tag_15\n      jumpi\n      0x00\n      dup1\n      revert\n    tag_15:\n      pop\n      tag_16\n      0x04\n      dup1\n      calldatasize\n      sub\n      dup2\n      add\n      swap1\n      tag_17\n      swap2\n      swap1\n      tag_18\n      jump\t// in\n    tag_17:\n      tag_19\n      jump\t// in\n    tag_16:\n      stop\n        /* \"CarRental.sol\":484:511  uint256 public amountRaised */\n    tag_4:\n      callvalue\n      dup1\n      iszero\n      tag_20\n      jumpi\n      0x00\n      dup1\n      revert\n    tag_20:\n      pop\n      tag_21\n      tag_22\n      jump\t// in\n    tag_21:\n      mload(0x40)\n      tag_23\n      swap2\n      swap1\n      tag_24\n      jump\t// in\n    tag_23:\n      mload(0x40)\n      dup1\n      swap2\n      sub\n      swap1\n      return\n        /* \"CarRental.sol\":1914:2366  function getAllCars() external {... */\n    tag_5:\n      callvalue\n      dup1\n      iszero\n      tag_25\n      jumpi\n      0x00\n      dup1\n      revert\n    tag_25:\n      pop\n      tag_26\n      tag_27\n      jump\t// in\n    tag_26:\n      stop\n        /* \"CarRental.sol\":1313:1908  function addCar(... */\n    tag_6:\n      callvalue\n      dup1\n      iszero\n      tag_28\n      jumpi\n      0x00\n      dup1\n      revert\n    tag_28:\n      pop\n      tag_29\n      0x04\n      dup1\n      calldatasize\n      sub\n      dup2\n      add\n      swap1\n      tag_30\n      swap2\n      swap1\n      tag_31\n      jump\t// in\n    tag_30:\n      tag_32\n      jump\t// in\n    tag_29:\n      stop\n        /* \"CarRental.sol\":1085:1307  function buyTokens() public payable {... */\n    tag_7:\n      tag_33\n      tag_34\n      jump\t// in\n    tag_33:\n      stop\n        /* \"CarRental.sol\":425:443  ERC20 public token */\n    tag_8:\n      callvalue\n      dup1\n      iszero\n      tag_35\n      jumpi\n      0x00\n      dup1\n      revert\n    tag_35:\n      pop\n      tag_36\n      tag_37\n      jump\t// in\n    tag_36:\n      mload(0x40)\n      tag_38\n      swap2\n      swap1\n      tag_39\n      jump\t// in\n    tag_38:\n      mload(0x40)\n      dup1\n      swap2\n      sub\n      swap1\n      return\n        /* \"CarRental.sol\":449:478  address payable public wallet */\n    tag_12:\n      0x03\n      0x00\n      swap1\n      sload\n      swap1\n      0x0100\n      exp\n      swap1\n      div\n      0xffffffffffffffffffffffffffffffffffffffff\n      and\n      dup2\n      jump\t// out\n        /* \"CarRental.sol\":2376:3303  function rentCar(string memory carPlate) external {... */\n    tag_19:\n        /* \"CarRental.sol\":2436:2451  Car storage car */\n      0x00\n        /* \"CarRental.sol\":2454:2460  carMap */\n      dup1\n        /* \"CarRental.sol\":2461:2469  carPlate */\n      dup3\n        /* \"CarRental.sol\":2454:2470  carMap[carPlate] */\n      mload(0x40)\n      tag_41\n      swap2\n      swap1\n      tag_42\n      jump\t// in\n    tag_41:\n      swap1\n      dup2\n      mstore\n      0x20\n      add\n      mload(0x40)\n      dup1\n      swap2\n      sub\n      swap1\n      keccak256\n        /* \"CarRental.sol\":2436:2470  Car storage car = carMap[carPlate] */\n      swap1\n      pop\n        /* \"CarRental.sol\":2737:2738  0 */\n      0x00\n        /* \"CarRental.sol\":2723:2726  car */\n      dup2\n        /* \"CarRental.sol\":2723:2734  car.deposit */\n      0x02\n      add\n      sload\n        /* \"CarRental.sol\":2723:2738  car.deposit > 0 */\n      gt\n        /* \"CarRental.sol\":2723:2755  car.deposit > 0 && car.price > 0 */\n      dup1\n      iszero\n      tag_43\n      jumpi\n      pop\n        /* \"CarRental.sol\":2754:2755  0 */\n      0x00\n        /* \"CarRental.sol\":2742:2745  car */\n      dup2\n        /* \"CarRental.sol\":2742:2751  car.price */\n      0x03\n      add\n      sload\n        /* \"CarRental.sol\":2742:2755  car.price > 0 */\n      gt\n        /* \"CarRental.sol\":2723:2755  car.deposit > 0 && car.price > 0 */\n    tag_43:\n        /* \"CarRental.sol\":2715:2779  require(car.deposit > 0 && car.price > 0, \"Car does not exist.\") */\n      tag_44\n      jumpi\n      mload(0x40)\n      0x08c379a000000000000000000000000000000000000000000000000000000000\n      dup2\n      mstore\n      0x04\n      add\n      tag_45\n      swap1\n      tag_46\n      jump\t// in\n    tag_45:\n      mload(0x40)\n      dup1\n      swap2\n      sub\n      swap1\n      revert\n    tag_44:\n        /* \"CarRental.sol\":2798:2801  car */\n      dup1\n        /* \"CarRental.sol\":2798:2810  car.isRented */\n      0x01\n      add\n      0x01\n      swap1\n      sload\n      swap1\n      0x0100\n      exp\n      swap1\n      div\n      0xff\n      and\n        /* \"CarRental.sol\":2797:2810  !car.isRented */\n      iszero\n        /* \"CarRental.sol\":2789:2837  require(!car.isRented, \"Car is already rented.\") */\n      tag_47\n      jumpi\n      mload(0x40)\n      0x08c379a000000000000000000000000000000000000000000000000000000000\n      dup2\n      mstore\n      0x04\n      add\n      tag_48\n      swap1\n      tag_49\n      jump\t// in\n    tag_48:\n      mload(0x40)\n      dup1\n      swap2\n      sub\n      swap1\n      revert\n    tag_47:\n        /* \"CarRental.sol\":2882:2887  token */\n      0x02\n      0x00\n      swap1\n      sload\n      swap1\n      0x0100\n      exp\n      swap1\n      div\n      0xffffffffffffffffffffffffffffffffffffffff\n      and\n        /* \"CarRental.sol\":2882:2897  token.balanceOf */\n      0xffffffffffffffffffffffffffffffffffffffff\n      and\n      0x70a08231\n        /* \"CarRental.sol\":2898:2908  msg.sender */\n      caller\n        /* \"CarRental.sol\":2882:2909  token.balanceOf(msg.sender) */\n      mload(0x40)\n      dup3\n      0xffffffff\n      and\n      0xe0\n      shl\n      dup2\n      mstore\n      0x04\n      add\n      tag_50\n      swap2\n      swap1\n      tag_51\n      jump\t// in\n    tag_50:\n      0x20\n      mload(0x40)\n      dup1\n      dup4\n      sub\n      dup2\n      dup7\n      gas\n      staticcall\n      iszero\n      dup1\n      iszero\n      tag_53\n      jumpi\n      returndatasize\n      0x00\n      dup1\n      returndatacopy\n      revert(0x00, returndatasize)\n    tag_53:\n      pop\n      pop\n      pop\n      pop\n      mload(0x40)\n      returndatasize\n      not(0x1f)\n      0x1f\n      dup3\n      add\n      and\n      dup3\n      add\n      dup1\n      0x40\n      mstore\n      pop\n      dup2\n      add\n      swap1\n      tag_54\n      swap2\n      swap1\n      tag_55\n      jump\t// in\n    tag_54:\n        /* \"CarRental.sol\":2869:2872  car */\n      dup2\n        /* \"CarRental.sol\":2869:2878  car.price */\n      0x03\n      add\n      sload\n        /* \"CarRental.sol\":2855:2858  car */\n      dup3\n        /* \"CarRental.sol\":2855:2866  car.deposit */\n      0x02\n      add\n      sload\n        /* \"CarRental.sol\":2855:2878  car.deposit + car.price */\n      tag_56\n      swap2\n      swap1\n      tag_57\n      jump\t// in\n    tag_56:\n        /* \"CarRental.sol\":2855:2909  car.deposit + car.price <= token.balanceOf(msg.sender) */\n      gt\n      iszero\n        /* \"CarRental.sol\":2847:2964  require(car.deposit + car.price <= token.balanceOf(msg.sender), \"You have insufficient CRS balance to rent this car\") */\n      tag_58\n      jumpi\n      mload(0x40)\n      0x08c379a000000000000000000000000000000000000000000000000000000000\n      dup2\n      mstore\n      0x04\n      add\n      tag_59\n      swap1\n      tag_60\n      jump\t// in\n    tag_59:\n      mload(0x40)\n      dup1\n      swap2\n      sub\n      swap1\n      revert\n    tag_58:\n        /* \"CarRental.sol\":3060:3076  uint totalRental */\n      0x00\n        /* \"CarRental.sol\":3093:3096  car */\n      dup2\n        /* \"CarRental.sol\":3093:3102  car.price */\n      0x03\n      add\n      sload\n        /* \"CarRental.sol\":3079:3082  car */\n      dup3\n        /* \"CarRental.sol\":3079:3090  car.deposit */\n      0x02\n      add\n      sload\n        /* \"CarRental.sol\":3079:3102  car.deposit + car.price */\n      tag_61\n      swap2\n      swap1\n      tag_57\n      jump\t// in\n    tag_61:\n        /* \"CarRental.sol\":3060:3102  uint totalRental = car.deposit + car.price */\n      swap1\n      pop\n        /* \"CarRental.sol\":3112:3117  token */\n      0x02\n      0x00\n      swap1\n      sload\n      swap1\n      0x0100\n      exp\n      swap1\n      div\n      0xffffffffffffffffffffffffffffffffffffffff\n      and\n        /* \"CarRental.sol\":3112:3130  token.transferFrom */\n      0xffffffffffffffffffffffffffffffffffffffff\n      and\n      0x23b872dd\n        /* \"CarRental.sol\":3131:3141  msg.sender */\n      caller\n        /* \"CarRental.sol\":3143:3149  wallet */\n      0x03\n      0x00\n      swap1\n      sload\n      swap1\n      0x0100\n      exp\n      swap1\n      div\n      0xffffffffffffffffffffffffffffffffffffffff\n      and\n        /* \"CarRental.sol\":3151:3162  totalRental */\n      dup5\n        /* \"CarRental.sol\":3112:3163  token.transferFrom(msg.sender, wallet, totalRental) */\n      mload(0x40)\n      dup5\n      0xffffffff\n      and\n      0xe0\n      shl\n      dup2\n      mstore\n      0x04\n      add\n      tag_62\n      swap4\n      swap3\n      swap2\n      swap1\n      tag_63\n      jump\t// in\n    tag_62:\n      0x20\n      mload(0x40)\n      dup1\n      dup4\n      sub\n      dup2\n      0x00\n      dup8\n      gas\n      call\n      iszero\n      dup1\n      iszero\n      tag_65\n      jumpi\n      returndatasize\n      0x00\n      dup1\n      returndatacopy\n      revert(0x00, returndatasize)\n    tag_65:\n      pop\n      pop\n      pop\n      pop\n      mload(0x40)\n      returndatasize\n      not(0x1f)\n      0x1f\n      dup3\n      add\n      and\n      dup3\n      add\n      dup1\n      0x40\n      mstore\n      pop\n      dup2\n      add\n      swap1\n      tag_66\n      swap2\n      swap1\n      tag_67\n      jump\t// in\n    tag_66:\n      pop\n        /* \"CarRental.sol\":3197:3201  true */\n      0x01\n        /* \"CarRental.sol\":3182:3185  car */\n      dup3\n        /* \"CarRental.sol\":3182:3194  car.isRented */\n      0x01\n      add\n      0x01\n        /* \"CarRental.sol\":3182:3201  car.isRented = true */\n      0x0100\n      exp\n      dup2\n      sload\n      dup2\n      0xff\n      mul\n      not\n      and\n      swap1\n      dup4\n      iszero\n      iszero\n      mul\n      or\n      swap1\n      sstore\n      pop\n        /* \"CarRental.sol\":3231:3241  msg.sender */\n      caller\n        /* \"CarRental.sol\":3211:3214  car */\n      dup3\n        /* \"CarRental.sol\":3211:3228  car.renterAddress */\n      0x04\n      add\n      0x00\n        /* \"CarRental.sol\":3211:3241  car.renterAddress = msg.sender */\n      0x0100\n      exp\n      dup2\n      sload\n      dup2\n      0xffffffffffffffffffffffffffffffffffffffff\n      mul\n      not\n      and\n      swap1\n      dup4\n      0xffffffffffffffffffffffffffffffffffffffff\n      and\n      mul\n      or\n      swap1\n      sstore\n      pop\n        /* \"CarRental.sol\":3285:3295  msg.sender */\n      caller\n        /* \"CarRental.sol\":3265:3296  CarRented(carPlate, msg.sender) */\n      0xffffffffffffffffffffffffffffffffffffffff\n      and\n      0xe0903df489d90288745389e699f476635bf4b26eaabf03f19d342cc921c54f6c\n        /* \"CarRental.sol\":3275:3283  carPlate */\n      dup5\n        /* \"CarRental.sol\":3265:3296  CarRented(carPlate, msg.sender) */\n      mload(0x40)\n      tag_68\n      swap2\n      swap1\n      tag_69\n      jump\t// in\n    tag_68:\n      mload(0x40)\n      dup1\n      swap2\n      sub\n      swap1\n      log2\n        /* \"CarRental.sol\":2426:3303  {... */\n      pop\n      pop\n        /* \"CarRental.sol\":2376:3303  function rentCar(string memory carPlate) external {... */\n      pop\n      jump\t// out\n        /* \"CarRental.sol\":484:511  uint256 public amountRaised */\n    tag_22:\n      sload(0x04)\n      dup2\n      jump\t// out\n        /* \"CarRental.sol\":1914:2366  function getAllCars() external {... */\n    tag_27:\n        /* \"CarRental.sol\":1982:1983  0 */\n      0x00\n        /* \"CarRental.sol\":1963:1972  carPlates */\n      0x01\n        /* \"CarRental.sol\":1963:1979  carPlates.length */\n      dup1\n      sload\n      swap1\n      pop\n        /* \"CarRental.sol\":1963:1983  carPlates.length > 0 */\n      gt\n        /* \"CarRental.sol\":1955:2010  require(carPlates.length > 0, \"No cars are available.\") */\n      tag_71\n      jumpi\n      mload(0x40)\n      0x08c379a000000000000000000000000000000000000000000000000000000000\n      dup2\n      mstore\n      0x04\n      add\n      tag_72\n      swap1\n      tag_73\n      jump\t// in\n    tag_72:\n      mload(0x40)\n      dup1\n      swap2\n      sub\n      swap1\n      revert\n    tag_71:\n        /* \"CarRental.sol\":2025:2034  uint256 i */\n      0x00\n        /* \"CarRental.sol\":2020:2359  for (uint256 i = 0; i < carPlates.length; i++) {... */\n    tag_74:\n        /* \"CarRental.sol\":2044:2053  carPlates */\n      0x01\n        /* \"CarRental.sol\":2044:2060  carPlates.length */\n      dup1\n      sload\n      swap1\n      pop\n        /* \"CarRental.sol\":2040:2041  i */\n      dup2\n        /* \"CarRental.sol\":2040:2060  i < carPlates.length */\n      lt\n        /* \"CarRental.sol\":2020:2359  for (uint256 i = 0; i < carPlates.length; i++) {... */\n      iszero\n      tag_75\n      jumpi\n        /* \"CarRental.sol\":2081:2096  Car storage car */\n      0x00\n        /* \"CarRental.sol\":2099:2105  carMap */\n      dup1\n        /* \"CarRental.sol\":2106:2115  carPlates */\n      0x01\n        /* \"CarRental.sol\":2116:2117  i */\n      dup4\n        /* \"CarRental.sol\":2106:2118  carPlates[i] */\n      dup2\n      sload\n      dup2\n      lt\n      tag_77\n      jumpi\n      tag_78\n      tag_79\n      jump\t// in\n    tag_78:\n    tag_77:\n      swap1\n      0x00\n      mstore\n      keccak256(0x00, 0x20)\n      add\n        /* \"CarRental.sol\":2099:2119  carMap[carPlates[i]] */\n      mload(0x40)\n      tag_81\n      swap2\n      swap1\n      tag_82\n      jump\t// in\n    tag_81:\n      swap1\n      dup2\n      mstore\n      0x20\n      add\n      mload(0x40)\n      dup1\n      swap2\n      sub\n      swap1\n      keccak256\n        /* \"CarRental.sol\":2081:2119  Car storage car = carMap[carPlates[i]] */\n      swap1\n      pop\n        /* \"CarRental.sol\":2138:2348  CarDetails(... */\n      0x731eec37d0514029470b50942896e3bb28cbbd50752cebebb455158b57c3d829\n        /* \"CarRental.sol\":2166:2169  car */\n      dup2\n        /* \"CarRental.sol\":2166:2178  car.carPlate */\n      0x00\n      add\n        /* \"CarRental.sol\":2197:2200  car */\n      dup3\n        /* \"CarRental.sol\":2197:2210  car.isDamaged */\n      0x01\n      add\n      0x00\n      swap1\n      sload\n      swap1\n      0x0100\n      exp\n      swap1\n      div\n      0xff\n      and\n        /* \"CarRental.sol\":2229:2232  car */\n      dup4\n        /* \"CarRental.sol\":2229:2241  car.isRented */\n      0x01\n      add\n      0x01\n      swap1\n      sload\n      swap1\n      0x0100\n      exp\n      swap1\n      div\n      0xff\n      and\n        /* \"CarRental.sol\":2260:2263  car */\n      dup5\n        /* \"CarRental.sol\":2260:2271  car.deposit */\n      0x02\n      add\n      sload\n        /* \"CarRental.sol\":2290:2293  car */\n      dup6\n        /* \"CarRental.sol\":2290:2299  car.price */\n      0x03\n      add\n      sload\n        /* \"CarRental.sol\":2317:2320  car */\n      dup7\n        /* \"CarRental.sol\":2317:2334  car.renterAddress */\n      0x04\n      add\n      0x00\n      swap1\n      sload\n      swap1\n      0x0100\n      exp\n      swap1\n      div\n      0xffffffffffffffffffffffffffffffffffffffff\n      and\n        /* \"CarRental.sol\":2138:2348  CarDetails(... */\n      mload(0x40)\n      tag_83\n      swap7\n      swap6\n      swap5\n      swap4\n      swap3\n      swap2\n      swap1\n      tag_84\n      jump\t// in\n    tag_83:\n      mload(0x40)\n      dup1\n      swap2\n      sub\n      swap1\n      log1\n        /* \"CarRental.sol\":2067:2359  {... */\n      pop\n        /* \"CarRental.sol\":2062:2065  i++ */\n      dup1\n      dup1\n      0x01\n      add\n      swap2\n      pop\n      pop\n        /* \"CarRental.sol\":2020:2359  for (uint256 i = 0; i < carPlates.length; i++) {... */\n      jump(tag_74)\n    tag_75:\n      pop\n        /* \"CarRental.sol\":1914:2366  function getAllCars() external {... */\n      jump\t// out\n        /* \"CarRental.sol\":1313:1908  function addCar(... */\n    tag_32:\n        /* \"CarRental.sol\":998:1003  owner */\n      immutable(\"0x2d16435b3faa4516e45c961fcfb8946768323ac70484540b7ee099d570719013\")\n        /* \"CarRental.sol\":984:1003  msg.sender == owner */\n      0xffffffffffffffffffffffffffffffffffffffff\n      and\n        /* \"CarRental.sol\":984:994  msg.sender */\n      caller\n        /* \"CarRental.sol\":984:1003  msg.sender == owner */\n      0xffffffffffffffffffffffffffffffffffffffff\n      and\n      eq\n        /* \"CarRental.sol\":976:1046  require(msg.sender == owner, \"Only the car rental owner can do this.\") */\n      tag_86\n      jumpi\n      mload(0x40)\n      0x08c379a000000000000000000000000000000000000000000000000000000000\n      dup2\n      mstore\n      0x04\n      add\n      tag_87\n      swap1\n      tag_88\n      jump\t// in\n    tag_87:\n      mload(0x40)\n      dup1\n      swap2\n      sub\n      swap1\n      revert\n    tag_86:\n        /* \"CarRental.sol\":1462:1463  0 */\n      0x00\n        /* \"CarRental.sol\":1452:1459  deposit */\n      dup3\n        /* \"CarRental.sol\":1452:1463  deposit > 0 */\n      gt\n        /* \"CarRental.sol\":1452:1476  deposit > 0 && price > 0 */\n      dup1\n      iszero\n      tag_90\n      jumpi\n      pop\n        /* \"CarRental.sol\":1475:1476  0 */\n      0x00\n        /* \"CarRental.sol\":1467:1472  price */\n      dup2\n        /* \"CarRental.sol\":1467:1476  price > 0 */\n      gt\n        /* \"CarRental.sol\":1452:1476  deposit > 0 && price > 0 */\n    tag_90:\n        /* \"CarRental.sol\":1444:1515  require(deposit > 0 && price > 0, \"Car must have a deposit and price.\") */\n      tag_91\n      jumpi\n      mload(0x40)\n      0x08c379a000000000000000000000000000000000000000000000000000000000\n      dup2\n      mstore\n      0x04\n      add\n      tag_92\n      swap1\n      tag_93\n      jump\t// in\n    tag_92:\n      mload(0x40)\n      dup1\n      swap2\n      sub\n      swap1\n      revert\n    tag_91:\n        /* \"CarRental.sol\":1571:1589  Car storage newCar */\n      0x00\n        /* \"CarRental.sol\":1592:1598  carMap */\n      dup1\n        /* \"CarRental.sol\":1599:1607  carPlate */\n      dup5\n        /* \"CarRental.sol\":1592:1608  carMap[carPlate] */\n      mload(0x40)\n      tag_94\n      swap2\n      swap1\n      tag_42\n      jump\t// in\n    tag_94:\n      swap1\n      dup2\n      mstore\n      0x20\n      add\n      mload(0x40)\n      dup1\n      swap2\n      sub\n      swap1\n      keccak256\n        /* \"CarRental.sol\":1571:1608  Car storage newCar = carMap[carPlate] */\n      swap1\n      pop\n        /* \"CarRental.sol\":1636:1644  carPlate */\n      dup4\n        /* \"CarRental.sol\":1618:1624  newCar */\n      dup2\n        /* \"CarRental.sol\":1618:1633  newCar.carPlate */\n      0x00\n      add\n        /* \"CarRental.sol\":1618:1644  newCar.carPlate = carPlate */\n      swap1\n      dup2\n      tag_95\n      swap2\n      swap1\n      tag_96\n      jump\t// in\n    tag_95:\n      pop\n        /* \"CarRental.sol\":1671:1678  deposit */\n      dup3\n        /* \"CarRental.sol\":1654:1660  newCar */\n      dup2\n        /* \"CarRental.sol\":1654:1668  newCar.deposit */\n      0x02\n      add\n        /* \"CarRental.sol\":1654:1678  newCar.deposit = deposit */\n      dup2\n      swap1\n      sstore\n      pop\n        /* \"CarRental.sol\":1703:1708  price */\n      dup2\n        /* \"CarRental.sol\":1688:1694  newCar */\n      dup2\n        /* \"CarRental.sol\":1688:1700  newCar.price */\n      0x03\n      add\n        /* \"CarRental.sol\":1688:1708  newCar.price = price */\n      dup2\n      swap1\n      sstore\n      pop\n        /* \"CarRental.sol\":1736:1741  false */\n      0x00\n        /* \"CarRental.sol\":1718:1724  newCar */\n      dup2\n        /* \"CarRental.sol\":1718:1733  newCar.isRented */\n      0x01\n      add\n      0x01\n        /* \"CarRental.sol\":1718:1741  newCar.isRented = false */\n      0x0100\n      exp\n      dup2\n      sload\n      dup2\n      0xff\n      mul\n      not\n      and\n      swap1\n      dup4\n      iszero\n      iszero\n      mul\n      or\n      swap1\n      sstore\n      pop\n        /* \"CarRental.sol\":1770:1775  false */\n      0x00\n        /* \"CarRental.sol\":1751:1757  newCar */\n      dup2\n        /* \"CarRental.sol\":1751:1767  newCar.isDamaged */\n      0x01\n      add\n      0x00\n        /* \"CarRental.sol\":1751:1775  newCar.isDamaged = false */\n      0x0100\n      exp\n      dup2\n      sload\n      dup2\n      0xff\n      mul\n      not\n      and\n      swap1\n      dup4\n      iszero\n      iszero\n      mul\n      or\n      swap1\n      sstore\n      pop\n        /* \"CarRental.sol\":1816:1817  0 */\n      0x00\n        /* \"CarRental.sol\":1785:1791  newCar */\n      dup2\n        /* \"CarRental.sol\":1785:1805  newCar.renterAddress */\n      0x04\n      add\n      0x00\n        /* \"CarRental.sol\":1785:1818  newCar.renterAddress = address(0) */\n      0x0100\n      exp\n      dup2\n      sload\n      dup2\n      0xffffffffffffffffffffffffffffffffffffffff\n      mul\n      not\n      and\n      swap1\n      dup4\n      0xffffffffffffffffffffffffffffffffffffffff\n      and\n      mul\n      or\n      swap1\n      sstore\n      pop\n        /* \"CarRental.sol\":1828:1837  carPlates */\n      0x01\n        /* \"CarRental.sol\":1843:1851  carPlate */\n      dup5\n        /* \"CarRental.sol\":1828:1852  carPlates.push(carPlate) */\n      swap1\n      dup1\n      0x01\n      dup2\n      sload\n      add\n      dup1\n      dup3\n      sstore\n      dup1\n      swap2\n      pop\n      pop\n      0x01\n      swap1\n      sub\n      swap1\n      0x00\n      mstore\n      keccak256(0x00, 0x20)\n      add\n      0x00\n      swap1\n      swap2\n      swap1\n      swap2\n      swap1\n      swap2\n      pop\n      swap1\n      dup2\n      tag_98\n      swap2\n      swap1\n      tag_96\n      jump\t// in\n    tag_98:\n      pop\n        /* \"CarRental.sol\":1867:1901  CarAdded(carPlate, deposit, price) */\n      0x9cdb19cea9d23c0e85935c7016eaeb490bf814b8f83272928788fa4a91e7399a\n        /* \"CarRental.sol\":1876:1884  carPlate */\n      dup5\n        /* \"CarRental.sol\":1886:1893  deposit */\n      dup5\n        /* \"CarRental.sol\":1895:1900  price */\n      dup5\n        /* \"CarRental.sol\":1867:1901  CarAdded(carPlate, deposit, price) */\n      mload(0x40)\n      tag_99\n      swap4\n      swap3\n      swap2\n      swap1\n      tag_100\n      jump\t// in\n    tag_99:\n      mload(0x40)\n      dup1\n      swap2\n      sub\n      swap1\n      log1\n        /* \"CarRental.sol\":1434:1908  {... */\n      pop\n        /* \"CarRental.sol\":1313:1908  function addCar(... */\n      pop\n      pop\n      pop\n      jump\t// out\n        /* \"CarRental.sol\":1085:1307  function buyTokens() public payable {... */\n    tag_34:\n        /* \"CarRental.sol\":1131:1148  uint256 numTokens */\n      0x00\n        /* \"CarRental.sol\":1163:1170  1 ether */\n      0x0de0b6b3a7640000\n        /* \"CarRental.sol\":1151:1160  msg.value */\n      callvalue\n        /* \"CarRental.sol\":1151:1170  msg.value / 1 ether */\n      tag_102\n      swap2\n      swap1\n      tag_103\n      jump\t// in\n    tag_102:\n        /* \"CarRental.sol\":1131:1170  uint256 numTokens = msg.value / 1 ether */\n      swap1\n      pop\n        /* \"CarRental.sol\":1196:1205  msg.value */\n      callvalue\n        /* \"CarRental.sol\":1180:1192  amountRaised */\n      0x04\n      0x00\n        /* \"CarRental.sol\":1180:1205  amountRaised += msg.value */\n      dup3\n      dup3\n      sload\n      tag_104\n      swap2\n      swap1\n      tag_57\n      jump\t// in\n    tag_104:\n      swap3\n      pop\n      pop\n      dup2\n      swap1\n      sstore\n      pop\n        /* \"CarRental.sol\":1215:1220  token */\n      0x02\n      0x00\n      swap1\n      sload\n      swap1\n      0x0100\n      exp\n      swap1\n      div\n      0xffffffffffffffffffffffffffffffffffffffff\n      and\n        /* \"CarRental.sol\":1215:1233  token.transferFrom */\n      0xffffffffffffffffffffffffffffffffffffffff\n      and\n      0x23b872dd\n        /* \"CarRental.sol\":1234:1240  wallet */\n      0x03\n      0x00\n      swap1\n      sload\n      swap1\n      0x0100\n      exp\n      swap1\n      div\n      0xffffffffffffffffffffffffffffffffffffffff\n      and\n        /* \"CarRental.sol\":1242:1252  msg.sender */\n      caller\n        /* \"CarRental.sol\":1254:1263  numTokens */\n      dup5\n        /* \"CarRental.sol\":1215:1264  token.transferFrom(wallet, msg.sender, numTokens) */\n      mload(0x40)\n      dup5\n      0xffffffff\n      and\n      0xe0\n      shl\n      dup2\n      mstore\n      0x04\n      add\n      tag_105\n      swap4\n      swap3\n      swap2\n      swap1\n      tag_106\n      jump\t// in\n    tag_105:\n      0x20\n      mload(0x40)\n      dup1\n      dup4\n      sub\n      dup2\n      0x00\n      dup8\n      gas\n      call\n      iszero\n      dup1\n      iszero\n      tag_108\n      jumpi\n      returndatasize\n      0x00\n      dup1\n      returndatacopy\n      revert(0x00, returndatasize)\n    tag_108:\n      pop\n      pop\n      pop\n      pop\n      mload(0x40)\n      returndatasize\n      not(0x1f)\n      0x1f\n      dup3\n      add\n      and\n      dup3\n      add\n      dup1\n      0x40\n      mstore\n      pop\n      dup2\n      add\n      swap1\n      tag_109\n      swap2\n      swap1\n      tag_67\n      jump\t// in\n    tag_109:\n      pop\n        /* \"CarRental.sol\":1274:1280  wallet */\n      0x03\n      0x00\n      swap1\n      sload\n      swap1\n      0x0100\n      exp\n      swap1\n      div\n      0xffffffffffffffffffffffffffffffffffffffff\n      and\n        /* \"CarRental.sol\":1274:1289  wallet.transfer */\n      0xffffffffffffffffffffffffffffffffffffffff\n      and\n        /* \"CarRental.sol\":1274:1300  wallet.transfer(msg.value) */\n      0x08fc\n        /* \"CarRental.sol\":1290:1299  msg.value */\n      callvalue\n        /* \"CarRental.sol\":1274:1300  wallet.transfer(msg.value) */\n      swap1\n      dup2\n      iszero\n      mul\n      swap1\n      mload(0x40)\n      0x00\n      mload(0x40)\n      dup1\n      dup4\n      sub\n      dup2\n      dup6\n      dup9\n      dup9\n      call\n      swap4\n      pop\n      pop\n      pop\n      pop\n      iszero\n      dup1\n      iszero\n      tag_111\n      jumpi\n      returndatasize\n      0x00\n      dup1\n      returndatacopy\n      revert(0x00, returndatasize)\n    tag_111:\n      pop\n        /* \"CarRental.sol\":1121:1307  {... */\n      pop\n        /* \"CarRental.sol\":1085:1307  function buyTokens() public payable {... */\n      jump\t// out\n        /* \"CarRental.sol\":425:443  ERC20 public token */\n    tag_37:\n      0x02\n      0x00\n      swap1\n      sload\n      swap1\n      0x0100\n      exp\n      swap1\n      div\n      0xffffffffffffffffffffffffffffffffffffffff\n      and\n      dup2\n      jump\t// out\n        /* \"#utility.yul\":7:133   */\n    tag_112:\n        /* \"#utility.yul\":44:51   */\n      0x00\n        /* \"#utility.yul\":84:126   */\n      0xffffffffffffffffffffffffffffffffffffffff\n        /* \"#utility.yul\":77:82   */\n      dup3\n        /* \"#utility.yul\":73:127   */\n      and\n        /* \"#utility.yul\":62:127   */\n      swap1\n      pop\n        /* \"#utility.yul\":7:133   */\n      swap2\n      swap1\n      pop\n      jump\t// out\n        /* \"#utility.yul\":139:243   */\n    tag_113:\n        /* \"#utility.yul\":184:191   */\n      0x00\n        /* \"#utility.yul\":213:237   */\n      tag_187\n        /* \"#utility.yul\":231:236   */\n      dup3\n        /* \"#utility.yul\":213:237   */\n      tag_112\n      jump\t// in\n    tag_187:\n        /* \"#utility.yul\":202:237   */\n      swap1\n      pop\n        /* \"#utility.yul\":139:243   */\n      swap2\n      swap1\n      pop\n      jump\t// out\n        /* \"#utility.yul\":249:391   */\n    tag_114:\n        /* \"#utility.yul\":352:384   */\n      tag_189\n        /* \"#utility.yul\":378:383   */\n      dup2\n        /* \"#utility.yul\":352:384   */\n      tag_113\n      jump\t// in\n    tag_189:\n        /* \"#utility.yul\":347:350   */\n      dup3\n        /* \"#utility.yul\":340:385   */\n      mstore\n        /* \"#utility.yul\":249:391   */\n      pop\n      pop\n      jump\t// out\n        /* \"#utility.yul\":397:651   */\n    tag_14:\n        /* \"#utility.yul\":506:510   */\n      0x00\n        /* \"#utility.yul\":544:546   */\n      0x20\n        /* \"#utility.yul\":533:542   */\n      dup3\n        /* \"#utility.yul\":529:547   */\n      add\n        /* \"#utility.yul\":521:547   */\n      swap1\n      pop\n        /* \"#utility.yul\":557:644   */\n      tag_191\n        /* \"#utility.yul\":641:642   */\n      0x00\n        /* \"#utility.yul\":630:639   */\n      dup4\n        /* \"#utility.yul\":626:643   */\n      add\n        /* \"#utility.yul\":617:623   */\n      dup5\n        /* \"#utility.yul\":557:644   */\n      tag_114\n      jump\t// in\n    tag_191:\n        /* \"#utility.yul\":397:651   */\n      swap3\n      swap2\n      pop\n      pop\n      jump\t// out\n        /* \"#utility.yul\":657:732   */\n    tag_115:\n        /* \"#utility.yul\":690:696   */\n      0x00\n        /* \"#utility.yul\":723:725   */\n      0x40\n        /* \"#utility.yul\":717:726   */\n      mload\n        /* \"#utility.yul\":707:726   */\n      swap1\n      pop\n        /* \"#utility.yul\":657:732   */\n      swap1\n      jump\t// out\n        /* \"#utility.yul\":738:855   */\n    tag_116:\n        /* \"#utility.yul\":847:848   */\n      0x00\n        /* \"#utility.yul\":844:845   */\n      dup1\n        /* \"#utility.yul\":837:849   */\n      revert\n        /* \"#utility.yul\":861:978   */\n    tag_117:\n        /* \"#utility.yul\":970:971   */\n      0x00\n        /* \"#utility.yul\":967:968   */\n      dup1\n        /* \"#utility.yul\":960:972   */\n      revert\n        /* \"#utility.yul\":984:1101   */\n    tag_118:\n        /* \"#utility.yul\":1093:1094   */\n      0x00\n        /* \"#utility.yul\":1090:1091   */\n      dup1\n        /* \"#utility.yul\":1083:1095   */\n      revert\n        /* \"#utility.yul\":1107:1224   */\n    tag_119:\n        /* \"#utility.yul\":1216:1217   */\n      0x00\n        /* \"#utility.yul\":1213:1214   */\n      dup1\n        /* \"#utility.yul\":1206:1218   */\n      revert\n        /* \"#utility.yul\":1230:1332   */\n    tag_120:\n        /* \"#utility.yul\":1271:1277   */\n      0x00\n        /* \"#utility.yul\":1322:1324   */\n      0x1f\n        /* \"#utility.yul\":1318:1325   */\n      not\n        /* \"#utility.yul\":1313:1315   */\n      0x1f\n        /* \"#utility.yul\":1306:1311   */\n      dup4\n        /* \"#utility.yul\":1302:1316   */\n      add\n        /* \"#utility.yul\":1298:1326   */\n      and\n        /* \"#utility.yul\":1288:1326   */\n      swap1\n      pop\n        /* \"#utility.yul\":1230:1332   */\n      swap2\n      swap1\n      pop\n      jump\t// out\n        /* \"#utility.yul\":1338:1518   */\n    tag_121:\n        /* \"#utility.yul\":1386:1463   */\n      0x4e487b7100000000000000000000000000000000000000000000000000000000\n        /* \"#utility.yul\":1383:1384   */\n      0x00\n        /* \"#utility.yul\":1376:1464   */\n      mstore\n        /* \"#utility.yul\":1483:1487   */\n      0x41\n        /* \"#utility.yul\":1480:1481   */\n      0x04\n        /* \"#utility.yul\":1473:1488   */\n      mstore\n        /* \"#utility.yul\":1507:1511   */\n      0x24\n        /* \"#utility.yul\":1504:1505   */\n      0x00\n        /* \"#utility.yul\":1497:1512   */\n      revert\n        /* \"#utility.yul\":1524:1805   */\n    tag_122:\n        /* \"#utility.yul\":1607:1634   */\n      tag_200\n        /* \"#utility.yul\":1629:1633   */\n      dup3\n        /* \"#utility.yul\":1607:1634   */\n      tag_120\n      jump\t// in\n    tag_200:\n        /* \"#utility.yul\":1599:1605   */\n      dup2\n        /* \"#utility.yul\":1595:1635   */\n      add\n        /* \"#utility.yul\":1737:1743   */\n      dup2\n        /* \"#utility.yul\":1725:1735   */\n      dup2\n        /* \"#utility.yul\":1722:1744   */\n      lt\n        /* \"#utility.yul\":1701:1719   */\n      0xffffffffffffffff\n        /* \"#utility.yul\":1689:1699   */\n      dup3\n        /* \"#utility.yul\":1686:1720   */\n      gt\n        /* \"#utility.yul\":1683:1745   */\n      or\n        /* \"#utility.yul\":1680:1768   */\n      iszero\n      tag_201\n      jumpi\n        /* \"#utility.yul\":1748:1766   */\n      tag_202\n      tag_121\n      jump\t// in\n    tag_202:\n        /* \"#utility.yul\":1680:1768   */\n    tag_201:\n        /* \"#utility.yul\":1788:1798   */\n      dup1\n        /* \"#utility.yul\":1784:1786   */\n      0x40\n        /* \"#utility.yul\":1777:1799   */\n      mstore\n        /* \"#utility.yul\":1567:1805   */\n      pop\n        /* \"#utility.yul\":1524:1805   */\n      pop\n      pop\n      jump\t// out\n        /* \"#utility.yul\":1811:1940   */\n    tag_123:\n        /* \"#utility.yul\":1845:1851   */\n      0x00\n        /* \"#utility.yul\":1872:1892   */\n      tag_204\n      tag_115\n      jump\t// in\n    tag_204:\n        /* \"#utility.yul\":1862:1892   */\n      swap1\n      pop\n        /* \"#utility.yul\":1901:1934   */\n      tag_205\n        /* \"#utility.yul\":1929:1933   */\n      dup3\n        /* \"#utility.yul\":1921:1927   */\n      dup3\n        /* \"#utility.yul\":1901:1934   */\n      tag_122\n      jump\t// in\n    tag_205:\n        /* \"#utility.yul\":1811:1940   */\n      swap2\n      swap1\n      pop\n      jump\t// out\n        /* \"#utility.yul\":1946:2254   */\n    tag_124:\n        /* \"#utility.yul\":2008:2012   */\n      0x00\n        /* \"#utility.yul\":2098:2116   */\n      0xffffffffffffffff\n        /* \"#utility.yul\":2090:2096   */\n      dup3\n        /* \"#utility.yul\":2087:2117   */\n      gt\n        /* \"#utility.yul\":2084:2140   */\n      iszero\n      tag_207\n      jumpi\n        /* \"#utility.yul\":2120:2138   */\n      tag_208\n      tag_121\n      jump\t// in\n    tag_208:\n        /* \"#utility.yul\":2084:2140   */\n    tag_207:\n        /* \"#utility.yul\":2158:2187   */\n      tag_209\n        /* \"#utility.yul\":2180:2186   */\n      dup3\n        /* \"#utility.yul\":2158:2187   */\n      tag_120\n      jump\t// in\n    tag_209:\n        /* \"#utility.yul\":2150:2187   */\n      swap1\n      pop\n        /* \"#utility.yul\":2242:2246   */\n      0x20\n        /* \"#utility.yul\":2236:2240   */\n      dup2\n        /* \"#utility.yul\":2232:2247   */\n      add\n        /* \"#utility.yul\":2224:2247   */\n      swap1\n      pop\n        /* \"#utility.yul\":1946:2254   */\n      swap2\n      swap1\n      pop\n      jump\t// out\n        /* \"#utility.yul\":2260:2408   */\n    tag_125:\n        /* \"#utility.yul\":2358:2364   */\n      dup3\n        /* \"#utility.yul\":2353:2356   */\n      dup2\n        /* \"#utility.yul\":2348:2351   */\n      dup4\n        /* \"#utility.yul\":2335:2365   */\n      calldatacopy\n        /* \"#utility.yul\":2399:2400   */\n      0x00\n        /* \"#utility.yul\":2390:2396   */\n      dup4\n        /* \"#utility.yul\":2385:2388   */\n      dup4\n        /* \"#utility.yul\":2381:2397   */\n      add\n        /* \"#utility.yul\":2374:2401   */\n      mstore\n        /* \"#utility.yul\":2260:2408   */\n      pop\n      pop\n      pop\n      jump\t// out\n        /* \"#utility.yul\":2414:2839   */\n    tag_126:\n        /* \"#utility.yul\":2492:2497   */\n      0x00\n        /* \"#utility.yul\":2517:2583   */\n      tag_212\n        /* \"#utility.yul\":2533:2582   */\n      tag_213\n        /* \"#utility.yul\":2575:2581   */\n      dup5\n        /* \"#utility.yul\":2533:2582   */\n      tag_124\n      jump\t// in\n    tag_213:\n        /* \"#utility.yul\":2517:2583   */\n      tag_123\n      jump\t// in\n    tag_212:\n        /* \"#utility.yul\":2508:2583   */\n      swap1\n      pop\n        /* \"#utility.yul\":2606:2612   */\n      dup3\n        /* \"#utility.yul\":2599:2604   */\n      dup2\n        /* \"#utility.yul\":2592:2613   */\n      mstore\n        /* \"#utility.yul\":2644:2648   */\n      0x20\n        /* \"#utility.yul\":2637:2642   */\n      dup2\n        /* \"#utility.yul\":2633:2649   */\n      add\n        /* \"#utility.yul\":2682:2685   */\n      dup5\n        /* \"#utility.yul\":2673:2679   */\n      dup5\n        /* \"#utility.yul\":2668:2671   */\n      dup5\n        /* \"#utility.yul\":2664:2680   */\n      add\n        /* \"#utility.yul\":2661:2686   */\n      gt\n        /* \"#utility.yul\":2658:2770   */\n      iszero\n      tag_214\n      jumpi\n        /* \"#utility.yul\":2689:2768   */\n      tag_215\n      tag_119\n      jump\t// in\n    tag_215:\n        /* \"#utility.yul\":2658:2770   */\n    tag_214:\n        /* \"#utility.yul\":2779:2833   */\n      tag_216\n        /* \"#utility.yul\":2826:2832   */\n      dup5\n        /* \"#utility.yul\":2821:2824   */\n      dup3\n        /* \"#utility.yul\":2816:2819   */\n      dup6\n        /* \"#utility.yul\":2779:2833   */\n      tag_125\n      jump\t// in\n    tag_216:\n        /* \"#utility.yul\":2498:2839   */\n      pop\n        /* \"#utility.yul\":2414:2839   */\n      swap4\n      swap3\n      pop\n      pop\n      pop\n      jump\t// out\n        /* \"#utility.yul\":2859:3199   */\n    tag_127:\n        /* \"#utility.yul\":2915:2920   */\n      0x00\n        /* \"#utility.yul\":2964:2967   */\n      dup3\n        /* \"#utility.yul\":2957:2961   */\n      0x1f\n        /* \"#utility.yul\":2949:2955   */\n      dup4\n        /* \"#utility.yul\":2945:2962   */\n      add\n        /* \"#utility.yul\":2941:2968   */\n      slt\n        /* \"#utility.yul\":2931:3053   */\n      tag_218\n      jumpi\n        /* \"#utility.yul\":2972:3051   */\n      tag_219\n      tag_118\n      jump\t// in\n    tag_219:\n        /* \"#utility.yul\":2931:3053   */\n    tag_218:\n        /* \"#utility.yul\":3089:3095   */\n      dup2\n        /* \"#utility.yul\":3076:3096   */\n      calldataload\n        /* \"#utility.yul\":3114:3193   */\n      tag_220\n        /* \"#utility.yul\":3189:3192   */\n      dup5\n        /* \"#utility.yul\":3181:3187   */\n      dup3\n        /* \"#utility.yul\":3174:3178   */\n      0x20\n        /* \"#utility.yul\":3166:3172   */\n      dup7\n        /* \"#utility.yul\":3162:3179   */\n      add\n        /* \"#utility.yul\":3114:3193   */\n      tag_126\n      jump\t// in\n    tag_220:\n        /* \"#utility.yul\":3105:3193   */\n      swap2\n      pop\n        /* \"#utility.yul\":2921:3199   */\n      pop\n        /* \"#utility.yul\":2859:3199   */\n      swap3\n      swap2\n      pop\n      pop\n      jump\t// out\n        /* \"#utility.yul\":3205:3714   */\n    tag_18:\n        /* \"#utility.yul\":3274:3280   */\n      0x00\n        /* \"#utility.yul\":3323:3325   */\n      0x20\n        /* \"#utility.yul\":3311:3320   */\n      dup3\n        /* \"#utility.yul\":3302:3309   */\n      dup5\n        /* \"#utility.yul\":3298:3321   */\n      sub\n        /* \"#utility.yul\":3294:3326   */\n      slt\n        /* \"#utility.yul\":3291:3410   */\n      iszero\n      tag_222\n      jumpi\n        /* \"#utility.yul\":3329:3408   */\n      tag_223\n      tag_116\n      jump\t// in\n    tag_223:\n        /* \"#utility.yul\":3291:3410   */\n    tag_222:\n        /* \"#utility.yul\":3477:3478   */\n      0x00\n        /* \"#utility.yul\":3466:3475   */\n      dup3\n        /* \"#utility.yul\":3462:3479   */\n      add\n        /* \"#utility.yul\":3449:3480   */\n      calldataload\n        /* \"#utility.yul\":3507:3525   */\n      0xffffffffffffffff\n        /* \"#utility.yul\":3499:3505   */\n      dup2\n        /* \"#utility.yul\":3496:3526   */\n      gt\n        /* \"#utility.yul\":3493:3610   */\n      iszero\n      tag_224\n      jumpi\n        /* \"#utility.yul\":3529:3608   */\n      tag_225\n      tag_117\n      jump\t// in\n    tag_225:\n        /* \"#utility.yul\":3493:3610   */\n    tag_224:\n        /* \"#utility.yul\":3634:3697   */\n      tag_226\n        /* \"#utility.yul\":3689:3696   */\n      dup5\n        /* \"#utility.yul\":3680:3686   */\n      dup3\n        /* \"#utility.yul\":3669:3678   */\n      dup6\n        /* \"#utility.yul\":3665:3687   */\n      add\n        /* \"#utility.yul\":3634:3697   */\n      tag_127\n      jump\t// in\n    tag_226:\n        /* \"#utility.yul\":3624:3697   */\n      swap2\n      pop\n        /* \"#utility.yul\":3420:3707   */\n      pop\n        /* \"#utility.yul\":3205:3714   */\n      swap3\n      swap2\n      pop\n      pop\n      jump\t// out\n        /* \"#utility.yul\":3720:3797   */\n    tag_128:\n        /* \"#utility.yul\":3757:3764   */\n      0x00\n        /* \"#utility.yul\":3786:3791   */\n      dup2\n        /* \"#utility.yul\":3775:3791   */\n      swap1\n      pop\n        /* \"#utility.yul\":3720:3797   */\n      swap2\n      swap1\n      pop\n      jump\t// out\n        /* \"#utility.yul\":3803:3921   */\n    tag_129:\n        /* \"#utility.yul\":3890:3914   */\n      tag_229\n        /* \"#utility.yul\":3908:3913   */\n      dup2\n        /* \"#utility.yul\":3890:3914   */\n      tag_128\n      jump\t// in\n    tag_229:\n        /* \"#utility.yul\":3885:3888   */\n      dup3\n        /* \"#utility.yul\":3878:3915   */\n      mstore\n        /* \"#utility.yul\":3803:3921   */\n      pop\n      pop\n      jump\t// out\n        /* \"#utility.yul\":3927:4149   */\n    tag_24:\n        /* \"#utility.yul\":4020:4024   */\n      0x00\n        /* \"#utility.yul\":4058:4060   */\n      0x20\n        /* \"#utility.yul\":4047:4056   */\n      dup3\n        /* \"#utility.yul\":4043:4061   */\n      add\n        /* \"#utility.yul\":4035:4061   */\n      swap1\n      pop\n        /* \"#utility.yul\":4071:4142   */\n      tag_231\n        /* \"#utility.yul\":4139:4140   */\n      0x00\n        /* \"#utility.yul\":4128:4137   */\n      dup4\n        /* \"#utility.yul\":4124:4141   */\n      add\n        /* \"#utility.yul\":4115:4121   */\n      dup5\n        /* \"#utility.yul\":4071:4142   */\n      tag_129\n      jump\t// in\n    tag_231:\n        /* \"#utility.yul\":3927:4149   */\n      swap3\n      swap2\n      pop\n      pop\n      jump\t// out\n        /* \"#utility.yul\":4155:4277   */\n    tag_130:\n        /* \"#utility.yul\":4228:4252   */\n      tag_233\n        /* \"#utility.yul\":4246:4251   */\n      dup2\n        /* \"#utility.yul\":4228:4252   */\n      tag_128\n      jump\t// in\n    tag_233:\n        /* \"#utility.yul\":4221:4226   */\n      dup2\n        /* \"#utility.yul\":4218:4253   */\n      eq\n        /* \"#utility.yul\":4208:4271   */\n      tag_234\n      jumpi\n        /* \"#utility.yul\":4267:4268   */\n      0x00\n        /* \"#utility.yul\":4264:4265   */\n      dup1\n        /* \"#utility.yul\":4257:4269   */\n      revert\n        /* \"#utility.yul\":4208:4271   */\n    tag_234:\n        /* \"#utility.yul\":4155:4277   */\n      pop\n      jump\t// out\n        /* \"#utility.yul\":4283:4422   */\n    tag_131:\n        /* \"#utility.yul\":4329:4334   */\n      0x00\n        /* \"#utility.yul\":4367:4373   */\n      dup2\n        /* \"#utility.yul\":4354:4374   */\n      calldataload\n        /* \"#utility.yul\":4345:4374   */\n      swap1\n      pop\n        /* \"#utility.yul\":4383:4416   */\n      tag_236\n        /* \"#utility.yul\":4410:4415   */\n      dup2\n        /* \"#utility.yul\":4383:4416   */\n      tag_130\n      jump\t// in\n    tag_236:\n        /* \"#utility.yul\":4283:4422   */\n      swap3\n      swap2\n      pop\n      pop\n      jump\t// out\n        /* \"#utility.yul\":4428:5227   */\n    tag_31:\n        /* \"#utility.yul\":4515:4521   */\n      0x00\n        /* \"#utility.yul\":4523:4529   */\n      dup1\n        /* \"#utility.yul\":4531:4537   */\n      0x00\n        /* \"#utility.yul\":4580:4582   */\n      0x60\n        /* \"#utility.yul\":4568:4577   */\n      dup5\n        /* \"#utility.yul\":4559:4566   */\n      dup7\n        /* \"#utility.yul\":4555:4578   */\n      sub\n        /* \"#utility.yul\":4551:4583   */\n      slt\n        /* \"#utility.yul\":4548:4667   */\n      iszero\n      tag_238\n      jumpi\n        /* \"#utility.yul\":4586:4665   */\n      tag_239\n      tag_116\n      jump\t// in\n    tag_239:\n        /* \"#utility.yul\":4548:4667   */\n    tag_238:\n        /* \"#utility.yul\":4734:4735   */\n      0x00\n        /* \"#utility.yul\":4723:4732   */\n      dup5\n        /* \"#utility.yul\":4719:4736   */\n      add\n        /* \"#utility.yul\":4706:4737   */\n      calldataload\n        /* \"#utility.yul\":4764:4782   */\n      0xffffffffffffffff\n        /* \"#utility.yul\":4756:4762   */\n      dup2\n        /* \"#utility.yul\":4753:4783   */\n      gt\n        /* \"#utility.yul\":4750:4867   */\n      iszero\n      tag_240\n      jumpi\n        /* \"#utility.yul\":4786:4865   */\n      tag_241\n      tag_117\n      jump\t// in\n    tag_241:\n        /* \"#utility.yul\":4750:4867   */\n    tag_240:\n        /* \"#utility.yul\":4891:4954   */\n      tag_242\n        /* \"#utility.yul\":4946:4953   */\n      dup7\n        /* \"#utility.yul\":4937:4943   */\n      dup3\n        /* \"#utility.yul\":4926:4935   */\n      dup8\n        /* \"#utility.yul\":4922:4944   */\n      add\n        /* \"#utility.yul\":4891:4954   */\n      tag_127\n      jump\t// in\n    tag_242:\n        /* \"#utility.yul\":4881:4954   */\n      swap4\n      pop\n        /* \"#utility.yul\":4677:4964   */\n      pop\n        /* \"#utility.yul\":5003:5005   */\n      0x20\n        /* \"#utility.yul\":5029:5082   */\n      tag_243\n        /* \"#utility.yul\":5074:5081   */\n      dup7\n        /* \"#utility.yul\":5065:5071   */\n      dup3\n        /* \"#utility.yul\":5054:5063   */\n      dup8\n        /* \"#utility.yul\":5050:5072   */\n      add\n        /* \"#utility.yul\":5029:5082   */\n      tag_131\n      jump\t// in\n    tag_243:\n        /* \"#utility.yul\":5019:5082   */\n      swap3\n      pop\n        /* \"#utility.yul\":4974:5092   */\n      pop\n        /* \"#utility.yul\":5131:5133   */\n      0x40\n        /* \"#utility.yul\":5157:5210   */\n      tag_244\n        /* \"#utility.yul\":5202:5209   */\n      dup7\n        /* \"#utility.yul\":5193:5199   */\n      dup3\n        /* \"#utility.yul\":5182:5191   */\n      dup8\n        /* \"#utility.yul\":5178:5200   */\n      add\n        /* \"#utility.yul\":5157:5210   */\n      tag_131\n      jump\t// in\n    tag_244:\n        /* \"#utility.yul\":5147:5210   */\n      swap2\n      pop\n        /* \"#utility.yul\":5102:5220   */\n      pop\n        /* \"#utility.yul\":4428:5227   */\n      swap3\n      pop\n      swap3\n      pop\n      swap3\n      jump\t// out\n        /* \"#utility.yul\":5233:5293   */\n    tag_132:\n        /* \"#utility.yul\":5261:5264   */\n      0x00\n        /* \"#utility.yul\":5282:5287   */\n      dup2\n        /* \"#utility.yul\":5275:5287   */\n      swap1\n      pop\n        /* \"#utility.yul\":5233:5293   */\n      swap2\n      swap1\n      pop\n      jump\t// out\n        /* \"#utility.yul\":5299:5441   */\n    tag_133:\n        /* \"#utility.yul\":5349:5358   */\n      0x00\n        /* \"#utility.yul\":5382:5435   */\n      tag_247\n        /* \"#utility.yul\":5400:5434   */\n      tag_248\n        /* \"#utility.yul\":5409:5433   */\n      tag_249\n        /* \"#utility.yul\":5427:5432   */\n      dup5\n        /* \"#utility.yul\":5409:5433   */\n      tag_112\n      jump\t// in\n    tag_249:\n        /* \"#utility.yul\":5400:5434   */\n      tag_132\n      jump\t// in\n    tag_248:\n        /* \"#utility.yul\":5382:5435   */\n      tag_112\n      jump\t// in\n    tag_247:\n        /* \"#utility.yul\":5369:5435   */\n      swap1\n      pop\n        /* \"#utility.yul\":5299:5441   */\n      swap2\n      swap1\n      pop\n      jump\t// out\n        /* \"#utility.yul\":5447:5573   */\n    tag_134:\n        /* \"#utility.yul\":5497:5506   */\n      0x00\n        /* \"#utility.yul\":5530:5567   */\n      tag_251\n        /* \"#utility.yul\":5561:5566   */\n      dup3\n        /* \"#utility.yul\":5530:5567   */\n      tag_133\n      jump\t// in\n    tag_251:\n        /* \"#utility.yul\":5517:5567   */\n      swap1\n      pop\n        /* \"#utility.yul\":5447:5573   */\n      swap2\n      swap1\n      pop\n      jump\t// out\n        /* \"#utility.yul\":5579:5718   */\n    tag_135:\n        /* \"#utility.yul\":5642:5651   */\n      0x00\n        /* \"#utility.yul\":5675:5712   */\n      tag_253\n        /* \"#utility.yul\":5706:5711   */\n      dup3\n        /* \"#utility.yul\":5675:5712   */\n      tag_134\n      jump\t// in\n    tag_253:\n        /* \"#utility.yul\":5662:5712   */\n      swap1\n      pop\n        /* \"#utility.yul\":5579:5718   */\n      swap2\n      swap1\n      pop\n      jump\t// out\n        /* \"#utility.yul\":5724:5881   */\n    tag_136:\n        /* \"#utility.yul\":5824:5874   */\n      tag_255\n        /* \"#utility.yul\":5868:5873   */\n      dup2\n        /* \"#utility.yul\":5824:5874   */\n      tag_135\n      jump\t// in\n    tag_255:\n        /* \"#utility.yul\":5819:5822   */\n      dup3\n        /* \"#utility.yul\":5812:5875   */\n      mstore\n        /* \"#utility.yul\":5724:5881   */\n      pop\n      pop\n      jump\t// out\n        /* \"#utility.yul\":5887:6135   */\n    tag_39:\n        /* \"#utility.yul\":5993:5997   */\n      0x00\n        /* \"#utility.yul\":6031:6033   */\n      0x20\n        /* \"#utility.yul\":6020:6029   */\n      dup3\n        /* \"#utility.yul\":6016:6034   */\n      add\n        /* \"#utility.yul\":6008:6034   */\n      swap1\n      pop\n        /* \"#utility.yul\":6044:6128   */\n      tag_257\n        /* \"#utility.yul\":6125:6126   */\n      0x00\n        /* \"#utility.yul\":6114:6123   */\n      dup4\n        /* \"#utility.yul\":6110:6127   */\n      add\n        /* \"#utility.yul\":6101:6107   */\n      dup5\n        /* \"#utility.yul\":6044:6128   */\n      tag_136\n      jump\t// in\n    tag_257:\n        /* \"#utility.yul\":5887:6135   */\n      swap3\n      swap2\n      pop\n      pop\n      jump\t// out\n        /* \"#utility.yul\":6141:6240   */\n    tag_137:\n        /* \"#utility.yul\":6193:6199   */\n      0x00\n        /* \"#utility.yul\":6227:6232   */\n      dup2\n        /* \"#utility.yul\":6221:6233   */\n      mload\n        /* \"#utility.yul\":6211:6233   */\n      swap1\n      pop\n        /* \"#utility.yul\":6141:6240   */\n      swap2\n      swap1\n      pop\n      jump\t// out\n        /* \"#utility.yul\":6246:6394   */\n    tag_138:\n        /* \"#utility.yul\":6348:6359   */\n      0x00\n        /* \"#utility.yul\":6385:6388   */\n      dup2\n        /* \"#utility.yul\":6370:6388   */\n      swap1\n      pop\n        /* \"#utility.yul\":6246:6394   */\n      swap3\n      swap2\n      pop\n      pop\n      jump\t// out\n        /* \"#utility.yul\":6400:6539   */\n    tag_139:\n        /* \"#utility.yul\":6489:6495   */\n      dup3\n        /* \"#utility.yul\":6484:6487   */\n      dup2\n        /* \"#utility.yul\":6479:6482   */\n      dup4\n        /* \"#utility.yul\":6473:6496   */\n      mcopy\n        /* \"#utility.yul\":6530:6531   */\n      0x00\n        /* \"#utility.yul\":6521:6527   */\n      dup4\n        /* \"#utility.yul\":6516:6519   */\n      dup4\n        /* \"#utility.yul\":6512:6528   */\n      add\n        /* \"#utility.yul\":6505:6532   */\n      mstore\n        /* \"#utility.yul\":6400:6539   */\n      pop\n      pop\n      pop\n      jump\t// out\n        /* \"#utility.yul\":6545:6935   */\n    tag_140:\n        /* \"#utility.yul\":6651:6654   */\n      0x00\n        /* \"#utility.yul\":6679:6718   */\n      tag_262\n        /* \"#utility.yul\":6712:6717   */\n      dup3\n        /* \"#utility.yul\":6679:6718   */\n      tag_137\n      jump\t// in\n    tag_262:\n        /* \"#utility.yul\":6734:6823   */\n      tag_263\n        /* \"#utility.yul\":6816:6822   */\n      dup2\n        /* \"#utility.yul\":6811:6814   */\n      dup6\n        /* \"#utility.yul\":6734:6823   */\n      tag_138\n      jump\t// in\n    tag_263:\n        /* \"#utility.yul\":6727:6823   */\n      swap4\n      pop\n        /* \"#utility.yul\":6832:6897   */\n      tag_264\n        /* \"#utility.yul\":6890:6896   */\n      dup2\n        /* \"#utility.yul\":6885:6888   */\n      dup6\n        /* \"#utility.yul\":6878:6882   */\n      0x20\n        /* \"#utility.yul\":6871:6876   */\n      dup7\n        /* \"#utility.yul\":6867:6883   */\n      add\n        /* \"#utility.yul\":6832:6897   */\n      tag_139\n      jump\t// in\n    tag_264:\n        /* \"#utility.yul\":6922:6928   */\n      dup1\n        /* \"#utility.yul\":6917:6920   */\n      dup5\n        /* \"#utility.yul\":6913:6929   */\n      add\n        /* \"#utility.yul\":6906:6929   */\n      swap2\n      pop\n        /* \"#utility.yul\":6655:6935   */\n      pop\n        /* \"#utility.yul\":6545:6935   */\n      swap3\n      swap2\n      pop\n      pop\n      jump\t// out\n        /* \"#utility.yul\":6941:7216   */\n    tag_42:\n        /* \"#utility.yul\":7073:7076   */\n      0x00\n        /* \"#utility.yul\":7095:7190   */\n      tag_266\n        /* \"#utility.yul\":7186:7189   */\n      dup3\n        /* \"#utility.yul\":7177:7183   */\n      dup5\n        /* \"#utility.yul\":7095:7190   */\n      tag_140\n      jump\t// in\n    tag_266:\n        /* \"#utility.yul\":7088:7190   */\n      swap2\n      pop\n        /* \"#utility.yul\":7207:7210   */\n      dup2\n        /* \"#utility.yul\":7200:7210   */\n      swap1\n      pop\n        /* \"#utility.yul\":6941:7216   */\n      swap3\n      swap2\n      pop\n      pop\n      jump\t// out\n        /* \"#utility.yul\":7222:7391   */\n    tag_141:\n        /* \"#utility.yul\":7306:7317   */\n      0x00\n        /* \"#utility.yul\":7340:7346   */\n      dup3\n        /* \"#utility.yul\":7335:7338   */\n      dup3\n        /* \"#utility.yul\":7328:7347   */\n      mstore\n        /* \"#utility.yul\":7380:7384   */\n      0x20\n        /* \"#utility.yul\":7375:7378   */\n      dup3\n        /* \"#utility.yul\":7371:7385   */\n      add\n        /* \"#utility.yul\":7356:7385   */\n      swap1\n      pop\n        /* \"#utility.yul\":7222:7391   */\n      swap3\n      swap2\n      pop\n      pop\n      jump\t// out\n        /* \"#utility.yul\":7397:7566   */\n    tag_142:\n        /* \"#utility.yul\":7537:7558   */\n      0x43617220646f6573206e6f742065786973742e00000000000000000000000000\n        /* \"#utility.yul\":7533:7534   */\n      0x00\n        /* \"#utility.yul\":7525:7531   */\n      dup3\n        /* \"#utility.yul\":7521:7535   */\n      add\n        /* \"#utility.yul\":7514:7559   */\n      mstore\n        /* \"#utility.yul\":7397:7566   */\n      pop\n      jump\t// out\n        /* \"#utility.yul\":7572:7938   */\n    tag_143:\n        /* \"#utility.yul\":7714:7717   */\n      0x00\n        /* \"#utility.yul\":7735:7802   */\n      tag_270\n        /* \"#utility.yul\":7799:7801   */\n      0x13\n        /* \"#utility.yul\":7794:7797   */\n      dup4\n        /* \"#utility.yul\":7735:7802   */\n      tag_141\n      jump\t// in\n    tag_270:\n        /* \"#utility.yul\":7728:7802   */\n      swap2\n      pop\n        /* \"#utility.yul\":7811:7904   */\n      tag_271\n        /* \"#utility.yul\":7900:7903   */\n      dup3\n        /* \"#utility.yul\":7811:7904   */\n      tag_142\n      jump\t// in\n    tag_271:\n        /* \"#utility.yul\":7929:7931   */\n      0x20\n        /* \"#utility.yul\":7924:7927   */\n      dup3\n        /* \"#utility.yul\":7920:7932   */\n      add\n        /* \"#utility.yul\":7913:7932   */\n      swap1\n      pop\n        /* \"#utility.yul\":7572:7938   */\n      swap2\n      swap1\n      pop\n      jump\t// out\n        /* \"#utility.yul\":7944:8363   */\n    tag_46:\n        /* \"#utility.yul\":8110:8114   */\n      0x00\n        /* \"#utility.yul\":8148:8150   */\n      0x20\n        /* \"#utility.yul\":8137:8146   */\n      dup3\n        /* \"#utility.yul\":8133:8151   */\n      add\n        /* \"#utility.yul\":8125:8151   */\n      swap1\n      pop\n        /* \"#utility.yul\":8197:8206   */\n      dup2\n        /* \"#utility.yul\":8191:8195   */\n      dup2\n        /* \"#utility.yul\":8187:8207   */\n      sub\n        /* \"#utility.yul\":8183:8184   */\n      0x00\n        /* \"#utility.yul\":8172:8181   */\n      dup4\n        /* \"#utility.yul\":8168:8185   */\n      add\n        /* \"#utility.yul\":8161:8208   */\n      mstore\n        /* \"#utility.yul\":8225:8356   */\n      tag_273\n        /* \"#utility.yul\":8351:8355   */\n      dup2\n        /* \"#utility.yul\":8225:8356   */\n      tag_143\n      jump\t// in\n    tag_273:\n        /* \"#utility.yul\":8217:8356   */\n      swap1\n      pop\n        /* \"#utility.yul\":7944:8363   */\n      swap2\n      swap1\n      pop\n      jump\t// out\n        /* \"#utility.yul\":8369:8541   */\n    tag_144:\n        /* \"#utility.yul\":8509:8533   */\n      0x43617220697320616c72656164792072656e7465642e00000000000000000000\n        /* \"#utility.yul\":8505:8506   */\n      0x00\n        /* \"#utility.yul\":8497:8503   */\n      dup3\n        /* \"#utility.yul\":8493:8507   */\n      add\n        /* \"#utility.yul\":8486:8534   */\n      mstore\n        /* \"#utility.yul\":8369:8541   */\n      pop\n      jump\t// out\n        /* \"#utility.yul\":8547:8913   */\n    tag_145:\n        /* \"#utility.yul\":8689:8692   */\n      0x00\n        /* \"#utility.yul\":8710:8777   */\n      tag_276\n        /* \"#utility.yul\":8774:8776   */\n      0x16\n        /* \"#utility.yul\":8769:8772   */\n      dup4\n        /* \"#utility.yul\":8710:8777   */\n      tag_141\n      jump\t// in\n    tag_276:\n        /* \"#utility.yul\":8703:8777   */\n      swap2\n      pop\n        /* \"#utility.yul\":8786:8879   */\n      tag_277\n        /* \"#utility.yul\":8875:8878   */\n      dup3\n        /* \"#utility.yul\":8786:8879   */\n      tag_144\n      jump\t// in\n    tag_277:\n        /* \"#utility.yul\":8904:8906   */\n      0x20\n        /* \"#utility.yul\":8899:8902   */\n      dup3\n        /* \"#utility.yul\":8895:8907   */\n      add\n        /* \"#utility.yul\":8888:8907   */\n      swap1\n      pop\n        /* \"#utility.yul\":8547:8913   */\n      swap2\n      swap1\n      pop\n      jump\t// out\n        /* \"#utility.yul\":8919:9338   */\n    tag_49:\n        /* \"#utility.yul\":9085:9089   */\n      0x00\n        /* \"#utility.yul\":9123:9125   */\n      0x20\n        /* \"#utility.yul\":9112:9121   */\n      dup3\n        /* \"#utility.yul\":9108:9126   */\n      add\n        /* \"#utility.yul\":9100:9126   */\n      swap1\n      pop\n        /* \"#utility.yul\":9172:9181   */\n      dup2\n        /* \"#utility.yul\":9166:9170   */\n      dup2\n        /* \"#utility.yul\":9162:9182   */\n      sub\n        /* \"#utility.yul\":9158:9159   */\n      0x00\n        /* \"#utility.yul\":9147:9156   */\n      dup4\n        /* \"#utility.yul\":9143:9160   */\n      add\n        /* \"#utility.yul\":9136:9183   */\n      mstore\n        /* \"#utility.yul\":9200:9331   */\n      tag_279\n        /* \"#utility.yul\":9326:9330   */\n      dup2\n        /* \"#utility.yul\":9200:9331   */\n      tag_145\n      jump\t// in\n    tag_279:\n        /* \"#utility.yul\":9192:9331   */\n      swap1\n      pop\n        /* \"#utility.yul\":8919:9338   */\n      swap2\n      swap1\n      pop\n      jump\t// out\n        /* \"#utility.yul\":9344:9440   */\n    tag_146:\n        /* \"#utility.yul\":9381:9388   */\n      0x00\n        /* \"#utility.yul\":9410:9434   */\n      tag_281\n        /* \"#utility.yul\":9428:9433   */\n      dup3\n        /* \"#utility.yul\":9410:9434   */\n      tag_112\n      jump\t// in\n    tag_281:\n        /* \"#utility.yul\":9399:9434   */\n      swap1\n      pop\n        /* \"#utility.yul\":9344:9440   */\n      swap2\n      swap1\n      pop\n      jump\t// out\n        /* \"#utility.yul\":9446:9564   */\n    tag_147:\n        /* \"#utility.yul\":9533:9557   */\n      tag_283\n        /* \"#utility.yul\":9551:9556   */\n      dup2\n        /* \"#utility.yul\":9533:9557   */\n      tag_146\n      jump\t// in\n    tag_283:\n        /* \"#utility.yul\":9528:9531   */\n      dup3\n        /* \"#utility.yul\":9521:9558   */\n      mstore\n        /* \"#utility.yul\":9446:9564   */\n      pop\n      pop\n      jump\t// out\n        /* \"#utility.yul\":9570:9792   */\n    tag_51:\n        /* \"#utility.yul\":9663:9667   */\n      0x00\n        /* \"#utility.yul\":9701:9703   */\n      0x20\n        /* \"#utility.yul\":9690:9699   */\n      dup3\n        /* \"#utility.yul\":9686:9704   */\n      add\n        /* \"#utility.yul\":9678:9704   */\n      swap1\n      pop\n        /* \"#utility.yul\":9714:9785   */\n      tag_285\n        /* \"#utility.yul\":9782:9783   */\n      0x00\n        /* \"#utility.yul\":9771:9780   */\n      dup4\n        /* \"#utility.yul\":9767:9784   */\n      add\n        /* \"#utility.yul\":9758:9764   */\n      dup5\n        /* \"#utility.yul\":9714:9785   */\n      tag_147\n      jump\t// in\n    tag_285:\n        /* \"#utility.yul\":9570:9792   */\n      swap3\n      swap2\n      pop\n      pop\n      jump\t// out\n        /* \"#utility.yul\":9798:9941   */\n    tag_148:\n        /* \"#utility.yul\":9855:9860   */\n      0x00\n        /* \"#utility.yul\":9886:9892   */\n      dup2\n        /* \"#utility.yul\":9880:9893   */\n      mload\n        /* \"#utility.yul\":9871:9893   */\n      swap1\n      pop\n        /* \"#utility.yul\":9902:9935   */\n      tag_287\n        /* \"#utility.yul\":9929:9934   */\n      dup2\n        /* \"#utility.yul\":9902:9935   */\n      tag_130\n      jump\t// in\n    tag_287:\n        /* \"#utility.yul\":9798:9941   */\n      swap3\n      swap2\n      pop\n      pop\n      jump\t// out\n        /* \"#utility.yul\":9947:10298   */\n    tag_55:\n        /* \"#utility.yul\":10017:10023   */\n      0x00\n        /* \"#utility.yul\":10066:10068   */\n      0x20\n        /* \"#utility.yul\":10054:10063   */\n      dup3\n        /* \"#utility.yul\":10045:10052   */\n      dup5\n        /* \"#utility.yul\":10041:10064   */\n      sub\n        /* \"#utility.yul\":10037:10069   */\n      slt\n        /* \"#utility.yul\":10034:10153   */\n      iszero\n      tag_289\n      jumpi\n        /* \"#utility.yul\":10072:10151   */\n      tag_290\n      tag_116\n      jump\t// in\n    tag_290:\n        /* \"#utility.yul\":10034:10153   */\n    tag_289:\n        /* \"#utility.yul\":10192:10193   */\n      0x00\n        /* \"#utility.yul\":10217:10281   */\n      tag_291\n        /* \"#utility.yul\":10273:10280   */\n      dup5\n        /* \"#utility.yul\":10264:10270   */\n      dup3\n        /* \"#utility.yul\":10253:10262   */\n      dup6\n        /* \"#utility.yul\":10249:10271   */\n      add\n        /* \"#utility.yul\":10217:10281   */\n      tag_148\n      jump\t// in\n    tag_291:\n        /* \"#utility.yul\":10207:10281   */\n      swap2\n      pop\n        /* \"#utility.yul\":10163:10291   */\n      pop\n        /* \"#utility.yul\":9947:10298   */\n      swap3\n      swap2\n      pop\n      pop\n      jump\t// out\n        /* \"#utility.yul\":10304:10484   */\n    tag_149:\n        /* \"#utility.yul\":10352:10429   */\n      0x4e487b7100000000000000000000000000000000000000000000000000000000\n        /* \"#utility.yul\":10349:10350   */\n      0x00\n        /* \"#utility.yul\":10342:10430   */\n      mstore\n        /* \"#utility.yul\":10449:10453   */\n      0x11\n        /* \"#utility.yul\":10446:10447   */\n      0x04\n        /* \"#utility.yul\":10439:10454   */\n      mstore\n        /* \"#utility.yul\":10473:10477   */\n      0x24\n        /* \"#utility.yul\":10470:10471   */\n      0x00\n        /* \"#utility.yul\":10463:10478   */\n      revert\n        /* \"#utility.yul\":10490:10681   */\n    tag_57:\n        /* \"#utility.yul\":10530:10533   */\n      0x00\n        /* \"#utility.yul\":10549:10569   */\n      tag_294\n        /* \"#utility.yul\":10567:10568   */\n      dup3\n        /* \"#utility.yul\":10549:10569   */\n      tag_128\n      jump\t// in\n    tag_294:\n        /* \"#utility.yul\":10544:10569   */\n      swap2\n      pop\n        /* \"#utility.yul\":10583:10603   */\n      tag_295\n        /* \"#utility.yul\":10601:10602   */\n      dup4\n        /* \"#utility.yul\":10583:10603   */\n      tag_128\n      jump\t// in\n    tag_295:\n        /* \"#utility.yul\":10578:10603   */\n      swap3\n      pop\n        /* \"#utility.yul\":10626:10627   */\n      dup3\n        /* \"#utility.yul\":10623:10624   */\n      dup3\n        /* \"#utility.yul\":10619:10628   */\n      add\n        /* \"#utility.yul\":10612:10628   */\n      swap1\n      pop\n        /* \"#utility.yul\":10647:10650   */\n      dup1\n        /* \"#utility.yul\":10644:10645   */\n      dup3\n        /* \"#utility.yul\":10641:10651   */\n      gt\n        /* \"#utility.yul\":10638:10674   */\n      iszero\n      tag_296\n      jumpi\n        /* \"#utility.yul\":10654:10672   */\n      tag_297\n      tag_149\n      jump\t// in\n    tag_297:\n        /* \"#utility.yul\":10638:10674   */\n    tag_296:\n        /* \"#utility.yul\":10490:10681   */\n      swap3\n      swap2\n      pop\n      pop\n      jump\t// out\n        /* \"#utility.yul\":10687:10924   */\n    tag_150:\n        /* \"#utility.yul\":10827:10861   */\n      0x596f75206861766520696e73756666696369656e74204352532062616c616e63\n        /* \"#utility.yul\":10823:10824   */\n      0x00\n        /* \"#utility.yul\":10815:10821   */\n      dup3\n        /* \"#utility.yul\":10811:10825   */\n      add\n        /* \"#utility.yul\":10804:10862   */\n      mstore\n        /* \"#utility.yul\":10896:10916   */\n      0x6520746f2072656e742074686973206361720000000000000000000000000000\n        /* \"#utility.yul\":10891:10893   */\n      0x20\n        /* \"#utility.yul\":10883:10889   */\n      dup3\n        /* \"#utility.yul\":10879:10894   */\n      add\n        /* \"#utility.yul\":10872:10917   */\n      mstore\n        /* \"#utility.yul\":10687:10924   */\n      pop\n      jump\t// out\n        /* \"#utility.yul\":10930:11296   */\n    tag_151:\n        /* \"#utility.yul\":11072:11075   */\n      0x00\n        /* \"#utility.yul\":11093:11160   */\n      tag_300\n        /* \"#utility.yul\":11157:11159   */\n      0x32\n        /* \"#utility.yul\":11152:11155   */\n      dup4\n        /* \"#utility.yul\":11093:11160   */\n      tag_141\n      jump\t// in\n    tag_300:\n        /* \"#utility.yul\":11086:11160   */\n      swap2\n      pop\n        /* \"#utility.yul\":11169:11262   */\n      tag_301\n        /* \"#utility.yul\":11258:11261   */\n      dup3\n        /* \"#utility.yul\":11169:11262   */\n      tag_150\n      jump\t// in\n    tag_301:\n        /* \"#utility.yul\":11287:11289   */\n      0x40\n        /* \"#utility.yul\":11282:11285   */\n      dup3\n        /* \"#utility.yul\":11278:11290   */\n      add\n        /* \"#utility.yul\":11271:11290   */\n      swap1\n      pop\n        /* \"#utility.yul\":10930:11296   */\n      swap2\n      swap1\n      pop\n      jump\t// out\n        /* \"#utility.yul\":11302:11721   */\n    tag_60:\n        /* \"#utility.yul\":11468:11472   */\n      0x00\n        /* \"#utility.yul\":11506:11508   */\n      0x20\n        /* \"#utility.yul\":11495:11504   */\n      dup3\n        /* \"#utility.yul\":11491:11509   */\n      add\n        /* \"#utility.yul\":11483:11509   */\n      swap1\n      pop\n        /* \"#utility.yul\":11555:11564   */\n      dup2\n        /* \"#utility.yul\":11549:11553   */\n      dup2\n        /* \"#utility.yul\":11545:11565   */\n      sub\n        /* \"#utility.yul\":11541:11542   */\n      0x00\n        /* \"#utility.yul\":11530:11539   */\n      dup4\n        /* \"#utility.yul\":11526:11543   */\n      add\n        /* \"#utility.yul\":11519:11566   */\n      mstore\n        /* \"#utility.yul\":11583:11714   */\n      tag_303\n        /* \"#utility.yul\":11709:11713   */\n      dup2\n        /* \"#utility.yul\":11583:11714   */\n      tag_151\n      jump\t// in\n    tag_303:\n        /* \"#utility.yul\":11575:11714   */\n      swap1\n      pop\n        /* \"#utility.yul\":11302:11721   */\n      swap2\n      swap1\n      pop\n      jump\t// out\n        /* \"#utility.yul\":11727:11861   */\n    tag_152:\n        /* \"#utility.yul\":11785:11794   */\n      0x00\n        /* \"#utility.yul\":11818:11855   */\n      tag_305\n        /* \"#utility.yul\":11849:11854   */\n      dup3\n        /* \"#utility.yul\":11818:11855   */\n      tag_134\n      jump\t// in\n    tag_305:\n        /* \"#utility.yul\":11805:11855   */\n      swap1\n      pop\n        /* \"#utility.yul\":11727:11861   */\n      swap2\n      swap1\n      pop\n      jump\t// out\n        /* \"#utility.yul\":11867:12014   */\n    tag_153:\n        /* \"#utility.yul\":11962:12007   */\n      tag_307\n        /* \"#utility.yul\":12001:12006   */\n      dup2\n        /* \"#utility.yul\":11962:12007   */\n      tag_152\n      jump\t// in\n    tag_307:\n        /* \"#utility.yul\":11957:11960   */\n      dup3\n        /* \"#utility.yul\":11950:12008   */\n      mstore\n        /* \"#utility.yul\":11867:12014   */\n      pop\n      pop\n      jump\t// out\n        /* \"#utility.yul\":12020:12478   */\n    tag_63:\n        /* \"#utility.yul\":12177:12181   */\n      0x00\n        /* \"#utility.yul\":12215:12217   */\n      0x60\n        /* \"#utility.yul\":12204:12213   */\n      dup3\n        /* \"#utility.yul\":12200:12218   */\n      add\n        /* \"#utility.yul\":12192:12218   */\n      swap1\n      pop\n        /* \"#utility.yul\":12228:12299   */\n      tag_309\n        /* \"#utility.yul\":12296:12297   */\n      0x00\n        /* \"#utility.yul\":12285:12294   */\n      dup4\n        /* \"#utility.yul\":12281:12298   */\n      add\n        /* \"#utility.yul\":12272:12278   */\n      dup7\n        /* \"#utility.yul\":12228:12299   */\n      tag_147\n      jump\t// in\n    tag_309:\n        /* \"#utility.yul\":12309:12389   */\n      tag_310\n        /* \"#utility.yul\":12385:12387   */\n      0x20\n        /* \"#utility.yul\":12374:12383   */\n      dup4\n        /* \"#utility.yul\":12370:12388   */\n      add\n        /* \"#utility.yul\":12361:12367   */\n      dup6\n        /* \"#utility.yul\":12309:12389   */\n      tag_153\n      jump\t// in\n    tag_310:\n        /* \"#utility.yul\":12399:12471   */\n      tag_311\n        /* \"#utility.yul\":12467:12469   */\n      0x40\n        /* \"#utility.yul\":12456:12465   */\n      dup4\n        /* \"#utility.yul\":12452:12470   */\n      add\n        /* \"#utility.yul\":12443:12449   */\n      dup5\n        /* \"#utility.yul\":12399:12471   */\n      tag_129\n      jump\t// in\n    tag_311:\n        /* \"#utility.yul\":12020:12478   */\n      swap5\n      swap4\n      pop\n      pop\n      pop\n      pop\n      jump\t// out\n        /* \"#utility.yul\":12484:12574   */\n    tag_154:\n        /* \"#utility.yul\":12518:12525   */\n      0x00\n        /* \"#utility.yul\":12561:12566   */\n      dup2\n        /* \"#utility.yul\":12554:12567   */\n      iszero\n        /* \"#utility.yul\":12547:12568   */\n      iszero\n        /* \"#utility.yul\":12536:12568   */\n      swap1\n      pop\n        /* \"#utility.yul\":12484:12574   */\n      swap2\n      swap1\n      pop\n      jump\t// out\n        /* \"#utility.yul\":12580:12696   */\n    tag_155:\n        /* \"#utility.yul\":12650:12671   */\n      tag_314\n        /* \"#utility.yul\":12665:12670   */\n      dup2\n        /* \"#utility.yul\":12650:12671   */\n      tag_154\n      jump\t// in\n    tag_314:\n        /* \"#utility.yul\":12643:12648   */\n      dup2\n        /* \"#utility.yul\":12640:12672   */\n      eq\n        /* \"#utility.yul\":12630:12690   */\n      tag_315\n      jumpi\n        /* \"#utility.yul\":12686:12687   */\n      0x00\n        /* \"#utility.yul\":12683:12684   */\n      dup1\n        /* \"#utility.yul\":12676:12688   */\n      revert\n        /* \"#utility.yul\":12630:12690   */\n    tag_315:\n        /* \"#utility.yul\":12580:12696   */\n      pop\n      jump\t// out\n        /* \"#utility.yul\":12702:12839   */\n    tag_156:\n        /* \"#utility.yul\":12756:12761   */\n      0x00\n        /* \"#utility.yul\":12787:12793   */\n      dup2\n        /* \"#utility.yul\":12781:12794   */\n      mload\n        /* \"#utility.yul\":12772:12794   */\n      swap1\n      pop\n        /* \"#utility.yul\":12803:12833   */\n      tag_317\n        /* \"#utility.yul\":12827:12832   */\n      dup2\n        /* \"#utility.yul\":12803:12833   */\n      tag_155\n      jump\t// in\n    tag_317:\n        /* \"#utility.yul\":12702:12839   */\n      swap3\n      swap2\n      pop\n      pop\n      jump\t// out\n        /* \"#utility.yul\":12845:13190   */\n    tag_67:\n        /* \"#utility.yul\":12912:12918   */\n      0x00\n        /* \"#utility.yul\":12961:12963   */\n      0x20\n        /* \"#utility.yul\":12949:12958   */\n      dup3\n        /* \"#utility.yul\":12940:12947   */\n      dup5\n        /* \"#utility.yul\":12936:12959   */\n      sub\n        /* \"#utility.yul\":12932:12964   */\n      slt\n        /* \"#utility.yul\":12929:13048   */\n      iszero\n      tag_319\n      jumpi\n        /* \"#utility.yul\":12967:13046   */\n      tag_320\n      tag_116\n      jump\t// in\n    tag_320:\n        /* \"#utility.yul\":12929:13048   */\n    tag_319:\n        /* \"#utility.yul\":13087:13088   */\n      0x00\n        /* \"#utility.yul\":13112:13173   */\n      tag_321\n        /* \"#utility.yul\":13165:13172   */\n      dup5\n        /* \"#utility.yul\":13156:13162   */\n      dup3\n        /* \"#utility.yul\":13145:13154   */\n      dup6\n        /* \"#utility.yul\":13141:13163   */\n      add\n        /* \"#utility.yul\":13112:13173   */\n      tag_156\n      jump\t// in\n    tag_321:\n        /* \"#utility.yul\":13102:13173   */\n      swap2\n      pop\n        /* \"#utility.yul\":13058:13183   */\n      pop\n        /* \"#utility.yul\":12845:13190   */\n      swap3\n      swap2\n      pop\n      pop\n      jump\t// out\n        /* \"#utility.yul\":13196:13573   */\n    tag_157:\n        /* \"#utility.yul\":13284:13287   */\n      0x00\n        /* \"#utility.yul\":13312:13351   */\n      tag_323\n        /* \"#utility.yul\":13345:13350   */\n      dup3\n        /* \"#utility.yul\":13312:13351   */\n      tag_137\n      jump\t// in\n    tag_323:\n        /* \"#utility.yul\":13367:13438   */\n      tag_324\n        /* \"#utility.yul\":13431:13437   */\n      dup2\n        /* \"#utility.yul\":13426:13429   */\n      dup6\n        /* \"#utility.yul\":13367:13438   */\n      tag_141\n      jump\t// in\n    tag_324:\n        /* \"#utility.yul\":13360:13438   */\n      swap4\n      pop\n        /* \"#utility.yul\":13447:13512   */\n      tag_325\n        /* \"#utility.yul\":13505:13511   */\n      dup2\n        /* \"#utility.yul\":13500:13503   */\n      dup6\n        /* \"#utility.yul\":13493:13497   */\n      0x20\n        /* \"#utility.yul\":13486:13491   */\n      dup7\n        /* \"#utility.yul\":13482:13498   */\n      add\n        /* \"#utility.yul\":13447:13512   */\n      tag_139\n      jump\t// in\n    tag_325:\n        /* \"#utility.yul\":13537:13566   */\n      tag_326\n        /* \"#utility.yul\":13559:13565   */\n      dup2\n        /* \"#utility.yul\":13537:13566   */\n      tag_120\n      jump\t// in\n    tag_326:\n        /* \"#utility.yul\":13532:13535   */\n      dup5\n        /* \"#utility.yul\":13528:13567   */\n      add\n        /* \"#utility.yul\":13521:13567   */\n      swap2\n      pop\n        /* \"#utility.yul\":13288:13573   */\n      pop\n        /* \"#utility.yul\":13196:13573   */\n      swap3\n      swap2\n      pop\n      pop\n      jump\t// out\n        /* \"#utility.yul\":13579:13892   */\n    tag_69:\n        /* \"#utility.yul\":13692:13696   */\n      0x00\n        /* \"#utility.yul\":13730:13732   */\n      0x20\n        /* \"#utility.yul\":13719:13728   */\n      dup3\n        /* \"#utility.yul\":13715:13733   */\n      add\n        /* \"#utility.yul\":13707:13733   */\n      swap1\n      pop\n        /* \"#utility.yul\":13779:13788   */\n      dup2\n        /* \"#utility.yul\":13773:13777   */\n      dup2\n        /* \"#utility.yul\":13769:13789   */\n      sub\n        /* \"#utility.yul\":13765:13766   */\n      0x00\n        /* \"#utility.yul\":13754:13763   */\n      dup4\n        /* \"#utility.yul\":13750:13767   */\n      add\n        /* \"#utility.yul\":13743:13790   */\n      mstore\n        /* \"#utility.yul\":13807:13885   */\n      tag_328\n        /* \"#utility.yul\":13880:13884   */\n      dup2\n        /* \"#utility.yul\":13871:13877   */\n      dup5\n        /* \"#utility.yul\":13807:13885   */\n      tag_157\n      jump\t// in\n    tag_328:\n        /* \"#utility.yul\":13799:13885   */\n      swap1\n      pop\n        /* \"#utility.yul\":13579:13892   */\n      swap3\n      swap2\n      pop\n      pop\n      jump\t// out\n        /* \"#utility.yul\":13898:14070   */\n    tag_158:\n        /* \"#utility.yul\":14038:14062   */\n      0x4e6f20636172732061726520617661696c61626c652e00000000000000000000\n        /* \"#utility.yul\":14034:14035   */\n      0x00\n        /* \"#utility.yul\":14026:14032   */\n      dup3\n        /* \"#utility.yul\":14022:14036   */\n      add\n        /* \"#utility.yul\":14015:14063   */\n      mstore\n        /* \"#utility.yul\":13898:14070   */\n      pop\n      jump\t// out\n        /* \"#utility.yul\":14076:14442   */\n    tag_159:\n        /* \"#utility.yul\":14218:14221   */\n      0x00\n        /* \"#utility.yul\":14239:14306   */\n      tag_331\n        /* \"#utility.yul\":14303:14305   */\n      0x16\n        /* \"#utility.yul\":14298:14301   */\n      dup4\n        /* \"#utility.yul\":14239:14306   */\n      tag_141\n      jump\t// in\n    tag_331:\n        /* \"#utility.yul\":14232:14306   */\n      swap2\n      pop\n        /* \"#utility.yul\":14315:14408   */\n      tag_332\n        /* \"#utility.yul\":14404:14407   */\n      dup3\n        /* \"#utility.yul\":14315:14408   */\n      tag_158\n      jump\t// in\n    tag_332:\n        /* \"#utility.yul\":14433:14435   */\n      0x20\n        /* \"#utility.yul\":14428:14431   */\n      dup3\n        /* \"#utility.yul\":14424:14436   */\n      add\n        /* \"#utility.yul\":14417:14436   */\n      swap1\n      pop\n        /* \"#utility.yul\":14076:14442   */\n      swap2\n      swap1\n      pop\n      jump\t// out\n        /* \"#utility.yul\":14448:14867   */\n    tag_73:\n        /* \"#utility.yul\":14614:14618   */\n      0x00\n        /* \"#utility.yul\":14652:14654   */\n      0x20\n        /* \"#utility.yul\":14641:14650   */\n      dup3\n        /* \"#utility.yul\":14637:14655   */\n      add\n        /* \"#utility.yul\":14629:14655   */\n      swap1\n      pop\n        /* \"#utility.yul\":14701:14710   */\n      dup2\n        /* \"#utility.yul\":14695:14699   */\n      dup2\n        /* \"#utility.yul\":14691:14711   */\n      sub\n        /* \"#utility.yul\":14687:14688   */\n      0x00\n        /* \"#utility.yul\":14676:14685   */\n      dup4\n        /* \"#utility.yul\":14672:14689   */\n      add\n        /* \"#utility.yul\":14665:14712   */\n      mstore\n        /* \"#utility.yul\":14729:14860   */\n      tag_334\n        /* \"#utility.yul\":14855:14859   */\n      dup2\n        /* \"#utility.yul\":14729:14860   */\n      tag_159\n      jump\t// in\n    tag_334:\n        /* \"#utility.yul\":14721:14860   */\n      swap1\n      pop\n        /* \"#utility.yul\":14448:14867   */\n      swap2\n      swap1\n      pop\n      jump\t// out\n        /* \"#utility.yul\":14873:15053   */\n    tag_79:\n        /* \"#utility.yul\":14921:14998   */\n      0x4e487b7100000000000000000000000000000000000000000000000000000000\n        /* \"#utility.yul\":14918:14919   */\n      0x00\n        /* \"#utility.yul\":14911:14999   */\n      mstore\n        /* \"#utility.yul\":15018:15022   */\n      0x32\n        /* \"#utility.yul\":15015:15016   */\n      0x04\n        /* \"#utility.yul\":15008:15023   */\n      mstore\n        /* \"#utility.yul\":15042:15046   */\n      0x24\n        /* \"#utility.yul\":15039:15040   */\n      0x00\n        /* \"#utility.yul\":15032:15047   */\n      revert\n        /* \"#utility.yul\":15059:15239   */\n    tag_160:\n        /* \"#utility.yul\":15107:15184   */\n      0x4e487b7100000000000000000000000000000000000000000000000000000000\n        /* \"#utility.yul\":15104:15105   */\n      0x00\n        /* \"#utility.yul\":15097:15185   */\n      mstore\n        /* \"#utility.yul\":15204:15208   */\n      0x22\n        /* \"#utility.yul\":15201:15202   */\n      0x04\n        /* \"#utility.yul\":15194:15209   */\n      mstore\n        /* \"#utility.yul\":15228:15232   */\n      0x24\n        /* \"#utility.yul\":15225:15226   */\n      0x00\n        /* \"#utility.yul\":15218:15233   */\n      revert\n        /* \"#utility.yul\":15245:15565   */\n    tag_161:\n        /* \"#utility.yul\":15289:15295   */\n      0x00\n        /* \"#utility.yul\":15326:15327   */\n      0x02\n        /* \"#utility.yul\":15320:15324   */\n      dup3\n        /* \"#utility.yul\":15316:15328   */\n      div\n        /* \"#utility.yul\":15306:15328   */\n      swap1\n      pop\n        /* \"#utility.yul\":15373:15374   */\n      0x01\n        /* \"#utility.yul\":15367:15371   */\n      dup3\n        /* \"#utility.yul\":15363:15375   */\n      and\n        /* \"#utility.yul\":15394:15412   */\n      dup1\n        /* \"#utility.yul\":15384:15465   */\n      tag_338\n      jumpi\n        /* \"#utility.yul\":15450:15454   */\n      0x7f\n        /* \"#utility.yul\":15442:15448   */\n      dup3\n        /* \"#utility.yul\":15438:15455   */\n      and\n        /* \"#utility.yul\":15428:15455   */\n      swap2\n      pop\n        /* \"#utility.yul\":15384:15465   */\n    tag_338:\n        /* \"#utility.yul\":15512:15514   */\n      0x20\n        /* \"#utility.yul\":15504:15510   */\n      dup3\n        /* \"#utility.yul\":15501:15515   */\n      lt\n        /* \"#utility.yul\":15481:15499   */\n      dup2\n        /* \"#utility.yul\":15478:15516   */\n      sub\n        /* \"#utility.yul\":15475:15559   */\n      tag_339\n      jumpi\n        /* \"#utility.yul\":15531:15549   */\n      tag_340\n      tag_160\n      jump\t// in\n    tag_340:\n        /* \"#utility.yul\":15475:15559   */\n    tag_339:\n        /* \"#utility.yul\":15296:15565   */\n      pop\n        /* \"#utility.yul\":15245:15565   */\n      swap2\n      swap1\n      pop\n      jump\t// out\n        /* \"#utility.yul\":15571:15712   */\n    tag_162:\n        /* \"#utility.yul\":15620:15624   */\n      0x00\n        /* \"#utility.yul\":15643:15646   */\n      dup2\n        /* \"#utility.yul\":15635:15646   */\n      swap1\n      pop\n        /* \"#utility.yul\":15666:15669   */\n      dup2\n        /* \"#utility.yul\":15663:15664   */\n      0x00\n        /* \"#utility.yul\":15656:15670   */\n      mstore\n        /* \"#utility.yul\":15700:15704   */\n      0x20\n        /* \"#utility.yul\":15697:15698   */\n      0x00\n        /* \"#utility.yul\":15687:15705   */\n      keccak256\n        /* \"#utility.yul\":15679:15705   */\n      swap1\n      pop\n        /* \"#utility.yul\":15571:15712   */\n      swap2\n      swap1\n      pop\n      jump\t// out\n        /* \"#utility.yul\":15742:16616   */\n    tag_163:\n        /* \"#utility.yul\":15845:15848   */\n      0x00\n        /* \"#utility.yul\":15882:15887   */\n      dup2\n        /* \"#utility.yul\":15876:15888   */\n      sload\n        /* \"#utility.yul\":15911:15947   */\n      tag_343\n        /* \"#utility.yul\":15937:15946   */\n      dup2\n        /* \"#utility.yul\":15911:15947   */\n      tag_161\n      jump\t// in\n    tag_343:\n        /* \"#utility.yul\":15963:16052   */\n      tag_344\n        /* \"#utility.yul\":16045:16051   */\n      dup2\n        /* \"#utility.yul\":16040:16043   */\n      dup7\n        /* \"#utility.yul\":15963:16052   */\n      tag_138\n      jump\t// in\n    tag_344:\n        /* \"#utility.yul\":15956:16052   */\n      swap5\n      pop\n        /* \"#utility.yul\":16083:16084   */\n      0x01\n        /* \"#utility.yul\":16072:16081   */\n      dup3\n        /* \"#utility.yul\":16068:16085   */\n      and\n        /* \"#utility.yul\":16099:16100   */\n      0x00\n        /* \"#utility.yul\":16094:16260   */\n      dup2\n      eq\n      tag_346\n      jumpi\n        /* \"#utility.yul\":16274:16275   */\n      0x01\n        /* \"#utility.yul\":16269:16610   */\n      dup2\n      eq\n      tag_347\n      jumpi\n        /* \"#utility.yul\":16061:16610   */\n      jump(tag_345)\n        /* \"#utility.yul\":16094:16260   */\n    tag_346:\n        /* \"#utility.yul\":16178:16182   */\n      0xff\n        /* \"#utility.yul\":16174:16183   */\n      not\n        /* \"#utility.yul\":16163:16172   */\n      dup4\n        /* \"#utility.yul\":16159:16184   */\n      and\n        /* \"#utility.yul\":16154:16157   */\n      dup7\n        /* \"#utility.yul\":16147:16185   */\n      mstore\n        /* \"#utility.yul\":16240:16246   */\n      dup2\n        /* \"#utility.yul\":16233:16247   */\n      iszero\n        /* \"#utility.yul\":16226:16248   */\n      iszero\n        /* \"#utility.yul\":16218:16224   */\n      dup3\n        /* \"#utility.yul\":16214:16249   */\n      mul\n        /* \"#utility.yul\":16209:16212   */\n      dup7\n        /* \"#utility.yul\":16205:16250   */\n      add\n        /* \"#utility.yul\":16198:16250   */\n      swap4\n      pop\n        /* \"#utility.yul\":16094:16260   */\n      jump(tag_345)\n        /* \"#utility.yul\":16269:16610   */\n    tag_347:\n        /* \"#utility.yul\":16336:16374   */\n      tag_348\n        /* \"#utility.yul\":16368:16373   */\n      dup6\n        /* \"#utility.yul\":16336:16374   */\n      tag_162\n      jump\t// in\n    tag_348:\n        /* \"#utility.yul\":16396:16397   */\n      0x00\n        /* \"#utility.yul\":16410:16564   */\n    tag_349:\n        /* \"#utility.yul\":16424:16430   */\n      dup4\n        /* \"#utility.yul\":16421:16422   */\n      dup2\n        /* \"#utility.yul\":16418:16431   */\n      lt\n        /* \"#utility.yul\":16410:16564   */\n      iszero\n      tag_351\n      jumpi\n        /* \"#utility.yul\":16498:16505   */\n      dup2\n        /* \"#utility.yul\":16492:16506   */\n      sload\n        /* \"#utility.yul\":16488:16489   */\n      dup2\n        /* \"#utility.yul\":16483:16486   */\n      dup10\n        /* \"#utility.yul\":16479:16490   */\n      add\n        /* \"#utility.yul\":16472:16507   */\n      mstore\n        /* \"#utility.yul\":16548:16549   */\n      0x01\n        /* \"#utility.yul\":16539:16546   */\n      dup3\n        /* \"#utility.yul\":16535:16550   */\n      add\n        /* \"#utility.yul\":16524:16550   */\n      swap2\n      pop\n        /* \"#utility.yul\":16446:16450   */\n      0x20\n        /* \"#utility.yul\":16443:16444   */\n      dup2\n        /* \"#utility.yul\":16439:16451   */\n      add\n        /* \"#utility.yul\":16434:16451   */\n      swap1\n      pop\n        /* \"#utility.yul\":16410:16564   */\n      jump(tag_349)\n    tag_351:\n        /* \"#utility.yul\":16593:16599   */\n      dup4\n        /* \"#utility.yul\":16588:16591   */\n      dup9\n        /* \"#utility.yul\":16584:16600   */\n      add\n        /* \"#utility.yul\":16577:16600   */\n      swap6\n      pop\n        /* \"#utility.yul\":16276:16610   */\n      pop\n      pop\n        /* \"#utility.yul\":16061:16610   */\n    tag_345:\n      pop\n        /* \"#utility.yul\":15849:16616   */\n      pop\n      pop\n        /* \"#utility.yul\":15742:16616   */\n      swap3\n      swap2\n      pop\n      pop\n      jump\t// out\n        /* \"#utility.yul\":16622:16891   */\n    tag_82:\n        /* \"#utility.yul\":16751:16754   */\n      0x00\n        /* \"#utility.yul\":16773:16865   */\n      tag_353\n        /* \"#utility.yul\":16861:16864   */\n      dup3\n        /* \"#utility.yul\":16852:16858   */\n      dup5\n        /* \"#utility.yul\":16773:16865   */\n      tag_163\n      jump\t// in\n    tag_353:\n        /* \"#utility.yul\":16766:16865   */\n      swap2\n      pop\n        /* \"#utility.yul\":16882:16885   */\n      dup2\n        /* \"#utility.yul\":16875:16885   */\n      swap1\n      pop\n        /* \"#utility.yul\":16622:16891   */\n      swap3\n      swap2\n      pop\n      pop\n      jump\t// out\n        /* \"#utility.yul\":16921:17752   */\n    tag_164:\n        /* \"#utility.yul\":17006:17009   */\n      0x00\n        /* \"#utility.yul\":17043:17048   */\n      dup2\n        /* \"#utility.yul\":17037:17049   */\n      sload\n        /* \"#utility.yul\":17072:17108   */\n      tag_355\n        /* \"#utility.yul\":17098:17107   */\n      dup2\n        /* \"#utility.yul\":17072:17108   */\n      tag_161\n      jump\t// in\n    tag_355:\n        /* \"#utility.yul\":17124:17195   */\n      tag_356\n        /* \"#utility.yul\":17188:17194   */\n      dup2\n        /* \"#utility.yul\":17183:17186   */\n      dup7\n        /* \"#utility.yul\":17124:17195   */\n      tag_141\n      jump\t// in\n    tag_356:\n        /* \"#utility.yul\":17117:17195   */\n      swap5\n      pop\n        /* \"#utility.yul\":17226:17227   */\n      0x01\n        /* \"#utility.yul\":17215:17224   */\n      dup3\n        /* \"#utility.yul\":17211:17228   */\n      and\n        /* \"#utility.yul\":17242:17243   */\n      0x00\n        /* \"#utility.yul\":17237:17401   */\n      dup2\n      eq\n      tag_358\n      jumpi\n        /* \"#utility.yul\":17415:17416   */\n      0x01\n        /* \"#utility.yul\":17410:17746   */\n      dup2\n      eq\n      tag_359\n      jumpi\n        /* \"#utility.yul\":17204:17746   */\n      jump(tag_357)\n        /* \"#utility.yul\":17237:17401   */\n    tag_358:\n        /* \"#utility.yul\":17321:17325   */\n      0xff\n        /* \"#utility.yul\":17317:17326   */\n      not\n        /* \"#utility.yul\":17306:17315   */\n      dup4\n        /* \"#utility.yul\":17302:17327   */\n      and\n        /* \"#utility.yul\":17297:17300   */\n      dup7\n        /* \"#utility.yul\":17290:17328   */\n      mstore\n        /* \"#utility.yul\":17381:17387   */\n      dup2\n        /* \"#utility.yul\":17374:17388   */\n      iszero\n        /* \"#utility.yul\":17367:17389   */\n      iszero\n        /* \"#utility.yul\":17361:17365   */\n      0x20\n        /* \"#utility.yul\":17357:17390   */\n      mul\n        /* \"#utility.yul\":17352:17355   */\n      dup7\n        /* \"#utility.yul\":17348:17391   */\n      add\n        /* \"#utility.yul\":17341:17391   */\n      swap4\n      pop\n        /* \"#utility.yul\":17237:17401   */\n      jump(tag_357)\n        /* \"#utility.yul\":17410:17746   */\n    tag_359:\n        /* \"#utility.yul\":17477:17515   */\n      tag_360\n        /* \"#utility.yul\":17509:17514   */\n      dup6\n        /* \"#utility.yul\":17477:17515   */\n      tag_162\n      jump\t// in\n    tag_360:\n        /* \"#utility.yul\":17537:17538   */\n      0x00\n        /* \"#utility.yul\":17551:17705   */\n    tag_361:\n        /* \"#utility.yul\":17565:17571   */\n      dup4\n        /* \"#utility.yul\":17562:17563   */\n      dup2\n        /* \"#utility.yul\":17559:17572   */\n      lt\n        /* \"#utility.yul\":17551:17705   */\n      iszero\n      tag_363\n      jumpi\n        /* \"#utility.yul\":17639:17646   */\n      dup2\n        /* \"#utility.yul\":17633:17647   */\n      sload\n        /* \"#utility.yul\":17629:17630   */\n      dup2\n        /* \"#utility.yul\":17624:17627   */\n      dup10\n        /* \"#utility.yul\":17620:17631   */\n      add\n        /* \"#utility.yul\":17613:17648   */\n      mstore\n        /* \"#utility.yul\":17689:17690   */\n      0x01\n        /* \"#utility.yul\":17680:17687   */\n      dup3\n        /* \"#utility.yul\":17676:17691   */\n      add\n        /* \"#utility.yul\":17665:17691   */\n      swap2\n      pop\n        /* \"#utility.yul\":17587:17591   */\n      0x20\n        /* \"#utility.yul\":17584:17585   */\n      dup2\n        /* \"#utility.yul\":17580:17592   */\n      add\n        /* \"#utility.yul\":17575:17592   */\n      swap1\n      pop\n        /* \"#utility.yul\":17551:17705   */\n      jump(tag_361)\n    tag_363:\n        /* \"#utility.yul\":17734:17735   */\n      dup1\n        /* \"#utility.yul\":17729:17732   */\n      dup9\n        /* \"#utility.yul\":17725:17736   */\n      add\n        /* \"#utility.yul\":17718:17736   */\n      swap6\n      pop\n        /* \"#utility.yul\":17417:17746   */\n      pop\n      pop\n        /* \"#utility.yul\":17204:17746   */\n    tag_357:\n      pop\n        /* \"#utility.yul\":17010:17752   */\n      pop\n      pop\n        /* \"#utility.yul\":16921:17752   */\n      swap3\n      swap2\n      pop\n      pop\n      jump\t// out\n        /* \"#utility.yul\":17758:17867   */\n    tag_165:\n        /* \"#utility.yul\":17839:17860   */\n      tag_365\n        /* \"#utility.yul\":17854:17859   */\n      dup2\n        /* \"#utility.yul\":17839:17860   */\n      tag_154\n      jump\t// in\n    tag_365:\n        /* \"#utility.yul\":17834:17837   */\n      dup3\n        /* \"#utility.yul\":17827:17861   */\n      mstore\n        /* \"#utility.yul\":17758:17867   */\n      pop\n      pop\n      jump\t// out\n        /* \"#utility.yul\":17873:18709   */\n    tag_84:\n        /* \"#utility.yul\":18111:18115   */\n      0x00\n        /* \"#utility.yul\":18149:18152   */\n      0xc0\n        /* \"#utility.yul\":18138:18147   */\n      dup3\n        /* \"#utility.yul\":18134:18153   */\n      add\n        /* \"#utility.yul\":18126:18153   */\n      swap1\n      pop\n        /* \"#utility.yul\":18199:18208   */\n      dup2\n        /* \"#utility.yul\":18193:18197   */\n      dup2\n        /* \"#utility.yul\":18189:18209   */\n      sub\n        /* \"#utility.yul\":18185:18186   */\n      0x00\n        /* \"#utility.yul\":18174:18183   */\n      dup4\n        /* \"#utility.yul\":18170:18187   */\n      add\n        /* \"#utility.yul\":18163:18210   */\n      mstore\n        /* \"#utility.yul\":18227:18302   */\n      tag_367\n        /* \"#utility.yul\":18297:18301   */\n      dup2\n        /* \"#utility.yul\":18288:18294   */\n      dup10\n        /* \"#utility.yul\":18227:18302   */\n      tag_164\n      jump\t// in\n    tag_367:\n        /* \"#utility.yul\":18219:18302   */\n      swap1\n      pop\n        /* \"#utility.yul\":18312:18378   */\n      tag_368\n        /* \"#utility.yul\":18374:18376   */\n      0x20\n        /* \"#utility.yul\":18363:18372   */\n      dup4\n        /* \"#utility.yul\":18359:18377   */\n      add\n        /* \"#utility.yul\":18350:18356   */\n      dup9\n        /* \"#utility.yul\":18312:18378   */\n      tag_165\n      jump\t// in\n    tag_368:\n        /* \"#utility.yul\":18388:18454   */\n      tag_369\n        /* \"#utility.yul\":18450:18452   */\n      0x40\n        /* \"#utility.yul\":18439:18448   */\n      dup4\n        /* \"#utility.yul\":18435:18453   */\n      add\n        /* \"#utility.yul\":18426:18432   */\n      dup8\n        /* \"#utility.yul\":18388:18454   */\n      tag_165\n      jump\t// in\n    tag_369:\n        /* \"#utility.yul\":18464:18536   */\n      tag_370\n        /* \"#utility.yul\":18532:18534   */\n      0x60\n        /* \"#utility.yul\":18521:18530   */\n      dup4\n        /* \"#utility.yul\":18517:18535   */\n      add\n        /* \"#utility.yul\":18508:18514   */\n      dup7\n        /* \"#utility.yul\":18464:18536   */\n      tag_129\n      jump\t// in\n    tag_370:\n        /* \"#utility.yul\":18546:18619   */\n      tag_371\n        /* \"#utility.yul\":18614:18617   */\n      0x80\n        /* \"#utility.yul\":18603:18612   */\n      dup4\n        /* \"#utility.yul\":18599:18618   */\n      add\n        /* \"#utility.yul\":18590:18596   */\n      dup6\n        /* \"#utility.yul\":18546:18619   */\n      tag_129\n      jump\t// in\n    tag_371:\n        /* \"#utility.yul\":18629:18702   */\n      tag_372\n        /* \"#utility.yul\":18697:18700   */\n      0xa0\n        /* \"#utility.yul\":18686:18695   */\n      dup4\n        /* \"#utility.yul\":18682:18701   */\n      add\n        /* \"#utility.yul\":18673:18679   */\n      dup5\n        /* \"#utility.yul\":18629:18702   */\n      tag_147\n      jump\t// in\n    tag_372:\n        /* \"#utility.yul\":17873:18709   */\n      swap8\n      swap7\n      pop\n      pop\n      pop\n      pop\n      pop\n      pop\n      pop\n      jump\t// out\n        /* \"#utility.yul\":18715:18940   */\n    tag_166:\n        /* \"#utility.yul\":18855:18889   */\n      0x4f6e6c7920746865206361722072656e74616c206f776e65722063616e20646f\n        /* \"#utility.yul\":18851:18852   */\n      0x00\n        /* \"#utility.yul\":18843:18849   */\n      dup3\n        /* \"#utility.yul\":18839:18853   */\n      add\n        /* \"#utility.yul\":18832:18890   */\n      mstore\n        /* \"#utility.yul\":18924:18932   */\n      0x20746869732e0000000000000000000000000000000000000000000000000000\n        /* \"#utility.yul\":18919:18921   */\n      0x20\n        /* \"#utility.yul\":18911:18917   */\n      dup3\n        /* \"#utility.yul\":18907:18922   */\n      add\n        /* \"#utility.yul\":18900:18933   */\n      mstore\n        /* \"#utility.yul\":18715:18940   */\n      pop\n      jump\t// out\n        /* \"#utility.yul\":18946:19312   */\n    tag_167:\n        /* \"#utility.yul\":19088:19091   */\n      0x00\n        /* \"#utility.yul\":19109:19176   */\n      tag_375\n        /* \"#utility.yul\":19173:19175   */\n      0x26\n        /* \"#utility.yul\":19168:19171   */\n      dup4\n        /* \"#utility.yul\":19109:19176   */\n      tag_141\n      jump\t// in\n    tag_375:\n        /* \"#utility.yul\":19102:19176   */\n      swap2\n      pop\n        /* \"#utility.yul\":19185:19278   */\n      tag_376\n        /* \"#utility.yul\":19274:19277   */\n      dup3\n        /* \"#utility.yul\":19185:19278   */\n      tag_166\n      jump\t// in\n    tag_376:\n        /* \"#utility.yul\":19303:19305   */\n      0x40\n        /* \"#utility.yul\":19298:19301   */\n      dup3\n        /* \"#utility.yul\":19294:19306   */\n      add\n        /* \"#utility.yul\":19287:19306   */\n      swap1\n      pop\n        /* \"#utility.yul\":18946:19312   */\n      swap2\n      swap1\n      pop\n      jump\t// out\n        /* \"#utility.yul\":19318:19737   */\n    tag_88:\n        /* \"#utility.yul\":19484:19488   */\n      0x00\n        /* \"#utility.yul\":19522:19524   */\n      0x20\n        /* \"#utility.yul\":19511:19520   */\n      dup3\n        /* \"#utility.yul\":19507:19525   */\n      add\n        /* \"#utility.yul\":19499:19525   */\n      swap1\n      pop\n        /* \"#utility.yul\":19571:19580   */\n      dup2\n        /* \"#utility.yul\":19565:19569   */\n      dup2\n        /* \"#utility.yul\":19561:19581   */\n      sub\n        /* \"#utility.yul\":19557:19558   */\n      0x00\n        /* \"#utility.yul\":19546:19555   */\n      dup4\n        /* \"#utility.yul\":19542:19559   */\n      add\n        /* \"#utility.yul\":19535:19582   */\n      mstore\n        /* \"#utility.yul\":19599:19730   */\n      tag_378\n        /* \"#utility.yul\":19725:19729   */\n      dup2\n        /* \"#utility.yul\":19599:19730   */\n      tag_167\n      jump\t// in\n    tag_378:\n        /* \"#utility.yul\":19591:19730   */\n      swap1\n      pop\n        /* \"#utility.yul\":19318:19737   */\n      swap2\n      swap1\n      pop\n      jump\t// out\n        /* \"#utility.yul\":19743:19964   */\n    tag_168:\n        /* \"#utility.yul\":19883:19917   */\n      0x436172206d75737420686176652061206465706f73697420616e642070726963\n        /* \"#utility.yul\":19879:19880   */\n      0x00\n        /* \"#utility.yul\":19871:19877   */\n      dup3\n        /* \"#utility.yul\":19867:19881   */\n      add\n        /* \"#utility.yul\":19860:19918   */\n      mstore\n        /* \"#utility.yul\":19952:19956   */\n      0x652e000000000000000000000000000000000000000000000000000000000000\n        /* \"#utility.yul\":19947:19949   */\n      0x20\n        /* \"#utility.yul\":19939:19945   */\n      dup3\n        /* \"#utility.yul\":19935:19950   */\n      add\n        /* \"#utility.yul\":19928:19957   */\n      mstore\n        /* \"#utility.yul\":19743:19964   */\n      pop\n      jump\t// out\n        /* \"#utility.yul\":19970:20336   */\n    tag_169:\n        /* \"#utility.yul\":20112:20115   */\n      0x00\n        /* \"#utility.yul\":20133:20200   */\n      tag_381\n        /* \"#utility.yul\":20197:20199   */\n      0x22\n        /* \"#utility.yul\":20192:20195   */\n      dup4\n        /* \"#utility.yul\":20133:20200   */\n      tag_141\n      jump\t// in\n    tag_381:\n        /* \"#utility.yul\":20126:20200   */\n      swap2\n      pop\n        /* \"#utility.yul\":20209:20302   */\n      tag_382\n        /* \"#utility.yul\":20298:20301   */\n      dup3\n        /* \"#utility.yul\":20209:20302   */\n      tag_168\n      jump\t// in\n    tag_382:\n        /* \"#utility.yul\":20327:20329   */\n      0x40\n        /* \"#utility.yul\":20322:20325   */\n      dup3\n        /* \"#utility.yul\":20318:20330   */\n      add\n        /* \"#utility.yul\":20311:20330   */\n      swap1\n      pop\n        /* \"#utility.yul\":19970:20336   */\n      swap2\n      swap1\n      pop\n      jump\t// out\n        /* \"#utility.yul\":20342:20761   */\n    tag_93:\n        /* \"#utility.yul\":20508:20512   */\n      0x00\n        /* \"#utility.yul\":20546:20548   */\n      0x20\n        /* \"#utility.yul\":20535:20544   */\n      dup3\n        /* \"#utility.yul\":20531:20549   */\n      add\n        /* \"#utility.yul\":20523:20549   */\n      swap1\n      pop\n        /* \"#utility.yul\":20595:20604   */\n      dup2\n        /* \"#utility.yul\":20589:20593   */\n      dup2\n        /* \"#utility.yul\":20585:20605   */\n      sub\n        /* \"#utility.yul\":20581:20582   */\n      0x00\n        /* \"#utility.yul\":20570:20579   */\n      dup4\n        /* \"#utility.yul\":20566:20583   */\n      add\n        /* \"#utility.yul\":20559:20606   */\n      mstore\n        /* \"#utility.yul\":20623:20754   */\n      tag_384\n        /* \"#utility.yul\":20749:20753   */\n      dup2\n        /* \"#utility.yul\":20623:20754   */\n      tag_169\n      jump\t// in\n    tag_384:\n        /* \"#utility.yul\":20615:20754   */\n      swap1\n      pop\n        /* \"#utility.yul\":20342:20761   */\n      swap2\n      swap1\n      pop\n      jump\t// out\n        /* \"#utility.yul\":20767:20860   */\n    tag_170:\n        /* \"#utility.yul\":20804:20810   */\n      0x00\n        /* \"#utility.yul\":20851:20853   */\n      0x20\n        /* \"#utility.yul\":20846:20848   */\n      0x1f\n        /* \"#utility.yul\":20839:20844   */\n      dup4\n        /* \"#utility.yul\":20835:20849   */\n      add\n        /* \"#utility.yul\":20831:20854   */\n      div\n        /* \"#utility.yul\":20821:20854   */\n      swap1\n      pop\n        /* \"#utility.yul\":20767:20860   */\n      swap2\n      swap1\n      pop\n      jump\t// out\n        /* \"#utility.yul\":20866:20973   */\n    tag_171:\n        /* \"#utility.yul\":20910:20918   */\n      0x00\n        /* \"#utility.yul\":20960:20965   */\n      dup3\n        /* \"#utility.yul\":20954:20958   */\n      dup3\n        /* \"#utility.yul\":20950:20966   */\n      shl\n        /* \"#utility.yul\":20929:20966   */\n      swap1\n      pop\n        /* \"#utility.yul\":20866:20973   */\n      swap3\n      swap2\n      pop\n      pop\n      jump\t// out\n        /* \"#utility.yul\":20979:21372   */\n    tag_172:\n        /* \"#utility.yul\":21048:21054   */\n      0x00\n        /* \"#utility.yul\":21098:21099   */\n      0x08\n        /* \"#utility.yul\":21086:21096   */\n      dup4\n        /* \"#utility.yul\":21082:21100   */\n      mul\n        /* \"#utility.yul\":21121:21218   */\n      tag_388\n        /* \"#utility.yul\":21151:21217   */\n      0xffffffffffffffffffffffffffffffffffffffffffffffffffffffffffffffff\n        /* \"#utility.yul\":21140:21149   */\n      dup3\n        /* \"#utility.yul\":21121:21218   */\n      tag_171\n      jump\t// in\n    tag_388:\n        /* \"#utility.yul\":21239:21278   */\n      tag_389\n        /* \"#utility.yul\":21269:21277   */\n      dup7\n        /* \"#utility.yul\":21258:21267   */\n      dup4\n        /* \"#utility.yul\":21239:21278   */\n      tag_171\n      jump\t// in\n    tag_389:\n        /* \"#utility.yul\":21227:21278   */\n      swap6\n      pop\n        /* \"#utility.yul\":21311:21315   */\n      dup1\n        /* \"#utility.yul\":21307:21316   */\n      not\n        /* \"#utility.yul\":21300:21305   */\n      dup5\n        /* \"#utility.yul\":21296:21317   */\n      and\n        /* \"#utility.yul\":21287:21317   */\n      swap4\n      pop\n        /* \"#utility.yul\":21360:21364   */\n      dup1\n        /* \"#utility.yul\":21350:21358   */\n      dup7\n        /* \"#utility.yul\":21346:21365   */\n      and\n        /* \"#utility.yul\":21339:21344   */\n      dup5\n        /* \"#utility.yul\":21336:21366   */\n      or\n        /* \"#utility.yul\":21326:21366   */\n      swap3\n      pop\n        /* \"#utility.yul\":21055:21372   */\n      pop\n      pop\n        /* \"#utility.yul\":20979:21372   */\n      swap4\n      swap3\n      pop\n      pop\n      pop\n      jump\t// out\n        /* \"#utility.yul\":21378:21520   */\n    tag_173:\n        /* \"#utility.yul\":21428:21437   */\n      0x00\n        /* \"#utility.yul\":21461:21514   */\n      tag_391\n        /* \"#utility.yul\":21479:21513   */\n      tag_392\n        /* \"#utility.yul\":21488:21512   */\n      tag_393\n        /* \"#utility.yul\":21506:21511   */\n      dup5\n        /* \"#utility.yul\":21488:21512   */\n      tag_128\n      jump\t// in\n    tag_393:\n        /* \"#utility.yul\":21479:21513   */\n      tag_132\n      jump\t// in\n    tag_392:\n        /* \"#utility.yul\":21461:21514   */\n      tag_128\n      jump\t// in\n    tag_391:\n        /* \"#utility.yul\":21448:21514   */\n      swap1\n      pop\n        /* \"#utility.yul\":21378:21520   */\n      swap2\n      swap1\n      pop\n      jump\t// out\n        /* \"#utility.yul\":21526:21601   */\n    tag_174:\n        /* \"#utility.yul\":21569:21572   */\n      0x00\n        /* \"#utility.yul\":21590:21595   */\n      dup2\n        /* \"#utility.yul\":21583:21595   */\n      swap1\n      pop\n        /* \"#utility.yul\":21526:21601   */\n      swap2\n      swap1\n      pop\n      jump\t// out\n        /* \"#utility.yul\":21607:21876   */\n    tag_175:\n        /* \"#utility.yul\":21717:21756   */\n      tag_396\n        /* \"#utility.yul\":21748:21755   */\n      dup4\n        /* \"#utility.yul\":21717:21756   */\n      tag_173\n      jump\t// in\n    tag_396:\n        /* \"#utility.yul\":21778:21869   */\n      tag_397\n        /* \"#utility.yul\":21827:21868   */\n      tag_398\n        /* \"#utility.yul\":21851:21867   */\n      dup3\n        /* \"#utility.yul\":21827:21868   */\n      tag_174\n      jump\t// in\n    tag_398:\n        /* \"#utility.yul\":21819:21825   */\n      dup5\n        /* \"#utility.yul\":21812:21816   */\n      dup5\n        /* \"#utility.yul\":21806:21817   */\n      sload\n        /* \"#utility.yul\":21778:21869   */\n      tag_172\n      jump\t// in\n    tag_397:\n        /* \"#utility.yul\":21772:21776   */\n      dup3\n        /* \"#utility.yul\":21765:21870   */\n      sstore\n        /* \"#utility.yul\":21683:21876   */\n      pop\n        /* \"#utility.yul\":21607:21876   */\n      pop\n      pop\n      pop\n      jump\t// out\n        /* \"#utility.yul\":21882:21955   */\n    tag_176:\n        /* \"#utility.yul\":21927:21930   */\n      0x00\n        /* \"#utility.yul\":21882:21955   */\n      swap1\n      jump\t// out\n        /* \"#utility.yul\":21961:22150   */\n    tag_177:\n        /* \"#utility.yul\":22038:22070   */\n      tag_401\n      tag_176\n      jump\t// in\n    tag_401:\n        /* \"#utility.yul\":22079:22144   */\n      tag_402\n        /* \"#utility.yul\":22137:22143   */\n      dup2\n        /* \"#utility.yul\":22129:22135   */\n      dup5\n        /* \"#utility.yul\":22123:22127   */\n      dup5\n        /* \"#utility.yul\":22079:22144   */\n      tag_175\n      jump\t// in\n    tag_402:\n        /* \"#utility.yul\":22014:22150   */\n      pop\n        /* \"#utility.yul\":21961:22150   */\n      pop\n      pop\n      jump\t// out\n        /* \"#utility.yul\":22156:22342   */\n    tag_178:\n        /* \"#utility.yul\":22216:22336   */\n    tag_404:\n        /* \"#utility.yul\":22233:22236   */\n      dup2\n        /* \"#utility.yul\":22226:22231   */\n      dup2\n        /* \"#utility.yul\":22223:22237   */\n      lt\n        /* \"#utility.yul\":22216:22336   */\n      iszero\n      tag_406\n      jumpi\n        /* \"#utility.yul\":22287:22326   */\n      tag_407\n        /* \"#utility.yul\":22324:22325   */\n      0x00\n        /* \"#utility.yul\":22317:22322   */\n      dup3\n        /* \"#utility.yul\":22287:22326   */\n      tag_177\n      jump\t// in\n    tag_407:\n        /* \"#utility.yul\":22260:22261   */\n      0x01\n        /* \"#utility.yul\":22253:22258   */\n      dup2\n        /* \"#utility.yul\":22249:22262   */\n      add\n        /* \"#utility.yul\":22240:22262   */\n      swap1\n      pop\n        /* \"#utility.yul\":22216:22336   */\n      jump(tag_404)\n    tag_406:\n        /* \"#utility.yul\":22156:22342   */\n      pop\n      pop\n      jump\t// out\n        /* \"#utility.yul\":22348:22891   */\n    tag_179:\n        /* \"#utility.yul\":22449:22451   */\n      0x1f\n        /* \"#utility.yul\":22444:22447   */\n      dup3\n        /* \"#utility.yul\":22441:22452   */\n      gt\n        /* \"#utility.yul\":22438:22884   */\n      iszero\n      tag_409\n      jumpi\n        /* \"#utility.yul\":22483:22521   */\n      tag_410\n        /* \"#utility.yul\":22515:22520   */\n      dup2\n        /* \"#utility.yul\":22483:22521   */\n      tag_162\n      jump\t// in\n    tag_410:\n        /* \"#utility.yul\":22567:22596   */\n      tag_411\n        /* \"#utility.yul\":22585:22595   */\n      dup5\n        /* \"#utility.yul\":22567:22596   */\n      tag_170\n      jump\t// in\n    tag_411:\n        /* \"#utility.yul\":22557:22565   */\n      dup2\n        /* \"#utility.yul\":22553:22597   */\n      add\n        /* \"#utility.yul\":22750:22752   */\n      0x20\n        /* \"#utility.yul\":22738:22748   */\n      dup6\n        /* \"#utility.yul\":22735:22753   */\n      lt\n        /* \"#utility.yul\":22732:22781   */\n      iszero\n      tag_412\n      jumpi\n        /* \"#utility.yul\":22771:22779   */\n      dup2\n        /* \"#utility.yul\":22756:22779   */\n      swap1\n      pop\n        /* \"#utility.yul\":22732:22781   */\n    tag_412:\n        /* \"#utility.yul\":22794:22874   */\n      tag_413\n        /* \"#utility.yul\":22850:22872   */\n      tag_414\n        /* \"#utility.yul\":22868:22871   */\n      dup6\n        /* \"#utility.yul\":22850:22872   */\n      tag_170\n      jump\t// in\n    tag_414:\n        /* \"#utility.yul\":22840:22848   */\n      dup4\n        /* \"#utility.yul\":22836:22873   */\n      add\n        /* \"#utility.yul\":22823:22834   */\n      dup3\n        /* \"#utility.yul\":22794:22874   */\n      tag_178\n      jump\t// in\n    tag_413:\n        /* \"#utility.yul\":22453:22884   */\n      pop\n      pop\n        /* \"#utility.yul\":22438:22884   */\n    tag_409:\n        /* \"#utility.yul\":22348:22891   */\n      pop\n      pop\n      pop\n      jump\t// out\n        /* \"#utility.yul\":22897:23014   */\n    tag_180:\n        /* \"#utility.yul\":22951:22959   */\n      0x00\n        /* \"#utility.yul\":23001:23006   */\n      dup3\n        /* \"#utility.yul\":22995:22999   */\n      dup3\n        /* \"#utility.yul\":22991:23007   */\n      shr\n        /* \"#utility.yul\":22970:23007   */\n      swap1\n      pop\n        /* \"#utility.yul\":22897:23014   */\n      swap3\n      swap2\n      pop\n      pop\n      jump\t// out\n        /* \"#utility.yul\":23020:23189   */\n    tag_181:\n        /* \"#utility.yul\":23064:23070   */\n      0x00\n        /* \"#utility.yul\":23097:23148   */\n      tag_417\n        /* \"#utility.yul\":23145:23146   */\n      0x00\n        /* \"#utility.yul\":23141:23147   */\n      not\n        /* \"#utility.yul\":23133:23138   */\n      dup5\n        /* \"#utility.yul\":23130:23131   */\n      0x08\n        /* \"#utility.yul\":23126:23139   */\n      mul\n        /* \"#utility.yul\":23097:23148   */\n      tag_180\n      jump\t// in\n    tag_417:\n        /* \"#utility.yul\":23093:23149   */\n      not\n        /* \"#utility.yul\":23178:23182   */\n      dup1\n        /* \"#utility.yul\":23172:23176   */\n      dup4\n        /* \"#utility.yul\":23168:23183   */\n      and\n        /* \"#utility.yul\":23158:23183   */\n      swap2\n      pop\n        /* \"#utility.yul\":23071:23189   */\n      pop\n        /* \"#utility.yul\":23020:23189   */\n      swap3\n      swap2\n      pop\n      pop\n      jump\t// out\n        /* \"#utility.yul\":23194:23489   */\n    tag_182:\n        /* \"#utility.yul\":23270:23274   */\n      0x00\n        /* \"#utility.yul\":23416:23445   */\n      tag_419\n        /* \"#utility.yul\":23441:23444   */\n      dup4\n        /* \"#utility.yul\":23435:23439   */\n      dup4\n        /* \"#utility.yul\":23416:23445   */\n      tag_181\n      jump\t// in\n    tag_419:\n        /* \"#utility.yul\":23408:23445   */\n      swap2\n      pop\n        /* \"#utility.yul\":23478:23481   */\n      dup3\n        /* \"#utility.yul\":23475:23476   */\n      0x02\n        /* \"#utility.yul\":23471:23482   */\n      mul\n        /* \"#utility.yul\":23465:23469   */\n      dup3\n        /* \"#utility.yul\":23462:23483   */\n      or\n        /* \"#utility.yul\":23454:23483   */\n      swap1\n      pop\n        /* \"#utility.yul\":23194:23489   */\n      swap3\n      swap2\n      pop\n      pop\n      jump\t// out\n        /* \"#utility.yul\":23494:24889   */\n    tag_96:\n        /* \"#utility.yul\":23611:23648   */\n      tag_421\n        /* \"#utility.yul\":23644:23647   */\n      dup3\n        /* \"#utility.yul\":23611:23648   */\n      tag_137\n      jump\t// in\n    tag_421:\n        /* \"#utility.yul\":23713:23731   */\n      0xffffffffffffffff\n        /* \"#utility.yul\":23705:23711   */\n      dup2\n        /* \"#utility.yul\":23702:23732   */\n      gt\n        /* \"#utility.yul\":23699:23755   */\n      iszero\n      tag_422\n      jumpi\n        /* \"#utility.yul\":23735:23753   */\n      tag_423\n      tag_121\n      jump\t// in\n    tag_423:\n        /* \"#utility.yul\":23699:23755   */\n    tag_422:\n        /* \"#utility.yul\":23779:23817   */\n      tag_424\n        /* \"#utility.yul\":23811:23815   */\n      dup3\n        /* \"#utility.yul\":23805:23816   */\n      sload\n        /* \"#utility.yul\":23779:23817   */\n      tag_161\n      jump\t// in\n    tag_424:\n        /* \"#utility.yul\":23864:23931   */\n      tag_425\n        /* \"#utility.yul\":23924:23930   */\n      dup3\n        /* \"#utility.yul\":23916:23922   */\n      dup3\n        /* \"#utility.yul\":23910:23914   */\n      dup6\n        /* \"#utility.yul\":23864:23931   */\n      tag_179\n      jump\t// in\n    tag_425:\n        /* \"#utility.yul\":23958:23959   */\n      0x00\n        /* \"#utility.yul\":23982:23986   */\n      0x20\n        /* \"#utility.yul\":23969:23986   */\n      swap1\n      pop\n        /* \"#utility.yul\":24014:24016   */\n      0x1f\n        /* \"#utility.yul\":24006:24012   */\n      dup4\n        /* \"#utility.yul\":24003:24017   */\n      gt\n        /* \"#utility.yul\":24031:24032   */\n      0x01\n        /* \"#utility.yul\":24026:24644   */\n      dup2\n      eq\n      tag_427\n      jumpi\n        /* \"#utility.yul\":24688:24689   */\n      0x00\n        /* \"#utility.yul\":24705:24711   */\n      dup5\n        /* \"#utility.yul\":24702:24779   */\n      iszero\n      tag_428\n      jumpi\n        /* \"#utility.yul\":24754:24763   */\n      dup3\n        /* \"#utility.yul\":24749:24752   */\n      dup8\n        /* \"#utility.yul\":24745:24764   */\n      add\n        /* \"#utility.yul\":24739:24765   */\n      mload\n        /* \"#utility.yul\":24730:24765   */\n      swap1\n      pop\n        /* \"#utility.yul\":24702:24779   */\n    tag_428:\n        /* \"#utility.yul\":24805:24872   */\n      tag_429\n        /* \"#utility.yul\":24865:24871   */\n      dup6\n        /* \"#utility.yul\":24858:24863   */\n      dup3\n        /* \"#utility.yul\":24805:24872   */\n      tag_182\n      jump\t// in\n    tag_429:\n        /* \"#utility.yul\":24799:24803   */\n      dup7\n        /* \"#utility.yul\":24792:24873   */\n      sstore\n        /* \"#utility.yul\":24661:24883   */\n      pop\n        /* \"#utility.yul\":23996:24883   */\n      jump(tag_426)\n        /* \"#utility.yul\":24026:24644   */\n    tag_427:\n        /* \"#utility.yul\":24078:24082   */\n      0x1f\n        /* \"#utility.yul\":24074:24083   */\n      not\n        /* \"#utility.yul\":24066:24072   */\n      dup5\n        /* \"#utility.yul\":24062:24084   */\n      and\n        /* \"#utility.yul\":24112:24149   */\n      tag_430\n        /* \"#utility.yul\":24144:24148   */\n      dup7\n        /* \"#utility.yul\":24112:24149   */\n      tag_162\n      jump\t// in\n    tag_430:\n        /* \"#utility.yul\":24171:24172   */\n      0x00\n        /* \"#utility.yul\":24185:24393   */\n    tag_431:\n        /* \"#utility.yul\":24199:24206   */\n      dup3\n        /* \"#utility.yul\":24196:24197   */\n      dup2\n        /* \"#utility.yul\":24193:24207   */\n      lt\n        /* \"#utility.yul\":24185:24393   */\n      iszero\n      tag_433\n      jumpi\n        /* \"#utility.yul\":24278:24287   */\n      dup5\n        /* \"#utility.yul\":24273:24276   */\n      dup10\n        /* \"#utility.yul\":24269:24288   */\n      add\n        /* \"#utility.yul\":24263:24289   */\n      mload\n        /* \"#utility.yul\":24255:24261   */\n      dup3\n        /* \"#utility.yul\":24248:24290   */\n      sstore\n        /* \"#utility.yul\":24329:24330   */\n      0x01\n        /* \"#utility.yul\":24321:24327   */\n      dup3\n        /* \"#utility.yul\":24317:24331   */\n      add\n        /* \"#utility.yul\":24307:24331   */\n      swap2\n      pop\n        /* \"#utility.yul\":24376:24378   */\n      0x20\n        /* \"#utility.yul\":24365:24374   */\n      dup6\n        /* \"#utility.yul\":24361:24379   */\n      add\n        /* \"#utility.yul\":24348:24379   */\n      swap5\n      pop\n        /* \"#utility.yul\":24222:24226   */\n      0x20\n        /* \"#utility.yul\":24219:24220   */\n      dup2\n        /* \"#utility.yul\":24215:24227   */\n      add\n        /* \"#utility.yul\":24210:24227   */\n      swap1\n      pop\n        /* \"#utility.yul\":24185:24393   */\n      jump(tag_431)\n    tag_433:\n        /* \"#utility.yul\":24421:24427   */\n      dup7\n        /* \"#utility.yul\":24412:24419   */\n      dup4\n        /* \"#utility.yul\":24409:24428   */\n      lt\n        /* \"#utility.yul\":24406:24585   */\n      iszero\n      tag_434\n      jumpi\n        /* \"#utility.yul\":24479:24488   */\n      dup5\n        /* \"#utility.yul\":24474:24477   */\n      dup10\n        /* \"#utility.yul\":24470:24489   */\n      add\n        /* \"#utility.yul\":24464:24490   */\n      mload\n        /* \"#utility.yul\":24522:24570   */\n      tag_435\n        /* \"#utility.yul\":24564:24568   */\n      0x1f\n        /* \"#utility.yul\":24556:24562   */\n      dup10\n        /* \"#utility.yul\":24552:24569   */\n      and\n        /* \"#utility.yul\":24541:24550   */\n      dup3\n        /* \"#utility.yul\":24522:24570   */\n      tag_181\n      jump\t// in\n    tag_435:\n        /* \"#utility.yul\":24514:24520   */\n      dup4\n        /* \"#utility.yul\":24507:24571   */\n      sstore\n        /* \"#utility.yul\":24429:24585   */\n      pop\n        /* \"#utility.yul\":24406:24585   */\n    tag_434:\n        /* \"#utility.yul\":24631:24632   */\n      0x01\n        /* \"#utility.yul\":24627:24628   */\n      0x02\n        /* \"#utility.yul\":24619:24625   */\n      dup9\n        /* \"#utility.yul\":24615:24629   */\n      mul\n        /* \"#utility.yul\":24611:24633   */\n      add\n        /* \"#utility.yul\":24605:24609   */\n      dup9\n        /* \"#utility.yul\":24598:24634   */\n      sstore\n        /* \"#utility.yul\":24033:24644   */\n      pop\n      pop\n      pop\n        /* \"#utility.yul\":23996:24883   */\n    tag_426:\n      pop\n        /* \"#utility.yul\":23586:24889   */\n      pop\n      pop\n      pop\n        /* \"#utility.yul\":23494:24889   */\n      pop\n      pop\n      jump\t// out\n        /* \"#utility.yul\":24895:25428   */\n    tag_100:\n        /* \"#utility.yul\":25064:25068   */\n      0x00\n        /* \"#utility.yul\":25102:25104   */\n      0x60\n        /* \"#utility.yul\":25091:25100   */\n      dup3\n        /* \"#utility.yul\":25087:25105   */\n      add\n        /* \"#utility.yul\":25079:25105   */\n      swap1\n      pop\n        /* \"#utility.yul\":25151:25160   */\n      dup2\n        /* \"#utility.yul\":25145:25149   */\n      dup2\n        /* \"#utility.yul\":25141:25161   */\n      sub\n        /* \"#utility.yul\":25137:25138   */\n      0x00\n        /* \"#utility.yul\":25126:25135   */\n      dup4\n        /* \"#utility.yul\":25122:25139   */\n      add\n        /* \"#utility.yul\":25115:25162   */\n      mstore\n        /* \"#utility.yul\":25179:25257   */\n      tag_437\n        /* \"#utility.yul\":25252:25256   */\n      dup2\n        /* \"#utility.yul\":25243:25249   */\n      dup7\n        /* \"#utility.yul\":25179:25257   */\n      tag_157\n      jump\t// in\n    tag_437:\n        /* \"#utility.yul\":25171:25257   */\n      swap1\n      pop\n        /* \"#utility.yul\":25267:25339   */\n      tag_438\n        /* \"#utility.yul\":25335:25337   */\n      0x20\n        /* \"#utility.yul\":25324:25333   */\n      dup4\n        /* \"#utility.yul\":25320:25338   */\n      add\n        /* \"#utility.yul\":25311:25317   */\n      dup6\n        /* \"#utility.yul\":25267:25339   */\n      tag_129\n      jump\t// in\n    tag_438:\n        /* \"#utility.yul\":25349:25421   */\n      tag_439\n        /* \"#utility.yul\":25417:25419   */\n      0x40\n        /* \"#utility.yul\":25406:25415   */\n      dup4\n        /* \"#utility.yul\":25402:25420   */\n      add\n        /* \"#utility.yul\":25393:25399   */\n      dup5\n        /* \"#utility.yul\":25349:25421   */\n      tag_129\n      jump\t// in\n    tag_439:\n        /* \"#utility.yul\":24895:25428   */\n      swap5\n      swap4\n      pop\n      pop\n      pop\n      pop\n      jump\t// out\n        /* \"#utility.yul\":25434:25614   */\n    tag_183:\n        /* \"#utility.yul\":25482:25559   */\n      0x4e487b7100000000000000000000000000000000000000000000000000000000\n        /* \"#utility.yul\":25479:25480   */\n      0x00\n        /* \"#utility.yul\":25472:25560   */\n      mstore\n        /* \"#utility.yul\":25579:25583   */\n      0x12\n        /* \"#utility.yul\":25576:25577   */\n      0x04\n        /* \"#utility.yul\":25569:25584   */\n      mstore\n        /* \"#utility.yul\":25603:25607   */\n      0x24\n        /* \"#utility.yul\":25600:25601   */\n      0x00\n        /* \"#utility.yul\":25593:25608   */\n      revert\n        /* \"#utility.yul\":25620:25805   */\n    tag_103:\n        /* \"#utility.yul\":25660:25661   */\n      0x00\n        /* \"#utility.yul\":25677:25697   */\n      tag_442\n        /* \"#utility.yul\":25695:25696   */\n      dup3\n        /* \"#utility.yul\":25677:25697   */\n      tag_128\n      jump\t// in\n    tag_442:\n        /* \"#utility.yul\":25672:25697   */\n      swap2\n      pop\n        /* \"#utility.yul\":25711:25731   */\n      tag_443\n        /* \"#utility.yul\":25729:25730   */\n      dup4\n        /* \"#utility.yul\":25711:25731   */\n      tag_128\n      jump\t// in\n    tag_443:\n        /* \"#utility.yul\":25706:25731   */\n      swap3\n      pop\n        /* \"#utility.yul\":25750:25751   */\n      dup3\n        /* \"#utility.yul\":25740:25775   */\n      tag_444\n      jumpi\n        /* \"#utility.yul\":25755:25773   */\n      tag_445\n      tag_183\n      jump\t// in\n    tag_445:\n        /* \"#utility.yul\":25740:25775   */\n    tag_444:\n        /* \"#utility.yul\":25797:25798   */\n      dup3\n        /* \"#utility.yul\":25794:25795   */\n      dup3\n        /* \"#utility.yul\":25790:25799   */\n      div\n        /* \"#utility.yul\":25785:25799   */\n      swap1\n      pop\n        /* \"#utility.yul\":25620:25805   */\n      swap3\n      swap2\n      pop\n      pop\n      jump\t// out\n        /* \"#utility.yul\":25811:26269   */\n    tag_106:\n        /* \"#utility.yul\":25968:25972   */\n      0x00\n        /* \"#utility.yul\":26006:26008   */\n      0x60\n        /* \"#utility.yul\":25995:26004   */\n      dup3\n        /* \"#utility.yul\":25991:26009   */\n      add\n        /* \"#utility.yul\":25983:26009   */\n      swap1\n      pop\n        /* \"#utility.yul\":26019:26098   */\n      tag_447\n        /* \"#utility.yul\":26095:26096   */\n      0x00\n        /* \"#utility.yul\":26084:26093   */\n      dup4\n        /* \"#utility.yul\":26080:26097   */\n      add\n        /* \"#utility.yul\":26071:26077   */\n      dup7\n        /* \"#utility.yul\":26019:26098   */\n      tag_153\n      jump\t// in\n    tag_447:\n        /* \"#utility.yul\":26108:26180   */\n      tag_448\n        /* \"#utility.yul\":26176:26178   */\n      0x20\n        /* \"#utility.yul\":26165:26174   */\n      dup4\n        /* \"#utility.yul\":26161:26179   */\n      add\n        /* \"#utility.yul\":26152:26158   */\n      dup6\n        /* \"#utility.yul\":26108:26180   */\n      tag_147\n      jump\t// in\n    tag_448:\n        /* \"#utility.yul\":26190:26262   */\n      tag_449\n        /* \"#utility.yul\":26258:26260   */\n      0x40\n        /* \"#utility.yul\":26247:26256   */\n      dup4\n        /* \"#utility.yul\":26243:26261   */\n      add\n        /* \"#utility.yul\":26234:26240   */\n      dup5\n        /* \"#utility.yul\":26190:26262   */\n      tag_129\n      jump\t// in\n    tag_449:\n        /* \"#utility.yul\":25811:26269   */\n      swap5\n      swap4\n      pop\n      pop\n      pop\n      pop\n      jump\t// out\n\n    auxdata: 0xa2646970667358221220eec3b6467bdb61f8c6f5aefae51c8c7899695876a022c72fe3c768a6b6450e2764736f6c634300081a0033\n}\n",
				"bytecode": {
					"linkReferences": {},
					"object": "60a060405234801561000f575f80fd5b506040516119033803806119038339818101604052810190610031919061015c565b3373ffffffffffffffffffffffffffffffffffffffff1660808173ffffffffffffffffffffffffffffffffffffffff168152505060805160035f6101000a81548173ffffffffffffffffffffffffffffffffffffffff021916908373ffffffffffffffffffffffffffffffffffffffff1602179055508060025f6101000a81548173ffffffffffffffffffffffffffffffffffffffff021916908373ffffffffffffffffffffffffffffffffffffffff16021790555050610187565b5f80fd5b5f73ffffffffffffffffffffffffffffffffffffffff82169050919050565b5f61011a826100f1565b9050919050565b5f61012b82610110565b9050919050565b61013b81610121565b8114610145575f80fd5b50565b5f8151905061015681610132565b92915050565b5f60208284031215610171576101706100ed565b5b5f61017e84828501610148565b91505092915050565b60805161176461019f5f395f6105fd01526117645ff3fe60806040526004361061006f575f3560e01c8063abfe5d571161004d578063abfe5d57146100ef578063c8351be014610105578063d0febe4c1461012d578063fc0c546a146101375761006f565b8063521eb2731461007357806372fd3d3e1461009d5780637b3e5e7b146100c5575b5f80fd5b34801561007e575f80fd5b50610087610161565b60405161009491906109c0565b60405180910390f35b3480156100a8575f80fd5b506100c360048036038101906100be9190610b26565b610186565b005b3480156100d0575f80fd5b506100d96104c4565b6040516100e69190610b85565b60405180910390f35b3480156100fa575f80fd5b506101036104ca565b005b348015610110575f80fd5b5061012b60048036038101906101269190610bc8565b6105fb565b005b610135610805565b005b348015610142575f80fd5b5061014b61095c565b6040516101589190610c8f565b60405180910390f35b60035f9054906101000a900473ffffffffffffffffffffffffffffffffffffffff1681565b5f80826040516101969190610cfa565b908152602001604051809103902090505f81600201541180156101bc57505f8160030154115b6101fb576040517f08c379a00000000000000000000000000000000000000000000000000000000081526004016101f290610d6a565b60405180910390fd5b8060010160019054906101000a900460ff161561024d576040517f08c379a000000000000000000000000000000000000000000000000000000000815260040161024490610dd2565b60405180910390fd5b60025f9054906101000a900473ffffffffffffffffffffffffffffffffffffffff1673ffffffffffffffffffffffffffffffffffffffff166370a08231336040518263ffffffff1660e01b81526004016102a79190610e10565b602060405180830381865afa1580156102c2573d5f803e3d5ffd5b505050506040513d601f19601f820116820180604052508101906102e69190610e3d565b816003015482600201546102fa9190610e95565b111561033b576040517f08c379a000000000000000000000000000000000000000000000000000000000815260040161033290610f38565b60405180910390fd5b5f816003015482600201546103509190610e95565b905060025f9054906101000a900473ffffffffffffffffffffffffffffffffffffffff1673ffffffffffffffffffffffffffffffffffffffff166323b872dd3360035f9054906101000a900473ffffffffffffffffffffffffffffffffffffffff16846040518463ffffffff1660e01b81526004016103d193929190610f76565b6020604051808303815f875af11580156103ed573d5f803e3d5ffd5b505050506040513d601f19601f820116820180604052508101906104119190610fe0565b5060018260010160016101000a81548160ff02191690831515021790555033826004015f6101000a81548173ffffffffffffffffffffffffffffffffffffffff021916908373ffffffffffffffffffffffffffffffffffffffff1602179055503373ffffffffffffffffffffffffffffffffffffffff167fe0903df489d90288745389e699f476635bf4b26eaabf03f19d342cc921c54f6c846040516104b79190611043565b60405180910390a2505050565b60045481565b5f60018054905011610511576040517f08c379a0000000000000000000000000000000000000000000000000000000008152600401610508906110ad565b60405180910390fd5b5f5b6001805490508110156105f8575f8060018381548110610536576105356110cb565b5b905f5260205f200160405161054b91906111e7565b908152602001604051809103902090507f731eec37d0514029470b50942896e3bb28cbbd50752cebebb455158b57c3d829815f01826001015f9054906101000a900460ff168360010160019054906101000a900460ff1684600201548560030154866004015f9054906101000a900473ffffffffffffffffffffffffffffffffffffffff166040516105e29695949392919061128d565b60405180910390a1508080600101915050610513565b50565b7f000000000000000000000000000000000000000000000000000000000000000073ffffffffffffffffffffffffffffffffffffffff163373ffffffffffffffffffffffffffffffffffffffff1614610689576040517f08c379a000000000000000000000000000000000000000000000000000000000815260040161068090611363565b60405180910390fd5b5f8211801561069757505f81115b6106d6576040517f08c379a00000000000000000000000000000000000000000000000000000000081526004016106cd906113f1565b60405180910390fd5b5f80846040516106e69190610cfa565b9081526020016040518091039020905083815f0190816107069190611591565b508281600201819055508181600301819055505f8160010160016101000a81548160ff0219169083151502179055505f816001015f6101000a81548160ff0219169083151502179055505f816004015f6101000a81548173ffffffffffffffffffffffffffffffffffffffff021916908373ffffffffffffffffffffffffffffffffffffffff160217905550600184908060018154018082558091505060019003905f5260205f20015f9091909190915090816107c39190611591565b507f9cdb19cea9d23c0e85935c7016eaeb490bf814b8f83272928788fa4a91e7399a8484846040516107f793929190611660565b60405180910390a150505050565b5f670de0b6b3a76400003461081a91906116c9565b90503460045f82825461082d9190610e95565b9250508190555060025f9054906101000a900473ffffffffffffffffffffffffffffffffffffffff1673ffffffffffffffffffffffffffffffffffffffff166323b872dd60035f9054906101000a900473ffffffffffffffffffffffffffffffffffffffff1633846040518463ffffffff1660e01b81526004016108b3939291906116f9565b6020604051808303815f875af11580156108cf573d5f803e3d5ffd5b505050506040513d601f19601f820116820180604052508101906108f39190610fe0565b5060035f9054906101000a900473ffffffffffffffffffffffffffffffffffffffff1673ffffffffffffffffffffffffffffffffffffffff166108fc3490811502906040515f60405180830381858888f19350505050158015610958573d5f803e3d5ffd5b5050565b60025f9054906101000a900473ffffffffffffffffffffffffffffffffffffffff1681565b5f73ffffffffffffffffffffffffffffffffffffffff82169050919050565b5f6109aa82610981565b9050919050565b6109ba816109a0565b82525050565b5f6020820190506109d35f8301846109b1565b92915050565b5f604051905090565b5f80fd5b5f80fd5b5f80fd5b5f80fd5b5f601f19601f8301169050919050565b7f4e487b71000000000000000000000000000000000000000000000000000000005f52604160045260245ffd5b610a38826109f2565b810181811067ffffffffffffffff82111715610a5757610a56610a02565b5b80604052505050565b5f610a696109d9565b9050610a758282610a2f565b919050565b5f67ffffffffffffffff821115610a9457610a93610a02565b5b610a9d826109f2565b9050602081019050919050565b828183375f83830152505050565b5f610aca610ac584610a7a565b610a60565b905082815260208101848484011115610ae657610ae56109ee565b5b610af1848285610aaa565b509392505050565b5f82601f830112610b0d57610b0c6109ea565b5b8135610b1d848260208601610ab8565b91505092915050565b5f60208284031215610b3b57610b3a6109e2565b5b5f82013567ffffffffffffffff811115610b5857610b576109e6565b5b610b6484828501610af9565b91505092915050565b5f819050919050565b610b7f81610b6d565b82525050565b5f602082019050610b985f830184610b76565b92915050565b610ba781610b6d565b8114610bb1575f80fd5b50565b5f81359050610bc281610b9e565b92915050565b5f805f60608486031215610bdf57610bde6109e2565b5b5f84013567ffffffffffffffff811115610bfc57610bfb6109e6565b5b610c0886828701610af9565b9350506020610c1986828701610bb4565b9250506040610c2a86828701610bb4565b9150509250925092565b5f819050919050565b5f610c57610c52610c4d84610981565b610c34565b610981565b9050919050565b5f610c6882610c3d565b9050919050565b5f610c7982610c5e565b9050919050565b610c8981610c6f565b82525050565b5f602082019050610ca25f830184610c80565b92915050565b5f81519050919050565b5f81905092915050565b8281835e5f83830152505050565b5f610cd482610ca8565b610cde8185610cb2565b9350610cee818560208601610cbc565b80840191505092915050565b5f610d058284610cca565b915081905092915050565b5f82825260208201905092915050565b7f43617220646f6573206e6f742065786973742e000000000000000000000000005f82015250565b5f610d54601383610d10565b9150610d5f82610d20565b602082019050919050565b5f6020820190508181035f830152610d8181610d48565b9050919050565b7f43617220697320616c72656164792072656e7465642e000000000000000000005f82015250565b5f610dbc601683610d10565b9150610dc782610d88565b602082019050919050565b5f6020820190508181035f830152610de981610db0565b9050919050565b5f610dfa82610981565b9050919050565b610e0a81610df0565b82525050565b5f602082019050610e235f830184610e01565b92915050565b5f81519050610e3781610b9e565b92915050565b5f60208284031215610e5257610e516109e2565b5b5f610e5f84828501610e29565b91505092915050565b7f4e487b71000000000000000000000000000000000000000000000000000000005f52601160045260245ffd5b5f610e9f82610b6d565b9150610eaa83610b6d565b9250828201905080821115610ec257610ec1610e68565b5b92915050565b7f596f75206861766520696e73756666696369656e74204352532062616c616e635f8201527f6520746f2072656e742074686973206361720000000000000000000000000000602082015250565b5f610f22603283610d10565b9150610f2d82610ec8565b604082019050919050565b5f6020820190508181035f830152610f4f81610f16565b9050919050565b5f610f6082610c5e565b9050919050565b610f7081610f56565b82525050565b5f606082019050610f895f830186610e01565b610f966020830185610f67565b610fa36040830184610b76565b949350505050565b5f8115159050919050565b610fbf81610fab565b8114610fc9575f80fd5b50565b5f81519050610fda81610fb6565b92915050565b5f60208284031215610ff557610ff46109e2565b5b5f61100284828501610fcc565b91505092915050565b5f61101582610ca8565b61101f8185610d10565b935061102f818560208601610cbc565b611038816109f2565b840191505092915050565b5f6020820190508181035f83015261105b818461100b565b905092915050565b7f4e6f20636172732061726520617661696c61626c652e000000000000000000005f82015250565b5f611097601683610d10565b91506110a282611063565b602082019050919050565b5f6020820190508181035f8301526110c48161108b565b9050919050565b7f4e487b71000000000000000000000000000000000000000000000000000000005f52603260045260245ffd5b7f4e487b71000000000000000000000000000000000000000000000000000000005f52602260045260245ffd5b5f600282049050600182168061113c57607f821691505b60208210810361114f5761114e6110f8565b5b50919050565b5f819050815f5260205f209050919050565b5f815461117381611125565b61117d8186610cb2565b9450600182165f811461119757600181146111ac576111de565b60ff19831686528115158202860193506111de565b6111b585611155565b5f5b838110156111d6578154818901526001820191506020810190506111b7565b838801955050505b50505092915050565b5f6111f28284611167565b915081905092915050565b5f815461120981611125565b6112138186610d10565b9450600182165f811461122d576001811461124357611275565b60ff198316865281151560200286019350611275565b61124c85611155565b5f5b8381101561126d5781548189015260018201915060208101905061124e565b808801955050505b50505092915050565b61128781610fab565b82525050565b5f60c0820190508181035f8301526112a581896111fd565b90506112b4602083018861127e565b6112c1604083018761127e565b6112ce6060830186610b76565b6112db6080830185610b76565b6112e860a0830184610e01565b979650505050505050565b7f4f6e6c7920746865206361722072656e74616c206f776e65722063616e20646f5f8201527f20746869732e0000000000000000000000000000000000000000000000000000602082015250565b5f61134d602683610d10565b9150611358826112f3565b604082019050919050565b5f6020820190508181035f83015261137a81611341565b9050919050565b7f436172206d75737420686176652061206465706f73697420616e6420707269635f8201527f652e000000000000000000000000000000000000000000000000000000000000602082015250565b5f6113db602283610d10565b91506113e682611381565b604082019050919050565b5f6020820190508181035f830152611408816113cf565b9050919050565b5f6020601f8301049050919050565b5f82821b905092915050565b5f600883026114597fffffffffffffffffffffffffffffffffffffffffffffffffffffffffffffffff8261141e565b611463868361141e565b95508019841693508086168417925050509392505050565b5f61149561149061148b84610b6d565b610c34565b610b6d565b9050919050565b5f819050919050565b6114ae8361147b565b6114c26114ba8261149c565b84845461142a565b825550505050565b5f90565b6114d66114ca565b6114e18184846114a5565b505050565b5b81811015611504576114f95f826114ce565b6001810190506114e7565b5050565b601f8211156115495761151a81611155565b6115238461140f565b81016020851015611532578190505b61154661153e8561140f565b8301826114e6565b50505b505050565b5f82821c905092915050565b5f6115695f198460080261154e565b1980831691505092915050565b5f611581838361155a565b9150826002028217905092915050565b61159a82610ca8565b67ffffffffffffffff8111156115b3576115b2610a02565b5b6115bd8254611125565b6115c8828285611508565b5f60209050601f8311600181146115f9575f84156115e7578287015190505b6115f18582611576565b865550611658565b601f19841661160786611155565b5f5b8281101561162e57848901518255600182019150602085019450602081019050611609565b8683101561164b5784890151611647601f89168261155a565b8355505b6001600288020188555050505b505050505050565b5f6060820190508181035f830152611678818661100b565b90506116876020830185610b76565b6116946040830184610b76565b949350505050565b7f4e487b71000000000000000000000000000000000000000000000000000000005f52601260045260245ffd5b5f6116d382610b6d565b91506116de83610b6d565b9250826116ee576116ed61169c565b5b828204905092915050565b5f60608201905061170c5f830186610f67565b6117196020830185610e01565b6117266040830184610b76565b94935050505056fea2646970667358221220eec3b6467bdb61f8c6f5aefae51c8c7899695876a022c72fe3c768a6b6450e2764736f6c634300081a0033",
					"opcodes": "PUSH1 0xA0 PUSH1 0x40 MSTORE CALLVALUE DUP1 ISZERO PUSH2 0xF JUMPI PUSH0 DUP1 REVERT JUMPDEST POP PUSH1 0x40 MLOAD PUSH2 0x1903 CODESIZE SUB DUP1 PUSH2 0x1903 DUP4 CODECOPY DUP2 DUP2 ADD PUSH1 0x40 MSTORE DUP2 ADD SWAP1 PUSH2 0x31 SWAP2 SWAP1 PUSH2 0x15C JUMP JUMPDEST CALLER PUSH20 0xFFFFFFFFFFFFFFFFFFFFFFFFFFFFFFFFFFFFFFFF AND PUSH1 0x80 DUP2 PUSH20 0xFFFFFFFFFFFFFFFFFFFFFFFFFFFFFFFFFFFFFFFF AND DUP2 MSTORE POP POP PUSH1 0x80 MLOAD PUSH1 0x3 PUSH0 PUSH2 0x100 EXP DUP2 SLOAD DUP2 PUSH20 0xFFFFFFFFFFFFFFFFFFFFFFFFFFFFFFFFFFFFFFFF MUL NOT AND SWAP1 DUP4 PUSH20 0xFFFFFFFFFFFFFFFFFFFFFFFFFFFFFFFFFFFFFFFF AND MUL OR SWAP1 SSTORE POP DUP1 PUSH1 0x2 PUSH0 PUSH2 0x100 EXP DUP2 SLOAD DUP2 PUSH20 0xFFFFFFFFFFFFFFFFFFFFFFFFFFFFFFFFFFFFFFFF MUL NOT AND SWAP1 DUP4 PUSH20 0xFFFFFFFFFFFFFFFFFFFFFFFFFFFFFFFFFFFFFFFF AND MUL OR SWAP1 SSTORE POP POP PUSH2 0x187 JUMP JUMPDEST PUSH0 DUP1 REVERT JUMPDEST PUSH0 PUSH20 0xFFFFFFFFFFFFFFFFFFFFFFFFFFFFFFFFFFFFFFFF DUP3 AND SWAP1 POP SWAP2 SWAP1 POP JUMP JUMPDEST PUSH0 PUSH2 0x11A DUP3 PUSH2 0xF1 JUMP JUMPDEST SWAP1 POP SWAP2 SWAP1 POP JUMP JUMPDEST PUSH0 PUSH2 0x12B DUP3 PUSH2 0x110 JUMP JUMPDEST SWAP1 POP SWAP2 SWAP1 POP JUMP JUMPDEST PUSH2 0x13B DUP2 PUSH2 0x121 JUMP JUMPDEST DUP2 EQ PUSH2 0x145 JUMPI PUSH0 DUP1 REVERT JUMPDEST POP JUMP JUMPDEST PUSH0 DUP2 MLOAD SWAP1 POP PUSH2 0x156 DUP2 PUSH2 0x132 JUMP JUMPDEST SWAP3 SWAP2 POP POP JUMP JUMPDEST PUSH0 PUSH1 0x20 DUP3 DUP5 SUB SLT ISZERO PUSH2 0x171 JUMPI PUSH2 0x170 PUSH2 0xED JUMP JUMPDEST JUMPDEST PUSH0 PUSH2 0x17E DUP5 DUP3 DUP6 ADD PUSH2 0x148 JUMP JUMPDEST SWAP2 POP POP SWAP3 SWAP2 POP POP JUMP JUMPDEST PUSH1 0x80 MLOAD PUSH2 0x1764 PUSH2 0x19F PUSH0 CODECOPY PUSH0 PUSH2 0x5FD ADD MSTORE PUSH2 0x1764 PUSH0 RETURN INVALID PUSH1 0x80 PUSH1 0x40 MSTORE PUSH1 0x4 CALLDATASIZE LT PUSH2 0x6F JUMPI PUSH0 CALLDATALOAD PUSH1 0xE0 SHR DUP1 PUSH4 0xABFE5D57 GT PUSH2 0x4D JUMPI DUP1 PUSH4 0xABFE5D57 EQ PUSH2 0xEF JUMPI DUP1 PUSH4 0xC8351BE0 EQ PUSH2 0x105 JUMPI DUP1 PUSH4 0xD0FEBE4C EQ PUSH2 0x12D JUMPI DUP1 PUSH4 0xFC0C546A EQ PUSH2 0x137 JUMPI PUSH2 0x6F JUMP JUMPDEST DUP1 PUSH4 0x521EB273 EQ PUSH2 0x73 JUMPI DUP1 PUSH4 0x72FD3D3E EQ PUSH2 0x9D JUMPI DUP1 PUSH4 0x7B3E5E7B EQ PUSH2 0xC5 JUMPI JUMPDEST PUSH0 DUP1 REVERT JUMPDEST CALLVALUE DUP1 ISZERO PUSH2 0x7E JUMPI PUSH0 DUP1 REVERT JUMPDEST POP PUSH2 0x87 PUSH2 0x161 JUMP JUMPDEST PUSH1 0x40 MLOAD PUSH2 0x94 SWAP2 SWAP1 PUSH2 0x9C0 JUMP JUMPDEST PUSH1 0x40 MLOAD DUP1 SWAP2 SUB SWAP1 RETURN JUMPDEST CALLVALUE DUP1 ISZERO PUSH2 0xA8 JUMPI PUSH0 DUP1 REVERT JUMPDEST POP PUSH2 0xC3 PUSH1 0x4 DUP1 CALLDATASIZE SUB DUP2 ADD SWAP1 PUSH2 0xBE SWAP2 SWAP1 PUSH2 0xB26 JUMP JUMPDEST PUSH2 0x186 JUMP JUMPDEST STOP JUMPDEST CALLVALUE DUP1 ISZERO PUSH2 0xD0 JUMPI PUSH0 DUP1 REVERT JUMPDEST POP PUSH2 0xD9 PUSH2 0x4C4 JUMP JUMPDEST PUSH1 0x40 MLOAD PUSH2 0xE6 SWAP2 SWAP1 PUSH2 0xB85 JUMP JUMPDEST PUSH1 0x40 MLOAD DUP1 SWAP2 SUB SWAP1 RETURN JUMPDEST CALLVALUE DUP1 ISZERO PUSH2 0xFA JUMPI PUSH0 DUP1 REVERT JUMPDEST POP PUSH2 0x103 PUSH2 0x4CA JUMP JUMPDEST STOP JUMPDEST CALLVALUE DUP1 ISZERO PUSH2 0x110 JUMPI PUSH0 DUP1 REVERT JUMPDEST POP PUSH2 0x12B PUSH1 0x4 DUP1 CALLDATASIZE SUB DUP2 ADD SWAP1 PUSH2 0x126 SWAP2 SWAP1 PUSH2 0xBC8 JUMP JUMPDEST PUSH2 0x5FB JUMP JUMPDEST STOP JUMPDEST PUSH2 0x135 PUSH2 0x805 JUMP JUMPDEST STOP JUMPDEST CALLVALUE DUP1 ISZERO PUSH2 0x142 JUMPI PUSH0 DUP1 REVERT JUMPDEST POP PUSH2 0x14B PUSH2 0x95C JUMP JUMPDEST PUSH1 0x40 MLOAD PUSH2 0x158 SWAP2 SWAP1 PUSH2 0xC8F JUMP JUMPDEST PUSH1 0x40 MLOAD DUP1 SWAP2 SUB SWAP1 RETURN JUMPDEST PUSH1 0x3 PUSH0 SWAP1 SLOAD SWAP1 PUSH2 0x100 EXP SWAP1 DIV PUSH20 0xFFFFFFFFFFFFFFFFFFFFFFFFFFFFFFFFFFFFFFFF AND DUP2 JUMP JUMPDEST PUSH0 DUP1 DUP3 PUSH1 0x40 MLOAD PUSH2 0x196 SWAP2 SWAP1 PUSH2 0xCFA JUMP JUMPDEST SWAP1 DUP2 MSTORE PUSH1 0x20 ADD PUSH1 0x40 MLOAD DUP1 SWAP2 SUB SWAP1 KECCAK256 SWAP1 POP PUSH0 DUP2 PUSH1 0x2 ADD SLOAD GT DUP1 ISZERO PUSH2 0x1BC JUMPI POP PUSH0 DUP2 PUSH1 0x3 ADD SLOAD GT JUMPDEST PUSH2 0x1FB JUMPI PUSH1 0x40 MLOAD PUSH32 0x8C379A000000000000000000000000000000000000000000000000000000000 DUP2 MSTORE PUSH1 0x4 ADD PUSH2 0x1F2 SWAP1 PUSH2 0xD6A JUMP JUMPDEST PUSH1 0x40 MLOAD DUP1 SWAP2 SUB SWAP1 REVERT JUMPDEST DUP1 PUSH1 0x1 ADD PUSH1 0x1 SWAP1 SLOAD SWAP1 PUSH2 0x100 EXP SWAP1 DIV PUSH1 0xFF AND ISZERO PUSH2 0x24D JUMPI PUSH1 0x40 MLOAD PUSH32 0x8C379A000000000000000000000000000000000000000000000000000000000 DUP2 MSTORE PUSH1 0x4 ADD PUSH2 0x244 SWAP1 PUSH2 0xDD2 JUMP JUMPDEST PUSH1 0x40 MLOAD DUP1 SWAP2 SUB SWAP1 REVERT JUMPDEST PUSH1 0x2 PUSH0 SWAP1 SLOAD SWAP1 PUSH2 0x100 EXP SWAP1 DIV PUSH20 0xFFFFFFFFFFFFFFFFFFFFFFFFFFFFFFFFFFFFFFFF AND PUSH20 0xFFFFFFFFFFFFFFFFFFFFFFFFFFFFFFFFFFFFFFFF AND PUSH4 0x70A08231 CALLER PUSH1 0x40 MLOAD DUP3 PUSH4 0xFFFFFFFF AND PUSH1 0xE0 SHL DUP2 MSTORE PUSH1 0x4 ADD PUSH2 0x2A7 SWAP2 SWAP1 PUSH2 0xE10 JUMP JUMPDEST PUSH1 0x20 PUSH1 0x40 MLOAD DUP1 DUP4 SUB DUP2 DUP7 GAS STATICCALL ISZERO DUP1 ISZERO PUSH2 0x2C2 JUMPI RETURNDATASIZE PUSH0 DUP1 RETURNDATACOPY RETURNDATASIZE PUSH0 REVERT JUMPDEST POP POP POP POP PUSH1 0x40 MLOAD RETURNDATASIZE PUSH1 0x1F NOT PUSH1 0x1F DUP3 ADD AND DUP3 ADD DUP1 PUSH1 0x40 MSTORE POP DUP2 ADD SWAP1 PUSH2 0x2E6 SWAP2 SWAP1 PUSH2 0xE3D JUMP JUMPDEST DUP2 PUSH1 0x3 ADD SLOAD DUP3 PUSH1 0x2 ADD SLOAD PUSH2 0x2FA SWAP2 SWAP1 PUSH2 0xE95 JUMP JUMPDEST GT ISZERO PUSH2 0x33B JUMPI PUSH1 0x40 MLOAD PUSH32 0x8C379A000000000000000000000000000000000000000000000000000000000 DUP2 MSTORE PUSH1 0x4 ADD PUSH2 0x332 SWAP1 PUSH2 0xF38 JUMP JUMPDEST PUSH1 0x40 MLOAD DUP1 SWAP2 SUB SWAP1 REVERT JUMPDEST PUSH0 DUP2 PUSH1 0x3 ADD SLOAD DUP3 PUSH1 0x2 ADD SLOAD PUSH2 0x350 SWAP2 SWAP1 PUSH2 0xE95 JUMP JUMPDEST SWAP1 POP PUSH1 0x2 PUSH0 SWAP1 SLOAD SWAP1 PUSH2 0x100 EXP SWAP1 DIV PUSH20 0xFFFFFFFFFFFFFFFFFFFFFFFFFFFFFFFFFFFFFFFF AND PUSH20 0xFFFFFFFFFFFFFFFFFFFFFFFFFFFFFFFFFFFFFFFF AND PUSH4 0x23B872DD CALLER PUSH1 0x3 PUSH0 SWAP1 SLOAD SWAP1 PUSH2 0x100 EXP SWAP1 DIV PUSH20 0xFFFFFFFFFFFFFFFFFFFFFFFFFFFFFFFFFFFFFFFF AND DUP5 PUSH1 0x40 MLOAD DUP5 PUSH4 0xFFFFFFFF AND PUSH1 0xE0 SHL DUP2 MSTORE PUSH1 0x4 ADD PUSH2 0x3D1 SWAP4 SWAP3 SWAP2 SWAP1 PUSH2 0xF76 JUMP JUMPDEST PUSH1 0x20 PUSH1 0x40 MLOAD DUP1 DUP4 SUB DUP2 PUSH0 DUP8 GAS CALL ISZERO DUP1 ISZERO PUSH2 0x3ED JUMPI RETURNDATASIZE PUSH0 DUP1 RETURNDATACOPY RETURNDATASIZE PUSH0 REVERT JUMPDEST POP POP POP POP PUSH1 0x40 MLOAD RETURNDATASIZE PUSH1 0x1F NOT PUSH1 0x1F DUP3 ADD AND DUP3 ADD DUP1 PUSH1 0x40 MSTORE POP DUP2 ADD SWAP1 PUSH2 0x411 SWAP2 SWAP1 PUSH2 0xFE0 JUMP JUMPDEST POP PUSH1 0x1 DUP3 PUSH1 0x1 ADD PUSH1 0x1 PUSH2 0x100 EXP DUP2 SLOAD DUP2 PUSH1 0xFF MUL NOT AND SWAP1 DUP4 ISZERO ISZERO MUL OR SWAP1 SSTORE POP CALLER DUP3 PUSH1 0x4 ADD PUSH0 PUSH2 0x100 EXP DUP2 SLOAD DUP2 PUSH20 0xFFFFFFFFFFFFFFFFFFFFFFFFFFFFFFFFFFFFFFFF MUL NOT AND SWAP1 DUP4 PUSH20 0xFFFFFFFFFFFFFFFFFFFFFFFFFFFFFFFFFFFFFFFF AND MUL OR SWAP1 SSTORE POP CALLER PUSH20 0xFFFFFFFFFFFFFFFFFFFFFFFFFFFFFFFFFFFFFFFF AND PUSH32 0xE0903DF489D90288745389E699F476635BF4B26EAABF03F19D342CC921C54F6C DUP5 PUSH1 0x40 MLOAD PUSH2 0x4B7 SWAP2 SWAP1 PUSH2 0x1043 JUMP JUMPDEST PUSH1 0x40 MLOAD DUP1 SWAP2 SUB SWAP1 LOG2 POP POP POP JUMP JUMPDEST PUSH1 0x4 SLOAD DUP2 JUMP JUMPDEST PUSH0 PUSH1 0x1 DUP1 SLOAD SWAP1 POP GT PUSH2 0x511 JUMPI PUSH1 0x40 MLOAD PUSH32 0x8C379A000000000000000000000000000000000000000000000000000000000 DUP2 MSTORE PUSH1 0x4 ADD PUSH2 0x508 SWAP1 PUSH2 0x10AD JUMP JUMPDEST PUSH1 0x40 MLOAD DUP1 SWAP2 SUB SWAP1 REVERT JUMPDEST PUSH0 JUMPDEST PUSH1 0x1 DUP1 SLOAD SWAP1 POP DUP2 LT ISZERO PUSH2 0x5F8 JUMPI PUSH0 DUP1 PUSH1 0x1 DUP4 DUP2 SLOAD DUP2 LT PUSH2 0x536 JUMPI PUSH2 0x535 PUSH2 0x10CB JUMP JUMPDEST JUMPDEST SWAP1 PUSH0 MSTORE PUSH1 0x20 PUSH0 KECCAK256 ADD PUSH1 0x40 MLOAD PUSH2 0x54B SWAP2 SWAP1 PUSH2 0x11E7 JUMP JUMPDEST SWAP1 DUP2 MSTORE PUSH1 0x20 ADD PUSH1 0x40 MLOAD DUP1 SWAP2 SUB SWAP1 KECCAK256 SWAP1 POP PUSH32 0x731EEC37D0514029470B50942896E3BB28CBBD50752CEBEBB455158B57C3D829 DUP2 PUSH0 ADD DUP3 PUSH1 0x1 ADD PUSH0 SWAP1 SLOAD SWAP1 PUSH2 0x100 EXP SWAP1 DIV PUSH1 0xFF AND DUP4 PUSH1 0x1 ADD PUSH1 0x1 SWAP1 SLOAD SWAP1 PUSH2 0x100 EXP SWAP1 DIV PUSH1 0xFF AND DUP5 PUSH1 0x2 ADD SLOAD DUP6 PUSH1 0x3 ADD SLOAD DUP7 PUSH1 0x4 ADD PUSH0 SWAP1 SLOAD SWAP1 PUSH2 0x100 EXP SWAP1 DIV PUSH20 0xFFFFFFFFFFFFFFFFFFFFFFFFFFFFFFFFFFFFFFFF AND PUSH1 0x40 MLOAD PUSH2 0x5E2 SWAP7 SWAP6 SWAP5 SWAP4 SWAP3 SWAP2 SWAP1 PUSH2 0x128D JUMP JUMPDEST PUSH1 0x40 MLOAD DUP1 SWAP2 SUB SWAP1 LOG1 POP DUP1 DUP1 PUSH1 0x1 ADD SWAP2 POP POP PUSH2 0x513 JUMP JUMPDEST POP JUMP JUMPDEST PUSH32 0x0 PUSH20 0xFFFFFFFFFFFFFFFFFFFFFFFFFFFFFFFFFFFFFFFF AND CALLER PUSH20 0xFFFFFFFFFFFFFFFFFFFFFFFFFFFFFFFFFFFFFFFF AND EQ PUSH2 0x689 JUMPI PUSH1 0x40 MLOAD PUSH32 0x8C379A000000000000000000000000000000000000000000000000000000000 DUP2 MSTORE PUSH1 0x4 ADD PUSH2 0x680 SWAP1 PUSH2 0x1363 JUMP JUMPDEST PUSH1 0x40 MLOAD DUP1 SWAP2 SUB SWAP1 REVERT JUMPDEST PUSH0 DUP3 GT DUP1 ISZERO PUSH2 0x697 JUMPI POP PUSH0 DUP2 GT JUMPDEST PUSH2 0x6D6 JUMPI PUSH1 0x40 MLOAD PUSH32 0x8C379A000000000000000000000000000000000000000000000000000000000 DUP2 MSTORE PUSH1 0x4 ADD PUSH2 0x6CD SWAP1 PUSH2 0x13F1 JUMP JUMPDEST PUSH1 0x40 MLOAD DUP1 SWAP2 SUB SWAP1 REVERT JUMPDEST PUSH0 DUP1 DUP5 PUSH1 0x40 MLOAD PUSH2 0x6E6 SWAP2 SWAP1 PUSH2 0xCFA JUMP JUMPDEST SWAP1 DUP2 MSTORE PUSH1 0x20 ADD PUSH1 0x40 MLOAD DUP1 SWAP2 SUB SWAP1 KECCAK256 SWAP1 POP DUP4 DUP2 PUSH0 ADD SWAP1 DUP2 PUSH2 0x706 SWAP2 SWAP1 PUSH2 0x1591 JUMP JUMPDEST POP DUP3 DUP2 PUSH1 0x2 ADD DUP2 SWAP1 SSTORE POP DUP2 DUP2 PUSH1 0x3 ADD DUP2 SWAP1 SSTORE POP PUSH0 DUP2 PUSH1 0x1 ADD PUSH1 0x1 PUSH2 0x100 EXP DUP2 SLOAD DUP2 PUSH1 0xFF MUL NOT AND SWAP1 DUP4 ISZERO ISZERO MUL OR SWAP1 SSTORE POP PUSH0 DUP2 PUSH1 0x1 ADD PUSH0 PUSH2 0x100 EXP DUP2 SLOAD DUP2 PUSH1 0xFF MUL NOT AND SWAP1 DUP4 ISZERO ISZERO MUL OR SWAP1 SSTORE POP PUSH0 DUP2 PUSH1 0x4 ADD PUSH0 PUSH2 0x100 EXP DUP2 SLOAD DUP2 PUSH20 0xFFFFFFFFFFFFFFFFFFFFFFFFFFFFFFFFFFFFFFFF MUL NOT AND SWAP1 DUP4 PUSH20 0xFFFFFFFFFFFFFFFFFFFFFFFFFFFFFFFFFFFFFFFF AND MUL OR SWAP1 SSTORE POP PUSH1 0x1 DUP5 SWAP1 DUP1 PUSH1 0x1 DUP2 SLOAD ADD DUP1 DUP3 SSTORE DUP1 SWAP2 POP POP PUSH1 0x1 SWAP1 SUB SWAP1 PUSH0 MSTORE PUSH1 0x20 PUSH0 KECCAK256 ADD PUSH0 SWAP1 SWAP2 SWAP1 SWAP2 SWAP1 SWAP2 POP SWAP1 DUP2 PUSH2 0x7C3 SWAP2 SWAP1 PUSH2 0x1591 JUMP JUMPDEST POP PUSH32 0x9CDB19CEA9D23C0E85935C7016EAEB490BF814B8F83272928788FA4A91E7399A DUP5 DUP5 DUP5 PUSH1 0x40 MLOAD PUSH2 0x7F7 SWAP4 SWAP3 SWAP2 SWAP1 PUSH2 0x1660 JUMP JUMPDEST PUSH1 0x40 MLOAD DUP1 SWAP2 SUB SWAP1 LOG1 POP POP POP POP JUMP JUMPDEST PUSH0 PUSH8 0xDE0B6B3A7640000 CALLVALUE PUSH2 0x81A SWAP2 SWAP1 PUSH2 0x16C9 JUMP JUMPDEST SWAP1 POP CALLVALUE PUSH1 0x4 PUSH0 DUP3 DUP3 SLOAD PUSH2 0x82D SWAP2 SWAP1 PUSH2 0xE95 JUMP JUMPDEST SWAP3 POP POP DUP2 SWAP1 SSTORE POP PUSH1 0x2 PUSH0 SWAP1 SLOAD SWAP1 PUSH2 0x100 EXP SWAP1 DIV PUSH20 0xFFFFFFFFFFFFFFFFFFFFFFFFFFFFFFFFFFFFFFFF AND PUSH20 0xFFFFFFFFFFFFFFFFFFFFFFFFFFFFFFFFFFFFFFFF AND PUSH4 0x23B872DD PUSH1 0x3 PUSH0 SWAP1 SLOAD SWAP1 PUSH2 0x100 EXP SWAP1 DIV PUSH20 0xFFFFFFFFFFFFFFFFFFFFFFFFFFFFFFFFFFFFFFFF AND CALLER DUP5 PUSH1 0x40 MLOAD DUP5 PUSH4 0xFFFFFFFF AND PUSH1 0xE0 SHL DUP2 MSTORE PUSH1 0x4 ADD PUSH2 0x8B3 SWAP4 SWAP3 SWAP2 SWAP1 PUSH2 0x16F9 JUMP JUMPDEST PUSH1 0x20 PUSH1 0x40 MLOAD DUP1 DUP4 SUB DUP2 PUSH0 DUP8 GAS CALL ISZERO DUP1 ISZERO PUSH2 0x8CF JUMPI RETURNDATASIZE PUSH0 DUP1 RETURNDATACOPY RETURNDATASIZE PUSH0 REVERT JUMPDEST POP POP POP POP PUSH1 0x40 MLOAD RETURNDATASIZE PUSH1 0x1F NOT PUSH1 0x1F DUP3 ADD AND DUP3 ADD DUP1 PUSH1 0x40 MSTORE POP DUP2 ADD SWAP1 PUSH2 0x8F3 SWAP2 SWAP1 PUSH2 0xFE0 JUMP JUMPDEST POP PUSH1 0x3 PUSH0 SWAP1 SLOAD SWAP1 PUSH2 0x100 EXP SWAP1 DIV PUSH20 0xFFFFFFFFFFFFFFFFFFFFFFFFFFFFFFFFFFFFFFFF AND PUSH20 0xFFFFFFFFFFFFFFFFFFFFFFFFFFFFFFFFFFFFFFFF AND PUSH2 0x8FC CALLVALUE SWAP1 DUP2 ISZERO MUL SWAP1 PUSH1 0x40 MLOAD PUSH0 PUSH1 0x40 MLOAD DUP1 DUP4 SUB DUP2 DUP6 DUP9 DUP9 CALL SWAP4 POP POP POP POP ISZERO DUP1 ISZERO PUSH2 0x958 JUMPI RETURNDATASIZE PUSH0 DUP1 RETURNDATACOPY RETURNDATASIZE PUSH0 REVERT JUMPDEST POP POP JUMP JUMPDEST PUSH1 0x2 PUSH0 SWAP1 SLOAD SWAP1 PUSH2 0x100 EXP SWAP1 DIV PUSH20 0xFFFFFFFFFFFFFFFFFFFFFFFFFFFFFFFFFFFFFFFF AND DUP2 JUMP JUMPDEST PUSH0 PUSH20 0xFFFFFFFFFFFFFFFFFFFFFFFFFFFFFFFFFFFFFFFF DUP3 AND SWAP1 POP SWAP2 SWAP1 POP JUMP JUMPDEST PUSH0 PUSH2 0x9AA DUP3 PUSH2 0x981 JUMP JUMPDEST SWAP1 POP SWAP2 SWAP1 POP JUMP JUMPDEST PUSH2 0x9BA DUP2 PUSH2 0x9A0 JUMP JUMPDEST DUP3 MSTORE POP POP JUMP JUMPDEST PUSH0 PUSH1 0x20 DUP3 ADD SWAP1 POP PUSH2 0x9D3 PUSH0 DUP4 ADD DUP5 PUSH2 0x9B1 JUMP JUMPDEST SWAP3 SWAP2 POP POP JUMP JUMPDEST PUSH0 PUSH1 0x40 MLOAD SWAP1 POP SWAP1 JUMP JUMPDEST PUSH0 DUP1 REVERT JUMPDEST PUSH0 DUP1 REVERT JUMPDEST PUSH0 DUP1 REVERT JUMPDEST PUSH0 DUP1 REVERT JUMPDEST PUSH0 PUSH1 0x1F NOT PUSH1 0x1F DUP4 ADD AND SWAP1 POP SWAP2 SWAP1 POP JUMP JUMPDEST PUSH32 0x4E487B7100000000000000000000000000000000000000000000000000000000 PUSH0 MSTORE PUSH1 0x41 PUSH1 0x4 MSTORE PUSH1 0x24 PUSH0 REVERT JUMPDEST PUSH2 0xA38 DUP3 PUSH2 0x9F2 JUMP JUMPDEST DUP2 ADD DUP2 DUP2 LT PUSH8 0xFFFFFFFFFFFFFFFF DUP3 GT OR ISZERO PUSH2 0xA57 JUMPI PUSH2 0xA56 PUSH2 0xA02 JUMP JUMPDEST JUMPDEST DUP1 PUSH1 0x40 MSTORE POP POP POP JUMP JUMPDEST PUSH0 PUSH2 0xA69 PUSH2 0x9D9 JUMP JUMPDEST SWAP1 POP PUSH2 0xA75 DUP3 DUP3 PUSH2 0xA2F JUMP JUMPDEST SWAP2 SWAP1 POP JUMP JUMPDEST PUSH0 PUSH8 0xFFFFFFFFFFFFFFFF DUP3 GT ISZERO PUSH2 0xA94 JUMPI PUSH2 0xA93 PUSH2 0xA02 JUMP JUMPDEST JUMPDEST PUSH2 0xA9D DUP3 PUSH2 0x9F2 JUMP JUMPDEST SWAP1 POP PUSH1 0x20 DUP2 ADD SWAP1 POP SWAP2 SWAP1 POP JUMP JUMPDEST DUP3 DUP2 DUP4 CALLDATACOPY PUSH0 DUP4 DUP4 ADD MSTORE POP POP POP JUMP JUMPDEST PUSH0 PUSH2 0xACA PUSH2 0xAC5 DUP5 PUSH2 0xA7A JUMP JUMPDEST PUSH2 0xA60 JUMP JUMPDEST SWAP1 POP DUP3 DUP2 MSTORE PUSH1 0x20 DUP2 ADD DUP5 DUP5 DUP5 ADD GT ISZERO PUSH2 0xAE6 JUMPI PUSH2 0xAE5 PUSH2 0x9EE JUMP JUMPDEST JUMPDEST PUSH2 0xAF1 DUP5 DUP3 DUP6 PUSH2 0xAAA JUMP JUMPDEST POP SWAP4 SWAP3 POP POP POP JUMP JUMPDEST PUSH0 DUP3 PUSH1 0x1F DUP4 ADD SLT PUSH2 0xB0D JUMPI PUSH2 0xB0C PUSH2 0x9EA JUMP JUMPDEST JUMPDEST DUP2 CALLDATALOAD PUSH2 0xB1D DUP5 DUP3 PUSH1 0x20 DUP7 ADD PUSH2 0xAB8 JUMP JUMPDEST SWAP2 POP POP SWAP3 SWAP2 POP POP JUMP JUMPDEST PUSH0 PUSH1 0x20 DUP3 DUP5 SUB SLT ISZERO PUSH2 0xB3B JUMPI PUSH2 0xB3A PUSH2 0x9E2 JUMP JUMPDEST JUMPDEST PUSH0 DUP3 ADD CALLDATALOAD PUSH8 0xFFFFFFFFFFFFFFFF DUP2 GT ISZERO PUSH2 0xB58 JUMPI PUSH2 0xB57 PUSH2 0x9E6 JUMP JUMPDEST JUMPDEST PUSH2 0xB64 DUP5 DUP3 DUP6 ADD PUSH2 0xAF9 JUMP JUMPDEST SWAP2 POP POP SWAP3 SWAP2 POP POP JUMP JUMPDEST PUSH0 DUP2 SWAP1 POP SWAP2 SWAP1 POP JUMP JUMPDEST PUSH2 0xB7F DUP2 PUSH2 0xB6D JUMP JUMPDEST DUP3 MSTORE POP POP JUMP JUMPDEST PUSH0 PUSH1 0x20 DUP3 ADD SWAP1 POP PUSH2 0xB98 PUSH0 DUP4 ADD DUP5 PUSH2 0xB76 JUMP JUMPDEST SWAP3 SWAP2 POP POP JUMP JUMPDEST PUSH2 0xBA7 DUP2 PUSH2 0xB6D JUMP JUMPDEST DUP2 EQ PUSH2 0xBB1 JUMPI PUSH0 DUP1 REVERT JUMPDEST POP JUMP JUMPDEST PUSH0 DUP2 CALLDATALOAD SWAP1 POP PUSH2 0xBC2 DUP2 PUSH2 0xB9E JUMP JUMPDEST SWAP3 SWAP2 POP POP JUMP JUMPDEST PUSH0 DUP1 PUSH0 PUSH1 0x60 DUP5 DUP7 SUB SLT ISZERO PUSH2 0xBDF JUMPI PUSH2 0xBDE PUSH2 0x9E2 JUMP JUMPDEST JUMPDEST PUSH0 DUP5 ADD CALLDATALOAD PUSH8 0xFFFFFFFFFFFFFFFF DUP2 GT ISZERO PUSH2 0xBFC JUMPI PUSH2 0xBFB PUSH2 0x9E6 JUMP JUMPDEST JUMPDEST PUSH2 0xC08 DUP7 DUP3 DUP8 ADD PUSH2 0xAF9 JUMP JUMPDEST SWAP4 POP POP PUSH1 0x20 PUSH2 0xC19 DUP7 DUP3 DUP8 ADD PUSH2 0xBB4 JUMP JUMPDEST SWAP3 POP POP PUSH1 0x40 PUSH2 0xC2A DUP7 DUP3 DUP8 ADD PUSH2 0xBB4 JUMP JUMPDEST SWAP2 POP POP SWAP3 POP SWAP3 POP SWAP3 JUMP JUMPDEST PUSH0 DUP2 SWAP1 POP SWAP2 SWAP1 POP JUMP JUMPDEST PUSH0 PUSH2 0xC57 PUSH2 0xC52 PUSH2 0xC4D DUP5 PUSH2 0x981 JUMP JUMPDEST PUSH2 0xC34 JUMP JUMPDEST PUSH2 0x981 JUMP JUMPDEST SWAP1 POP SWAP2 SWAP1 POP JUMP JUMPDEST PUSH0 PUSH2 0xC68 DUP3 PUSH2 0xC3D JUMP JUMPDEST SWAP1 POP SWAP2 SWAP1 POP JUMP JUMPDEST PUSH0 PUSH2 0xC79 DUP3 PUSH2 0xC5E JUMP JUMPDEST SWAP1 POP SWAP2 SWAP1 POP JUMP JUMPDEST PUSH2 0xC89 DUP2 PUSH2 0xC6F JUMP JUMPDEST DUP3 MSTORE POP POP JUMP JUMPDEST PUSH0 PUSH1 0x20 DUP3 ADD SWAP1 POP PUSH2 0xCA2 PUSH0 DUP4 ADD DUP5 PUSH2 0xC80 JUMP JUMPDEST SWAP3 SWAP2 POP POP JUMP JUMPDEST PUSH0 DUP2 MLOAD SWAP1 POP SWAP2 SWAP1 POP JUMP JUMPDEST PUSH0 DUP2 SWAP1 POP SWAP3 SWAP2 POP POP JUMP JUMPDEST DUP3 DUP2 DUP4 MCOPY PUSH0 DUP4 DUP4 ADD MSTORE POP POP POP JUMP JUMPDEST PUSH0 PUSH2 0xCD4 DUP3 PUSH2 0xCA8 JUMP JUMPDEST PUSH2 0xCDE DUP2 DUP6 PUSH2 0xCB2 JUMP JUMPDEST SWAP4 POP PUSH2 0xCEE DUP2 DUP6 PUSH1 0x20 DUP7 ADD PUSH2 0xCBC JUMP JUMPDEST DUP1 DUP5 ADD SWAP2 POP POP SWAP3 SWAP2 POP POP JUMP JUMPDEST PUSH0 PUSH2 0xD05 DUP3 DUP5 PUSH2 0xCCA JUMP JUMPDEST SWAP2 POP DUP2 SWAP1 POP SWAP3 SWAP2 POP POP JUMP JUMPDEST PUSH0 DUP3 DUP3 MSTORE PUSH1 0x20 DUP3 ADD SWAP1 POP SWAP3 SWAP2 POP POP JUMP JUMPDEST PUSH32 0x43617220646F6573206E6F742065786973742E00000000000000000000000000 PUSH0 DUP3 ADD MSTORE POP JUMP JUMPDEST PUSH0 PUSH2 0xD54 PUSH1 0x13 DUP4 PUSH2 0xD10 JUMP JUMPDEST SWAP2 POP PUSH2 0xD5F DUP3 PUSH2 0xD20 JUMP JUMPDEST PUSH1 0x20 DUP3 ADD SWAP1 POP SWAP2 SWAP1 POP JUMP JUMPDEST PUSH0 PUSH1 0x20 DUP3 ADD SWAP1 POP DUP2 DUP2 SUB PUSH0 DUP4 ADD MSTORE PUSH2 0xD81 DUP2 PUSH2 0xD48 JUMP JUMPDEST SWAP1 POP SWAP2 SWAP1 POP JUMP JUMPDEST PUSH32 0x43617220697320616C72656164792072656E7465642E00000000000000000000 PUSH0 DUP3 ADD MSTORE POP JUMP JUMPDEST PUSH0 PUSH2 0xDBC PUSH1 0x16 DUP4 PUSH2 0xD10 JUMP JUMPDEST SWAP2 POP PUSH2 0xDC7 DUP3 PUSH2 0xD88 JUMP JUMPDEST PUSH1 0x20 DUP3 ADD SWAP1 POP SWAP2 SWAP1 POP JUMP JUMPDEST PUSH0 PUSH1 0x20 DUP3 ADD SWAP1 POP DUP2 DUP2 SUB PUSH0 DUP4 ADD MSTORE PUSH2 0xDE9 DUP2 PUSH2 0xDB0 JUMP JUMPDEST SWAP1 POP SWAP2 SWAP1 POP JUMP JUMPDEST PUSH0 PUSH2 0xDFA DUP3 PUSH2 0x981 JUMP JUMPDEST SWAP1 POP SWAP2 SWAP1 POP JUMP JUMPDEST PUSH2 0xE0A DUP2 PUSH2 0xDF0 JUMP JUMPDEST DUP3 MSTORE POP POP JUMP JUMPDEST PUSH0 PUSH1 0x20 DUP3 ADD SWAP1 POP PUSH2 0xE23 PUSH0 DUP4 ADD DUP5 PUSH2 0xE01 JUMP JUMPDEST SWAP3 SWAP2 POP POP JUMP JUMPDEST PUSH0 DUP2 MLOAD SWAP1 POP PUSH2 0xE37 DUP2 PUSH2 0xB9E JUMP JUMPDEST SWAP3 SWAP2 POP POP JUMP JUMPDEST PUSH0 PUSH1 0x20 DUP3 DUP5 SUB SLT ISZERO PUSH2 0xE52 JUMPI PUSH2 0xE51 PUSH2 0x9E2 JUMP JUMPDEST JUMPDEST PUSH0 PUSH2 0xE5F DUP5 DUP3 DUP6 ADD PUSH2 0xE29 JUMP JUMPDEST SWAP2 POP POP SWAP3 SWAP2 POP POP JUMP JUMPDEST PUSH32 0x4E487B7100000000000000000000000000000000000000000000000000000000 PUSH0 MSTORE PUSH1 0x11 PUSH1 0x4 MSTORE PUSH1 0x24 PUSH0 REVERT JUMPDEST PUSH0 PUSH2 0xE9F DUP3 PUSH2 0xB6D JUMP JUMPDEST SWAP2 POP PUSH2 0xEAA DUP4 PUSH2 0xB6D JUMP JUMPDEST SWAP3 POP DUP3 DUP3 ADD SWAP1 POP DUP1 DUP3 GT ISZERO PUSH2 0xEC2 JUMPI PUSH2 0xEC1 PUSH2 0xE68 JUMP JUMPDEST JUMPDEST SWAP3 SWAP2 POP POP JUMP JUMPDEST PUSH32 0x596F75206861766520696E73756666696369656E74204352532062616C616E63 PUSH0 DUP3 ADD MSTORE PUSH32 0x6520746F2072656E742074686973206361720000000000000000000000000000 PUSH1 0x20 DUP3 ADD MSTORE POP JUMP JUMPDEST PUSH0 PUSH2 0xF22 PUSH1 0x32 DUP4 PUSH2 0xD10 JUMP JUMPDEST SWAP2 POP PUSH2 0xF2D DUP3 PUSH2 0xEC8 JUMP JUMPDEST PUSH1 0x40 DUP3 ADD SWAP1 POP SWAP2 SWAP1 POP JUMP JUMPDEST PUSH0 PUSH1 0x20 DUP3 ADD SWAP1 POP DUP2 DUP2 SUB PUSH0 DUP4 ADD MSTORE PUSH2 0xF4F DUP2 PUSH2 0xF16 JUMP JUMPDEST SWAP1 POP SWAP2 SWAP1 POP JUMP JUMPDEST PUSH0 PUSH2 0xF60 DUP3 PUSH2 0xC5E JUMP JUMPDEST SWAP1 POP SWAP2 SWAP1 POP JUMP JUMPDEST PUSH2 0xF70 DUP2 PUSH2 0xF56 JUMP JUMPDEST DUP3 MSTORE POP POP JUMP JUMPDEST PUSH0 PUSH1 0x60 DUP3 ADD SWAP1 POP PUSH2 0xF89 PUSH0 DUP4 ADD DUP7 PUSH2 0xE01 JUMP JUMPDEST PUSH2 0xF96 PUSH1 0x20 DUP4 ADD DUP6 PUSH2 0xF67 JUMP JUMPDEST PUSH2 0xFA3 PUSH1 0x40 DUP4 ADD DUP5 PUSH2 0xB76 JUMP JUMPDEST SWAP5 SWAP4 POP POP POP POP JUMP JUMPDEST PUSH0 DUP2 ISZERO ISZERO SWAP1 POP SWAP2 SWAP1 POP JUMP JUMPDEST PUSH2 0xFBF DUP2 PUSH2 0xFAB JUMP JUMPDEST DUP2 EQ PUSH2 0xFC9 JUMPI PUSH0 DUP1 REVERT JUMPDEST POP JUMP JUMPDEST PUSH0 DUP2 MLOAD SWAP1 POP PUSH2 0xFDA DUP2 PUSH2 0xFB6 JUMP JUMPDEST SWAP3 SWAP2 POP POP JUMP JUMPDEST PUSH0 PUSH1 0x20 DUP3 DUP5 SUB SLT ISZERO PUSH2 0xFF5 JUMPI PUSH2 0xFF4 PUSH2 0x9E2 JUMP JUMPDEST JUMPDEST PUSH0 PUSH2 0x1002 DUP5 DUP3 DUP6 ADD PUSH2 0xFCC JUMP JUMPDEST SWAP2 POP POP SWAP3 SWAP2 POP POP JUMP JUMPDEST PUSH0 PUSH2 0x1015 DUP3 PUSH2 0xCA8 JUMP JUMPDEST PUSH2 0x101F DUP2 DUP6 PUSH2 0xD10 JUMP JUMPDEST SWAP4 POP PUSH2 0x102F DUP2 DUP6 PUSH1 0x20 DUP7 ADD PUSH2 0xCBC JUMP JUMPDEST PUSH2 0x1038 DUP2 PUSH2 0x9F2 JUMP JUMPDEST DUP5 ADD SWAP2 POP POP SWAP3 SWAP2 POP POP JUMP JUMPDEST PUSH0 PUSH1 0x20 DUP3 ADD SWAP1 POP DUP2 DUP2 SUB PUSH0 DUP4 ADD MSTORE PUSH2 0x105B DUP2 DUP5 PUSH2 0x100B JUMP JUMPDEST SWAP1 POP SWAP3 SWAP2 POP POP JUMP JUMPDEST PUSH32 0x4E6F20636172732061726520617661696C61626C652E00000000000000000000 PUSH0 DUP3 ADD MSTORE POP JUMP JUMPDEST PUSH0 PUSH2 0x1097 PUSH1 0x16 DUP4 PUSH2 0xD10 JUMP JUMPDEST SWAP2 POP PUSH2 0x10A2 DUP3 PUSH2 0x1063 JUMP JUMPDEST PUSH1 0x20 DUP3 ADD SWAP1 POP SWAP2 SWAP1 POP JUMP JUMPDEST PUSH0 PUSH1 0x20 DUP3 ADD SWAP1 POP DUP2 DUP2 SUB PUSH0 DUP4 ADD MSTORE PUSH2 0x10C4 DUP2 PUSH2 0x108B JUMP JUMPDEST SWAP1 POP SWAP2 SWAP1 POP JUMP JUMPDEST PUSH32 0x4E487B7100000000000000000000000000000000000000000000000000000000 PUSH0 MSTORE PUSH1 0x32 PUSH1 0x4 MSTORE PUSH1 0x24 PUSH0 REVERT JUMPDEST PUSH32 0x4E487B7100000000000000000000000000000000000000000000000000000000 PUSH0 MSTORE PUSH1 0x22 PUSH1 0x4 MSTORE PUSH1 0x24 PUSH0 REVERT JUMPDEST PUSH0 PUSH1 0x2 DUP3 DIV SWAP1 POP PUSH1 0x1 DUP3 AND DUP1 PUSH2 0x113C JUMPI PUSH1 0x7F DUP3 AND SWAP2 POP JUMPDEST PUSH1 0x20 DUP3 LT DUP2 SUB PUSH2 0x114F JUMPI PUSH2 0x114E PUSH2 0x10F8 JUMP JUMPDEST JUMPDEST POP SWAP2 SWAP1 POP JUMP JUMPDEST PUSH0 DUP2 SWAP1 POP DUP2 PUSH0 MSTORE PUSH1 0x20 PUSH0 KECCAK256 SWAP1 POP SWAP2 SWAP1 POP JUMP JUMPDEST PUSH0 DUP2 SLOAD PUSH2 0x1173 DUP2 PUSH2 0x1125 JUMP JUMPDEST PUSH2 0x117D DUP2 DUP7 PUSH2 0xCB2 JUMP JUMPDEST SWAP5 POP PUSH1 0x1 DUP3 AND PUSH0 DUP2 EQ PUSH2 0x1197 JUMPI PUSH1 0x1 DUP2 EQ PUSH2 0x11AC JUMPI PUSH2 0x11DE JUMP JUMPDEST PUSH1 0xFF NOT DUP4 AND DUP7 MSTORE DUP2 ISZERO ISZERO DUP3 MUL DUP7 ADD SWAP4 POP PUSH2 0x11DE JUMP JUMPDEST PUSH2 0x11B5 DUP6 PUSH2 0x1155 JUMP JUMPDEST PUSH0 JUMPDEST DUP4 DUP2 LT ISZERO PUSH2 0x11D6 JUMPI DUP2 SLOAD DUP2 DUP10 ADD MSTORE PUSH1 0x1 DUP3 ADD SWAP2 POP PUSH1 0x20 DUP2 ADD SWAP1 POP PUSH2 0x11B7 JUMP JUMPDEST DUP4 DUP9 ADD SWAP6 POP POP POP JUMPDEST POP POP POP SWAP3 SWAP2 POP POP JUMP JUMPDEST PUSH0 PUSH2 0x11F2 DUP3 DUP5 PUSH2 0x1167 JUMP JUMPDEST SWAP2 POP DUP2 SWAP1 POP SWAP3 SWAP2 POP POP JUMP JUMPDEST PUSH0 DUP2 SLOAD PUSH2 0x1209 DUP2 PUSH2 0x1125 JUMP JUMPDEST PUSH2 0x1213 DUP2 DUP7 PUSH2 0xD10 JUMP JUMPDEST SWAP5 POP PUSH1 0x1 DUP3 AND PUSH0 DUP2 EQ PUSH2 0x122D JUMPI PUSH1 0x1 DUP2 EQ PUSH2 0x1243 JUMPI PUSH2 0x1275 JUMP JUMPDEST PUSH1 0xFF NOT DUP4 AND DUP7 MSTORE DUP2 ISZERO ISZERO PUSH1 0x20 MUL DUP7 ADD SWAP4 POP PUSH2 0x1275 JUMP JUMPDEST PUSH2 0x124C DUP6 PUSH2 0x1155 JUMP JUMPDEST PUSH0 JUMPDEST DUP4 DUP2 LT ISZERO PUSH2 0x126D JUMPI DUP2 SLOAD DUP2 DUP10 ADD MSTORE PUSH1 0x1 DUP3 ADD SWAP2 POP PUSH1 0x20 DUP2 ADD SWAP1 POP PUSH2 0x124E JUMP JUMPDEST DUP1 DUP9 ADD SWAP6 POP POP POP JUMPDEST POP POP POP SWAP3 SWAP2 POP POP JUMP JUMPDEST PUSH2 0x1287 DUP2 PUSH2 0xFAB JUMP JUMPDEST DUP3 MSTORE POP POP JUMP JUMPDEST PUSH0 PUSH1 0xC0 DUP3 ADD SWAP1 POP DUP2 DUP2 SUB PUSH0 DUP4 ADD MSTORE PUSH2 0x12A5 DUP2 DUP10 PUSH2 0x11FD JUMP JUMPDEST SWAP1 POP PUSH2 0x12B4 PUSH1 0x20 DUP4 ADD DUP9 PUSH2 0x127E JUMP JUMPDEST PUSH2 0x12C1 PUSH1 0x40 DUP4 ADD DUP8 PUSH2 0x127E JUMP JUMPDEST PUSH2 0x12CE PUSH1 0x60 DUP4 ADD DUP7 PUSH2 0xB76 JUMP JUMPDEST PUSH2 0x12DB PUSH1 0x80 DUP4 ADD DUP6 PUSH2 0xB76 JUMP JUMPDEST PUSH2 0x12E8 PUSH1 0xA0 DUP4 ADD DUP5 PUSH2 0xE01 JUMP JUMPDEST SWAP8 SWAP7 POP POP POP POP POP POP POP JUMP JUMPDEST PUSH32 0x4F6E6C7920746865206361722072656E74616C206F776E65722063616E20646F PUSH0 DUP3 ADD MSTORE PUSH32 0x20746869732E0000000000000000000000000000000000000000000000000000 PUSH1 0x20 DUP3 ADD MSTORE POP JUMP JUMPDEST PUSH0 PUSH2 0x134D PUSH1 0x26 DUP4 PUSH2 0xD10 JUMP JUMPDEST SWAP2 POP PUSH2 0x1358 DUP3 PUSH2 0x12F3 JUMP JUMPDEST PUSH1 0x40 DUP3 ADD SWAP1 POP SWAP2 SWAP1 POP JUMP JUMPDEST PUSH0 PUSH1 0x20 DUP3 ADD SWAP1 POP DUP2 DUP2 SUB PUSH0 DUP4 ADD MSTORE PUSH2 0x137A DUP2 PUSH2 0x1341 JUMP JUMPDEST SWAP1 POP SWAP2 SWAP1 POP JUMP JUMPDEST PUSH32 0x436172206D75737420686176652061206465706F73697420616E642070726963 PUSH0 DUP3 ADD MSTORE PUSH32 0x652E000000000000000000000000000000000000000000000000000000000000 PUSH1 0x20 DUP3 ADD MSTORE POP JUMP JUMPDEST PUSH0 PUSH2 0x13DB PUSH1 0x22 DUP4 PUSH2 0xD10 JUMP JUMPDEST SWAP2 POP PUSH2 0x13E6 DUP3 PUSH2 0x1381 JUMP JUMPDEST PUSH1 0x40 DUP3 ADD SWAP1 POP SWAP2 SWAP1 POP JUMP JUMPDEST PUSH0 PUSH1 0x20 DUP3 ADD SWAP1 POP DUP2 DUP2 SUB PUSH0 DUP4 ADD MSTORE PUSH2 0x1408 DUP2 PUSH2 0x13CF JUMP JUMPDEST SWAP1 POP SWAP2 SWAP1 POP JUMP JUMPDEST PUSH0 PUSH1 0x20 PUSH1 0x1F DUP4 ADD DIV SWAP1 POP SWAP2 SWAP1 POP JUMP JUMPDEST PUSH0 DUP3 DUP3 SHL SWAP1 POP SWAP3 SWAP2 POP POP JUMP JUMPDEST PUSH0 PUSH1 0x8 DUP4 MUL PUSH2 0x1459 PUSH32 0xFFFFFFFFFFFFFFFFFFFFFFFFFFFFFFFFFFFFFFFFFFFFFFFFFFFFFFFFFFFFFFFF DUP3 PUSH2 0x141E JUMP JUMPDEST PUSH2 0x1463 DUP7 DUP4 PUSH2 0x141E JUMP JUMPDEST SWAP6 POP DUP1 NOT DUP5 AND SWAP4 POP DUP1 DUP7 AND DUP5 OR SWAP3 POP POP POP SWAP4 SWAP3 POP POP POP JUMP JUMPDEST PUSH0 PUSH2 0x1495 PUSH2 0x1490 PUSH2 0x148B DUP5 PUSH2 0xB6D JUMP JUMPDEST PUSH2 0xC34 JUMP JUMPDEST PUSH2 0xB6D JUMP JUMPDEST SWAP1 POP SWAP2 SWAP1 POP JUMP JUMPDEST PUSH0 DUP2 SWAP1 POP SWAP2 SWAP1 POP JUMP JUMPDEST PUSH2 0x14AE DUP4 PUSH2 0x147B JUMP JUMPDEST PUSH2 0x14C2 PUSH2 0x14BA DUP3 PUSH2 0x149C JUMP JUMPDEST DUP5 DUP5 SLOAD PUSH2 0x142A JUMP JUMPDEST DUP3 SSTORE POP POP POP POP JUMP JUMPDEST PUSH0 SWAP1 JUMP JUMPDEST PUSH2 0x14D6 PUSH2 0x14CA JUMP JUMPDEST PUSH2 0x14E1 DUP2 DUP5 DUP5 PUSH2 0x14A5 JUMP JUMPDEST POP POP POP JUMP JUMPDEST JUMPDEST DUP2 DUP2 LT ISZERO PUSH2 0x1504 JUMPI PUSH2 0x14F9 PUSH0 DUP3 PUSH2 0x14CE JUMP JUMPDEST PUSH1 0x1 DUP2 ADD SWAP1 POP PUSH2 0x14E7 JUMP JUMPDEST POP POP JUMP JUMPDEST PUSH1 0x1F DUP3 GT ISZERO PUSH2 0x1549 JUMPI PUSH2 0x151A DUP2 PUSH2 0x1155 JUMP JUMPDEST PUSH2 0x1523 DUP5 PUSH2 0x140F JUMP JUMPDEST DUP2 ADD PUSH1 0x20 DUP6 LT ISZERO PUSH2 0x1532 JUMPI DUP2 SWAP1 POP JUMPDEST PUSH2 0x1546 PUSH2 0x153E DUP6 PUSH2 0x140F JUMP JUMPDEST DUP4 ADD DUP3 PUSH2 0x14E6 JUMP JUMPDEST POP POP JUMPDEST POP POP POP JUMP JUMPDEST PUSH0 DUP3 DUP3 SHR SWAP1 POP SWAP3 SWAP2 POP POP JUMP JUMPDEST PUSH0 PUSH2 0x1569 PUSH0 NOT DUP5 PUSH1 0x8 MUL PUSH2 0x154E JUMP JUMPDEST NOT DUP1 DUP4 AND SWAP2 POP POP SWAP3 SWAP2 POP POP JUMP JUMPDEST PUSH0 PUSH2 0x1581 DUP4 DUP4 PUSH2 0x155A JUMP JUMPDEST SWAP2 POP DUP3 PUSH1 0x2 MUL DUP3 OR SWAP1 POP SWAP3 SWAP2 POP POP JUMP JUMPDEST PUSH2 0x159A DUP3 PUSH2 0xCA8 JUMP JUMPDEST PUSH8 0xFFFFFFFFFFFFFFFF DUP2 GT ISZERO PUSH2 0x15B3 JUMPI PUSH2 0x15B2 PUSH2 0xA02 JUMP JUMPDEST JUMPDEST PUSH2 0x15BD DUP3 SLOAD PUSH2 0x1125 JUMP JUMPDEST PUSH2 0x15C8 DUP3 DUP3 DUP6 PUSH2 0x1508 JUMP JUMPDEST PUSH0 PUSH1 0x20 SWAP1 POP PUSH1 0x1F DUP4 GT PUSH1 0x1 DUP2 EQ PUSH2 0x15F9 JUMPI PUSH0 DUP5 ISZERO PUSH2 0x15E7 JUMPI DUP3 DUP8 ADD MLOAD SWAP1 POP JUMPDEST PUSH2 0x15F1 DUP6 DUP3 PUSH2 0x1576 JUMP JUMPDEST DUP7 SSTORE POP PUSH2 0x1658 JUMP JUMPDEST PUSH1 0x1F NOT DUP5 AND PUSH2 0x1607 DUP7 PUSH2 0x1155 JUMP JUMPDEST PUSH0 JUMPDEST DUP3 DUP2 LT ISZERO PUSH2 0x162E JUMPI DUP5 DUP10 ADD MLOAD DUP3 SSTORE PUSH1 0x1 DUP3 ADD SWAP2 POP PUSH1 0x20 DUP6 ADD SWAP5 POP PUSH1 0x20 DUP2 ADD SWAP1 POP PUSH2 0x1609 JUMP JUMPDEST DUP7 DUP4 LT ISZERO PUSH2 0x164B JUMPI DUP5 DUP10 ADD MLOAD PUSH2 0x1647 PUSH1 0x1F DUP10 AND DUP3 PUSH2 0x155A JUMP JUMPDEST DUP4 SSTORE POP JUMPDEST PUSH1 0x1 PUSH1 0x2 DUP9 MUL ADD DUP9 SSTORE POP POP POP JUMPDEST POP POP POP POP POP POP JUMP JUMPDEST PUSH0 PUSH1 0x60 DUP3 ADD SWAP1 POP DUP2 DUP2 SUB PUSH0 DUP4 ADD MSTORE PUSH2 0x1678 DUP2 DUP7 PUSH2 0x100B JUMP JUMPDEST SWAP1 POP PUSH2 0x1687 PUSH1 0x20 DUP4 ADD DUP6 PUSH2 0xB76 JUMP JUMPDEST PUSH2 0x1694 PUSH1 0x40 DUP4 ADD DUP5 PUSH2 0xB76 JUMP JUMPDEST SWAP5 SWAP4 POP POP POP POP JUMP JUMPDEST PUSH32 0x4E487B7100000000000000000000000000000000000000000000000000000000 PUSH0 MSTORE PUSH1 0x12 PUSH1 0x4 MSTORE PUSH1 0x24 PUSH0 REVERT JUMPDEST PUSH0 PUSH2 0x16D3 DUP3 PUSH2 0xB6D JUMP JUMPDEST SWAP2 POP PUSH2 0x16DE DUP4 PUSH2 0xB6D JUMP JUMPDEST SWAP3 POP DUP3 PUSH2 0x16EE JUMPI PUSH2 0x16ED PUSH2 0x169C JUMP JUMPDEST JUMPDEST DUP3 DUP3 DIV SWAP1 POP SWAP3 SWAP2 POP POP JUMP JUMPDEST PUSH0 PUSH1 0x60 DUP3 ADD SWAP1 POP PUSH2 0x170C PUSH0 DUP4 ADD DUP7 PUSH2 0xF67 JUMP JUMPDEST PUSH2 0x1719 PUSH1 0x20 DUP4 ADD DUP6 PUSH2 0xE01 JUMP JUMPDEST PUSH2 0x1726 PUSH1 0x40 DUP4 ADD DUP5 PUSH2 0xB76 JUMP JUMPDEST SWAP5 SWAP4 POP POP POP POP JUMP INVALID LOG2 PUSH5 0x6970667358 0x22 SLT KECCAK256 0xEE 0xC3 0xB6 CHAINID PUSH28 0xDB61F8C6F5AEFAE51C8C7899695876A022C72FE3C768A6B6450E2764 PUSH20 0x6F6C634300081A00330000000000000000000000 "
				},
				"gasEstimates": {
					"creation": {
						"codeDepositCost": "1197600",
						"executionCost": "infinite",
						"totalCost": "infinite"
					},
					"external": {
						"addCar(string,uint256,uint256)": "infinite",
						"amountRaised()": "2470",
						"buyTokens()": "infinite",
						"getAllCars()": "infinite",
						"rentCar(string)": "infinite",
						"token()": "infinite",
						"wallet()": "2509"
					}
				},
				"methodIdentifiers": {
					"addCar(string,uint256,uint256)": "c8351be0",
					"amountRaised()": "7b3e5e7b",
					"buyTokens()": "d0febe4c",
					"getAllCars()": "abfe5d57",
					"rentCar(string)": "72fd3d3e",
					"token()": "fc0c546a",
					"wallet()": "521eb273"
				}
			},
			"storageLayout": {
				"storage": [
					{
						"astId": 808,
						"contract": "CarRental.sol:CarRental",
						"label": "carMap",
						"offset": 0,
						"slot": "0",
						"type": "t_mapping(t_string_memory_ptr,t_struct(Car)801_storage)"
					},
					{
						"astId": 811,
						"contract": "CarRental.sol:CarRental",
						"label": "carPlates",
						"offset": 0,
						"slot": "1",
						"type": "t_array(t_string_storage)dyn_storage"
					},
					{
						"astId": 814,
						"contract": "CarRental.sol:CarRental",
						"label": "token",
						"offset": 0,
						"slot": "2",
						"type": "t_contract(ERC20)651"
					},
					{
						"astId": 816,
						"contract": "CarRental.sol:CarRental",
						"label": "wallet",
						"offset": 0,
						"slot": "3",
						"type": "t_address_payable"
					},
					{
						"astId": 818,
						"contract": "CarRental.sol:CarRental",
						"label": "amountRaised",
						"offset": 0,
						"slot": "4",
						"type": "t_uint256"
					}
				],
				"types": {
					"t_address": {
						"encoding": "inplace",
						"label": "address",
						"numberOfBytes": "20"
					},
					"t_address_payable": {
						"encoding": "inplace",
						"label": "address payable",
						"numberOfBytes": "20"
					},
					"t_array(t_string_storage)dyn_storage": {
						"base": "t_string_storage",
						"encoding": "dynamic_array",
						"label": "string[]",
						"numberOfBytes": "32"
					},
					"t_bool": {
						"encoding": "inplace",
						"label": "bool",
						"numberOfBytes": "1"
					},
					"t_contract(ERC20)651": {
						"encoding": "inplace",
						"label": "contract ERC20",
						"numberOfBytes": "20"
					},
					"t_mapping(t_string_memory_ptr,t_struct(Car)801_storage)": {
						"encoding": "mapping",
						"key": "t_string_memory_ptr",
						"label": "mapping(string => struct CarRental.Car)",
						"numberOfBytes": "32",
						"value": "t_struct(Car)801_storage"
					},
					"t_string_memory_ptr": {
						"encoding": "bytes",
						"label": "string",
						"numberOfBytes": "32"
					},
					"t_string_storage": {
						"encoding": "bytes",
						"label": "string",
						"numberOfBytes": "32"
					},
					"t_struct(Car)801_storage": {
						"encoding": "inplace",
						"label": "struct CarRental.Car",
						"members": [
							{
								"astId": 790,
								"contract": "CarRental.sol:CarRental",
								"label": "carPlate",
								"offset": 0,
								"slot": "0",
								"type": "t_string_storage"
							},
							{
								"astId": 792,
								"contract": "CarRental.sol:CarRental",
								"label": "isDamaged",
								"offset": 0,
								"slot": "1",
								"type": "t_bool"
							},
							{
								"astId": 794,
								"contract": "CarRental.sol:CarRental",
								"label": "isRented",
								"offset": 1,
								"slot": "1",
								"type": "t_bool"
							},
							{
								"astId": 796,
								"contract": "CarRental.sol:CarRental",
								"label": "deposit",
								"offset": 0,
								"slot": "2",
								"type": "t_uint256"
							},
							{
								"astId": 798,
								"contract": "CarRental.sol:CarRental",
								"label": "price",
								"offset": 0,
								"slot": "3",
								"type": "t_uint256"
							},
							{
								"astId": 800,
								"contract": "CarRental.sol:CarRental",
								"label": "renterAddress",
								"offset": 0,
								"slot": "4",
								"type": "t_address"
							}
						],
						"numberOfBytes": "160"
					},
					"t_uint256": {
						"encoding": "inplace",
						"label": "uint256",
						"numberOfBytes": "32"
					}
				}
			},
			"userdoc": {
				"kind": "user",
				"methods": {},
				"version": 1
			}
		}
	}
}